:020000040800F2
:100000002866002045010008E1290008E3290008CE
:10001000F5290008F9290008FD2900080000000062
:10002000000000000000000000000000012A00089D
:10003000032A000800000000052A0008072A00081B
:100040005F010008092A00085F0100085F0100083D
:100050005F0100085F0100085F0100085F01000800
:100060005F0100085F0100085F0100085F010008F0
:100070005F0100085F0100085F0100085F010008E0
:100080005F0100085F0100085F0100085F010008D0
:100090005F0100085F0100085F0100084995000842
:1000A0005F0100085F0100085F0100085F010008B0
:1000B000252A00083F2A00085F0100085F010008A8
:1000C0005F0100085F0100085F0100085F01000890
:1000D0005F0100088F2B0008AF2B00085F010008AC
:1000E0005F0100085F0100085F0100085F01000870
:1000F0005F0100085F0100085F0100085F01000860
:100100005F0100085F0100085F0100085F0100084F
:10011000452C0008712C00085F0100085F010008F1
:100120005F0100085F0100085F0100085F0100082F
:10013000DFF80CD00BF084FE00480047512800087F
:10014000286600200648804706480047FEE7FEE78D
:10015000FEE7FEE7FEE7FEE7FEE7FEE7FEE7FEE777
:100160006B01000831010008704710B5364800687F
:1001700040F00100344908600846406833490840AF
:100180003149486008460068314908402E490860F6
:100190000846006820F4802008600846406820F483
:1001A000FE0048604FF41F008860FFF7DDFF4FF04E
:1001B00000602849086010BD10B500210020002211
:1001C000214B5B6803F00C0121B1042906D00829FA
:1001D00028D107E0204B214C236027E01E4B1F4C09
:1001E000236023E0184B5B6803F47010164B5B68C8
:1001F00003F48032022303EB904022B9184B4343AF
:10020000164C23600DE0104B5B6803F4003323B100
:10021000134B4343114C236003E00F4B43430F4CFC
:10022000236003E00C4B0D4C236000BF00BF064B66
:100230005B68C3F303130B4CE15C084B1B68CB40BA
:10024000064C236010BD0000001002400000FFF8C3
:10025000FFFFF6FE08ED00E000127A00000000202B
:1002600000093D000400002031490143314A11607A
:10027000704770B5002100230F22C47804B32D4CC1
:10028000246804F4E064C4F5E064210AC1F10403C5
:10029000CA40447804FA03F18478144021430901E8
:1002A000254C0678A155047804F01F050124AC40C4
:1002B00005786D11AD0005F1E025C5F8004109E0B4
:1002C000047804F01F050124AC401C4D067876111B
:1002D00045F8264070BD1A4A0A400243154B1B1FC1
:1002E0001A60704739B1134A121D12680243114B4C
:1002F0001B1D1A6006E00F4A121D126882430D4B47
:100300001B1D1A607047042808D14FF0E0210969CD
:1003100041F004014FF0E022116107E04FF0E021CD
:10032000096921F004014FF0E022116170470000DB
:100330000000FA050CED00E000E400E080E100E0E0
:1003400080FFFF1F002044490860091D0860091D47
:100350000860091D086041483F4914310860704732
:1003600000213D498279002A3AD00A461268036882
:100370009A430B461A600A1D126803689A430B1DC4
:100380001A60027911440A6803681A430A60324A03
:100390000832126803689A432F4B08331A601A1DFB
:1003A000126803689A432C4B0C331A604279102A66
:1003B0000ED11A1F126803681A43274B08331A60BC
:1003C0001A1D126803681A43234B0C331A600DE0A0
:1003D0002149427911440A6803681A430A6005E01A
:1003E000027911440A6803689A430A607047002141
:1003F000016001710C214171002181717047164922
:10040000103109680143144A1032116070470146E7
:100410000020114A143212680A400AB1012000E09B
:10042000002070470C4914310860704701460020D5
:100430000022094B1B6803EA0102074B14331B68B7
:100440000B4013B10AB1012000E0002070470249BF
:10045000143108607047000000040140FFFF0F00E6
:1004600001460020FE4A106800F038000843106082
:100470007047FB49096821F00801F94A11601146EB
:100480000968014311607047F549096821F01001BE
:10049000F34A116011460968014311607047F14841
:1004A000EF494860F04848607047EE48EC494860C2
:1004B000ED4848607047EA48006940F08000E8492C
:1004C00008617047E648006940F08000E44908612F
:1004D00070470420E249C96801F0010109B1012017
:1004E0000EE0DF49C96801F0040109B1022007E00C
:1004F000DB49C96801F0100109B1032000E00420C4
:10050000704700B502460423FFF7E3FF034603E00C
:10051000FFF7DFFF0346521E012B01D1002AF7D15E
:1005200002B90523184600BD30B5044604254FF432
:100530003020FFF7E6FF0546042D17D1C8480069B3
:1005400040F00200C649086108464461006940F075
:10055000400008614FF43020FFF7D3FF0546C04844
:10056000006941F6FD710840BD490861284630BD6B
:1005700010B504244FF43020FFF7C3FF0446042CC9
:1005800016D1B748006940F00400B5490861084633
:10059000006940F0400008614FF43020FFF7B1FFE0
:1005A0000446AF48006941F6FB710840AC49086158
:1005B000204610BD00B502460423FFF78AFF03461C
:1005C00003E0FFF786FF0346521E012B01D1002AEC
:1005D000F7D102B90523184600BD10B504244FF425
:1005E0003020FFF7E7FF0446042C16D19C48006931
:1005F00040F004009A4908610846006940F0400054
:1006000008614FF43020FFF7D5FF04469448006995
:1006100041F6FB71084092490861204610BD002058
:100620008F49C96901F0020109B1012000E00020F1
:10063000704730B5A5250424FFF7F1FF00B1002570
:100640004FF43020FFF75DFF0446042C3AD1854873
:1006500083498860844888600846006940F020002B
:1006600008610846006940F0400008614FF43020FE
:10067000FFF747FF0446042C1BD17948006941F677
:10068000DF710840764908610846006940F01000B3
:10069000086176480580E002FFF733FF0446052C29
:1006A00010D06F48006941F6EF7108406C4908614D
:1006B00008E0052C06D06A48006941F6EF71084051
:1006C00067490861204630BD78B506460C460425CA
:1006D00000200090E802FFF714FF0546042D24D106
:1006E0005F48006940F001005D4908613480E8021C
:1006F000FFF707FF0546042D10D1B01C0090200C19
:1007000000990880E802FFF7FCFE0546544800699E
:1007100041F6FE7108405249086106E05048006900
:1007200041F6FE7108404E490861284678BD70B513
:1007300004460D460426F002FFF7E3FE0646042EAB
:1007400011D14748006940F0010045490861258002
:10075000F002FFF7D6FE06464148006941F6FE71F9
:1007600008403F490861304670BD70B505460E46E9
:100770000424E002FFF7C5FE0446042C17D13948D3
:1007800037498860384888600846006940F01000A2
:1007900008612E80E002FFF7B4FE0446052C06D067
:1007A0002F48006941F6EF7108402D490861204645
:1007B00070BD2DE9F04304464FF6FF763746B0464C
:1007C000B1460425E443E6B2C4F30727C4F307485F
:1007D0004FEA1469E802FFF794FE0546042D49D15B
:1007E00020481F498860204888600846006940F01A
:1007F00010000861FF2E06D01C4808300680E80271
:10080000FFF77FFE0546042D08D1FF2F06D01748BD
:100810000A300780E802FFF774FE0546042D0AD16E
:10082000B8F1FF0F07D011480C30A0F80080E802A3
:10083000FFF767FE0546042D0AD1B9F1FF0F07D077
:100840000A480E30A0F80090E802FFF75AFE05466D
:10085000052D0FD00248006941F6EF71084007E00E
:100860000020024023016745AB89EFCD00F8FF1F50
:10087000664908612846BDE8F08330B50546042482
:100880004FF43020FFF73DFE0446042C41D1604870
:100890005E4988605F4888600846006940F0200033
:1008A00008610846006940F0400008614FF43020BC
:1008B000FFF727FE0446042C22D15448006941F674
:1008C000DF710840514908610846006940F0100096
:1008D00008611DB100205049088002E0A5204E4962
:1008E00008804FF43020FFF70CFE0446052C10D092
:1008F0004648006941F6EF7108404449086108E044
:10090000052C06D04148006941F6DF7108403F4997
:100910000861204630BDF0B505460E461746042452
:100920003B483A4988603B488860E002FFF7E9FDB0
:100930000446042C19D13548006940F010003349B1
:10094000086147F0F800304328433349891C088088
:10095000E002FFF7D6FD0446052C06D02B480069BF
:1009600041F6EF710840294908612046F0BD27484B
:10097000C069800870472548006A704700202349F5
:10098000096801F0200109B1012000E00020704752
:1009900029B11E4A126902431C4B1A6104E01B4A2A
:1009A00012698243194B1A617047014600200129E0
:1009B00008D1164AD26902F001020AB1012008E00A
:1009C000002006E0114AD2680A400AB1012000E086
:1009D000002070470D49C860704704200B49C96862
:1009E00001F0010109B101200EE00849C96801F0D8
:1009F000040109B1022007E00449C96801F01001AF
:100A000009B1032000E004207047000000200240EC
:100A100023016745AB89EFCD00F8FF1F10B50446F1
:100A2000CC48844208D10121042000F02DFB002194
:100A3000042000F029FB46E0C748844208D1012188
:100A4000082000F021FB0021082000F01DFB3AE007
:100A5000C248844208D10121102000F015FB00217A
:100A6000102000F011FB2EE0BD48844208D1012186
:100A7000202000F009FB0021202000F005FB22E0EF
:100A8000B848844208D10121402000F0FDFA00213D
:100A9000402000F0F9FA16E0B348844208D1012161
:100AA000802000F0F1FA0021802000F0EDFA0AE049
:100AB000AE48844207D10121801500F0E5FA0021FB
:100AC000A01500F0E1FA10BD10B50121084600F0B4
:100AD000DBFA0021012000F0D7FA10BD2DE9F0412A
:100AE000024600250026002000230024002791F85C
:100AF00003C00CF00F0591F803C00CF0100CBCF112
:100B0000000F03D091F802C04CEA050591F800C02F
:100B1000BCF1000F31D0146800202BE04FF0010C25
:100B20000CFA00F3B1F800C00CEA03069E4220D193
:100B300083004FF00F0C0CFA03F7BC4305FA03FCDB
:100B40004CEA040491F803C0BCF1280F06D14FF021
:100B5000010C0CFA00FCC2F814C00AE091F803C0C2
:100B6000BCF1480F05D14FF0010C0CFA00FCC2F8A3
:100B700010C0401C0828D1D31460B1F800C0BCF1EB
:100B8000FF0F34DD546800202EE000F1080C4FF018
:100B9000010808FA0CF3B1F800C00CEA03069E4203
:100BA00021D183004FF00F0C0CFA03F7BC4305FA78
:100BB00003FC4CEA040491F803C0BCF1280F05D1F2
:100BC00000F1080C08FA0CF8C2F8148091F803C080
:100BD000BCF1480F07D100F1080C4FF0010808FAEA
:100BE0000CF8C2F81080401C0828CED35460BDE831
:100BF000F0814FF6FF710180022181700421C170E4
:100C000070470246002093680B400BB1012000E0C2
:100C1000002070470146886880B270470246002075
:100C2000D3680B400BB1012000E000207047014663
:100C3000C86880B2704701617047416170470AB16E
:100C4000016100E041617047C16070474FF480323C
:100C50000A438261816182618269826970470246CA
:100C60000020434B18684FF68073184040EA02108A
:100C700008433F4B186070473E49C8617047F0B564
:100C80000A46002300240021002500F00046B6F1AA
:100C9000004F02D1364EF16901E0354E7168C0F364
:100CA000034583B200F44016B6F5401F08D121F089
:100CB00070612F4E766826F070662D4F7E6012E0D0
:100CC00000F48016B6F5801F06D1032606FA05F457
:100CD000A14341F0706106E0460D360103FA06F6C5
:100CE000B14341F0706122B1460D360103FA06F6B8
:100CF000314300F00046B6F1004F02D11C4EF161C5
:100D000001E01B4E7160F0BD30B500228B071C0F57
:100D10000F2303FA04F2164B08338C1053F82430D7
:100D20009343134C08348D1044F8253023468C101F
:100D300053F824308C07240F00FA04F423430C4C9E
:100D400008348D1044F8253030BD0A49DC31086084
:100D50007047000000080140000C014000100140F5
:100D60000014014000180140001C01400020014017
:100D70000000014000002042DF48006840F0010010
:100D8000DD49086008464068DC490840DA494860A7
:100D900008460068DA490840D749086008460068F4
:100DA00020F4802008600846406820F4FE00486077
:100DB0004FF41F0088607047CF49096821F48031E3
:100DC000CD4A11601146096821F480211160B0F507
:100DD000803F03D0B0F5802F0ED106E0C6490968E8
:100DE00041F48031C44A116007E0C349096841F405
:100DF000A021C14A116000E000BF00BF704710B5DC
:100E000001460022002300204A11012A02D1BA4CD7
:100E1000236806E0022A02D1B74C236A01E0B64CEF
:100E2000636A01F01F02012494401C400CB10120B0
:100E300000E0002010BD38B50020009000240025FF
:100E400000BF3120FFF7DBFF05460098401C0090F3
:100E50000098B0F5A06F01D0002DF2D03120FFF73F
:100E6000CEFF08B1012400E00024204638BD014631
:100E70000020A14A106820F0F80040EAC10010608C
:100E80007047A04908607047024600209A4B586896
:100E900020F47C1042EA01031843974B58607047D6
:100EA00098490866704701460020934A506820F030
:100EB00003000843506070478F48406800F00C0002
:100EC0007047014600208C4A506820F0F00008432B
:100ED0005060704701460020874A506820F4E06067
:100EE00008435060704701460020834A506820F450
:100EF000605040EAC1005060704729B17E4A527A82
:100F000002437D4B5A7204E07B4A527A82437A4B09
:100F10005A7270477B49D8310860704701460020FB
:100F2000754A506820F440400843506070470021E3
:100F3000714A20321170704A82F82010012802D0C4
:100F400004280AD104E001216B4A2032117005E027
:100F50000521694A2032117000E000BF00BF7047D0
:100F60006949086070476449096A0143624A11622D
:100F70007047654944390860704730B50021002248
:100F8000002400235C4D6D6805F00C0121B104299B
:100F900005D0082923D105E05C4D056022E05B4DBA
:100FA00005601FE0544D6D6805F47012524D6D6878
:100FB00005F48034022505EB92421CB9544D55438B
:100FC00005600BE04C4D6D6805F400351DB1504DCA
:100FD0005543056002E04D4D5543056002E04B4D21
:100FE000056000BF00BF444D6D6805F0F0010909C0
:100FF000484D6B5C0568DD4045603F4D6D6805F40C
:10100000E061090A434D6B5C4568DD4085603A4DFF
:101010006D6805F46051C90A3E4D6B5C4568DD4062
:10102000C560354D6D6805F44041890B3A4D6B5CE8
:10103000C568B5FBF3F5056130BD29B12E4A52698B
:1010400002432D4B5A6104E02B4A526982432A4BDA
:101050005A61704729B1284A92690243264B9A6126
:1010600004E0254A92698243234B9A61704729B173
:10107000214AD2690243204BDA6104E01E4AD26958
:1010800082431D4BDA61704729B11B4AD268024383
:10109000194BDA6004E0184AD2688243164BDA60D2
:1010A000704729B1144A12690243134B1A6104E0D4
:1010B000114A12698243104B1A6170471249403934
:1010C000086070470F49C86470470B49C871704782
:1010D0000948406A40F080700749486270470146FD
:1010E0000020054A92680A400AB1012000E0002071
:1010F0007047014988727047001002400000FFF8F5
:10110000FFFFF6FE000042428004424200127A00D5
:1011100000093D00140000202400002010B5044602
:10112000BE48844208D101218014FFF7ADFF0021A1
:10113000A014FFF7A9FF16E0B948844208D10121A5
:101140000014FFF7AEFF00212014FFF7AAFF0AE00A
:10115000B448844207D10121C013FFF7A2FF002148
:10116000E013FFF79EFF10BD10B50022028802F4C5
:1011700041520B884C8823438C882343CC882343DB
:101180000C8923434C8923438C892343CC892343F3
:101190001A430280838B4FF2FF74234083830B8AB0
:1011A000038210BD2DE9F04F85B005460C464FF087
:1011B000000902274FF000084FF0010B0026B2464D
:1011C000A88B4FF240010840A88302202884B5F87C
:1011D0001C90A068022801D100BF38E0A08810B997
:1011E0004FF0010B01E04FF0020B8D48854200D11A
:1011F00000E000BF6846FFF7C0FEDDF800A0E08811
:10120000B0F5007F0AD14FEA1A2000EB80004000C1
:10121000A168B0FBF1F0401D86B20BE04FEA4B1025
:10122000BAFBF0F000EB80004000A168B0FBF1F0E9
:10123000401D86B20A20B6FBF0F606F00108A6EBC8
:101240000800C0F34F074FF6FF7000EA0828022F8E
:1012500001DBFF2F02DD02274FF00008E08840EAA3
:10126000080038432884A088A1890843618808437E
:101270002188084340F4006040EA0909A5F81C9061
:1012800005B0BDE8F08F0021018041808180C180E0
:10129000018141818181C181072101827047002143
:1012A000018041808180C180022181600021818193
:1012B000704721B1028842F04002028004E00288B7
:1012C0004FF6BF731A400280704721B1828B42F4FF
:1012D0008062828304E0828B4FF6FF331A40828360
:1012E000704730B5002400230C110125A540ABB296
:1012F0001AB185881D43858002E085889D438580DD
:1013000030BD1AB183880B43838002E083888B430E
:1013100083807047818170470146888970474FF606
:10132000FF62914204D0028842F48072028004E09D
:1013300002884FF6FF631A400280704721B182880D
:1013400042F00402828004E082884FF6FB731A4068
:101350008280704702884FF2FF731A400280028831
:101360000A4302807047018841F480510180704730
:1013700021B1028842F40052028004E002884DF656
:10138000FF731A400280704702460020012901D0F5
:10139000108B00E0908A70470146088A7047B1F5CB
:1013A000804F04D1028842F48042028004E0028827
:1013B0004BF6FF731A4002807047024600201389E3
:1013C0000B400BB1012000E000207047CA430281AE
:1013D0007047F0B50246002000240023002501F0EC
:1013E0000F070126BE40B4B20B1101269E40B3B2D6
:1013F000968806EA03051689264016B10DB101202C
:1014000000E00020F0BD10B5002201F00F04012320
:10141000A3409AB2D343038110BD000000300140C5
:1014200000380040003C004010B50446FE488442AD
:1014300008D10121C014FFF727FE0021E014FFF7B7
:1014400023FEC4E0B4F1804F08D101210846FFF724
:1014500028FE00210120FFF724FEB8E0F348844273
:1014600008D101210220FFF71CFE00210220FFF716
:1014700018FEACE0EE48844208D101210420FFF7B9
:1014800010FE00210420FFF70CFEA0E0E948844292
:1014900008D101210820FFF704FE00210820FFF7F2
:1014A00000FE94E0E448844208D101211020FFF7B7
:1014B000F8FD00211020FFF7F4FD88E0DF488442AA
:1014C00008D101212020FFF7ECFD00212020FFF7AB
:1014D000E8FD7CE0DA48844208D101214014FFF79E
:1014E000D3FD00216014FFF7CFFD70E0D5488442A2
:1014F00009D10121C804FFF7C7FD00214FF40020E6
:10150000FFF7C2FD63E0D048844209D101210805FC
:10151000FFF7BAFD00214FF48010FFF7B5FD56E04C
:10152000CA48844209D101214805FFF7ADFD0021D9
:101530004FF40010FFF7A8FD49E0C548844208D1E8
:1015400001214020FFF7ADFD00214020FFF7A9FD5C
:101550003DE0C048844208D101218020FFF7A1FD71
:1015600000218020FFF79DFD31E0BB48844208D177
:1015700001218015FFF795FD0021A015FFF791FDD2
:1015800025E0B648844209D101210804FFF77CFD1B
:1015900000214FF48030FFF777FD18E0B048844217
:1015A00009D101214804FFF76FFD00214FF40030FD
:1015B000FFF76AFD0BE0AB48844208D101218804A3
:1015C000FFF762FD00214FF48020FFF75DFD10BDA5
:1015D00000220288944B98420ED0994B98420BD02F
:1015E000B0F1804F08D0914B984205D0904B984273
:1015F00002D0904B984204D14FF68F731A404B881B
:101600001A438D4B984207D08C4B984204D04FF62A
:10161000FF431A40CB881A4302808B8883850B884E
:101620000385814B98420BD0854B984208D08B4B59
:10163000984205D08A4B984202D08A4B984201D1F9
:101640000B7A038601238382704770B50024002241
:101650000023058C4FF6FE7635400584028C838886
:10166000048B4FF68F752C40B51E2C400D882C43F3
:10167000751E2A400D892A434D882A436A4DA84287
:101680000BD06F4DA84208D0744DA84205D0744DC0
:10169000A84202D0734DA84213D14FF6F7752A40E5
:1016A0004D892A434FF6FB752A408D882A434FF611
:1016B000FF652B404FF6FF552B408D892B43CD897D
:1016C0002B4383800483CD888586028470BD70B5EA
:1016D000002400220023058C4FF6EF763540058468
:1016E000028C8388048B48F6FF752C404FF6FF452B
:1016F0002C400D884FF6FF7606EA05252C434FF661
:10170000DF752A400D8906EA05152A434D8806EA49
:1017100005152A43444DA84202D0494DA8421DD187
:101720004FF67F752A404D894FF6FF7606EA05157C
:101730002A434FF6BF752A408D8806EA05152A43CD
:101740004FF6FF352B404FF2FF752B408D8906EA8F
:1017500085052B43CD8906EA85052B4383800483C9
:10176000CD880587028470BD70B500240022002357
:10177000058C4FF6FF6635400584028C8388848B88
:101780004FF68F752C404FF6FC752C400D882C437E
:101790004FF6FF552A400D894FF6FF7606EA0525DC
:1017A0002A434D8806EA05252A431F4DA84202D048
:1017B000234DA8421DD14FF2FF752A404D894FF6A7
:1017C000FF7606EA05252A434FF6FF352A408D8825
:1017D00006EA05252A434EF6FF752B404DF6FF75A8
:1017E0002B408D8906EA05152B43CD8906EA0515A0
:1017F0002B4383808483CD888587028470BD70B538
:10180000002200230024058C4EF6FF763540058427
:10181000038C8488828B48F6FF752A404FF6FF457B
:101820002A400D8820E00000002C01400004004008
:1018300000080040000C0040001000400014004070
:1018400000340140004C0140005001400054014070
:1018500000180040001C00400020004000400140F3
:1018600000440140004801404FF6FF7606EA052596
:101870002A434DF6FF752B400D8906EA05352B43AB
:101880004D8806EA05352B43FA4DA84202D0FA4DA1
:10189000A84208D14BF6FF752C408D894FF6FF7694
:1018A00006EA85152C4384808283CD88A0F84050B9
:1018B000038470BD828B4FF2FF331A408283828B88
:1018C0004FF6FF7303EA01231A4382837047F0B592
:1018D0000C461546002200210026078C4EF6FF7CA0
:1018E00007EA0C070784828B018C4FF6FF7707EA23
:1018F000043640F6FF473A404FF6FF7707EA0527E0
:101900003A434FF6FF7707EA03373A43D94FB842D5
:101910000ED0D94FB8420BD0B0F1804F08D0D74F7E
:10192000B84205D0D64FB84202D0D64FB84206D101
:101930004DF6FF77394046F48057394305E047F6C6
:10194000FF57394044F48057394382830184F0BD06
:10195000828B4FF6F3731A408283828B0A43828311
:101960007047F0B50C461546002200210026078C72
:101970004FF6FF6C07EA0C070784828B018C4FF649
:10198000FF7707EA04264FF60C773A404FF6FF77C9
:1019900007EA03172F433A43B64FB8420ED0B64F6B
:1019A000B8420BD0B0F1804F08D0B44FB84205D048
:1019B000B34FB84202D0B34FB84206D14FF6FF57EB
:1019C000394046F48077394305E04FF2FF573940FC
:1019D00044F48077394382830184F0BD028B4FF257
:1019E000FF331A400283028B4FF6FF7303EA012391
:1019F0001A4302837047F0B50C46154600220021B9
:101A00000026078C4FF6EF7C07EA0C070784028B51
:101A1000018C4FF6FF7707EA041640F6FF473A407D
:101A20004FF6FF7707EA03373A434FF6FF7707EAA7
:101A300005273A438F4FB8420ED08F4FB8420BD094
:101A4000B0F1804F08D08D4FB84205D08C4FB842CE
:101A500002D08C4FB84206D14FF6DF77394046F0BE
:101A60001007394305E04FF65F77394044F010071F
:101A7000394302830184F0BD028B4FF6F3731A40A1
:101A80000283028B0A4302837047F0B50C46154669
:101A900000220021068C4FF6FE773E400684028B22
:101AA000018C4FF60C7632407E1C06EA03162E435C
:101AB0003243704EB0420ED06F4EB0420BD0B0F1F8
:101AC000804F08D06D4EB04205D06D4EB04202D06E
:101AD0006C4EB04206D14FF6FD76314044F001061F
:101AE000314305E04FF6F576314044F001063143CD
:101AF00002830184F0BD70B505460C465D48854201
:101B00000ED05D4885420BD0B5F1804F08D05B48C0
:101B1000854205D05A48854202D05A48854200D1B4
:101B200000E000BF208850B92389A2886188284638
:101B3000FFF7ABFFE1882846FFF79EFF25E02088EE
:101B400004280AD12389A28861882846FFF753FF19
:101B5000E1882846FFF742FF17E0208808280AD1CD
:101B60002389A28861882846FFF7FBFEE188284682
:101B7000FFF7EEFE09E02389A28861882846FFF777
:101B8000A6FEE1882846FFF795FE70BD2DE9F041DD
:101B900005460C4600260127608808B9022600E0A9
:101BA0000026A088012801D1022700E00127208813
:101BB000A0B92389A28861882846FFF766FFE188DB
:101BC0002846FFF759FF23893A4631462846FFF752
:101BD00012FFE1882846FFF701FF13E02389A2885E
:101BE00061882846FFF707FFE1882846FFF7F6FEE1
:101BF00023893A4631462846FFF747FFE1882846C1
:101C0000FFF73AFFBDE8F0810A884B881A438B88BA
:101C10001A43CB881A430B891A434B891A438B8981
:101C20001A43A0F8442070474FF6FF7181800021CD
:101C30000180C18041800172704700210180418094
:101C40008180C180018141818181C18170470021F2
:101C500001804180012181800021C1800181704784
:101C60000021018041808180C18001814181818189
:101C700070470000002C0140003401400004004087
:101C800000080040000C004021B1028842F001022F
:101C9000028004E002884FF6FE731A40028070470B
:101CA00031B1B0F8442042F40042A0F8442005E0ED
:101CB000B0F84420C2F30E02A0F8442070471AB1D5
:101CC00083890B43838102E083898B43838170473F
:101CD0008182704741EA0203A0F8483070471AB188
:101CE00083890B43838102E083898B43838170471F
:101CF00001894FF6F8721140018170470A460021B0
:101D000001894FF68F73194011430181704730B537
:101D100004460D4629462046FFF7F0FF208940F093
:101D20000700208130BD2DE9F04104460D461646DE
:101D30001F46602D06D13B46012231462046FFF763
:101D40005AFE05E03B46012231462046FFF79DFE44
:101D500029462046FFF7D2FF208940F00700208166
:101D6000BDE8F08130B50C4600210189C9B24FF6BB
:101D7000FF7505EA0325154325432943018130BD3D
:101D80002DE9F04105460E46174698460024434685
:101D90003A4631462846FFF7E5FF2C894FF6F870A2
:101DA000044044F007044FF68F70044044F0700480
:101DB0002C81BDE8F081F0B504460D4616461F465D
:101DC0003B46324629462046FFF7CCFF208940F4A7
:101DD00080402081F0BD0185828270470A46002143
:101DE00001884FF68F731940114301807047F0B599
:101DF0000C4615461E460021002200230189028B55
:101E0000038C4FF6F877394021434FF6FC473A40B0
:101E100040F201173A434FF6DD773B404FF6FF772C
:101E200007EA06172F433B43018102830384F0BD79
:101E30000A460021018B4FF68F731940114301832D
:101E400070470A460021018B48F6FF7319404FF690
:101E5000FF7303EA02231943018370470A460021F6
:101E6000818B4FF68F7319401143818370470A4667
:101E70000021818B48F6FF7319404FF6FF7303EA88
:101E8000022319438183704721B1028842F0800206
:101E9000028004E002884FF67F731A400280704788
:101EA00021B1828842F00402828004E082884FF6E9
:101EB000FB731A408280704721B1828842F0080289
:101EC000828004E082884FF6F7731A408280704760
:101ED00021B1828842F00102828004E082884FF6BC
:101EE000FE731A40828070470A460021018B4FF62C
:101EF000F77319401143018370470A460021018B93
:101F00004FF2FF7319404FF6FF7303EA02231943A0
:101F1000018370470A460021818B4FF6F773194001
:101F20001143818370470A460021818B4FF2FF7372
:101F300019404FF6FF7303EA022319438183704768
:101F40000A460021018B4FF6FB73194011430183B0
:101F500070470A460021018B4FF6FF3319404FF6B8
:101F6000FF7303EA02231943018370470A460021E5
:101F7000818B4FF6FB7319401143818370470A46EA
:101F80000021818B4FF6FF3319404FF6FF7303EAB0
:101F900002231943818370470A460021018B4FF6C3
:101FA0007F7319401143018370470A460021018B5A
:101FB000C1F30E014FF6FF7303EA022319430183B5
:101FC00070470A460021818B4FF67F7319401143F9
:101FD000818370470A460021818BC1F30E014FF6C1
:101FE000FF7303EA02231943818370470A460021E5
:101FF000018C4FF6FD7319401143018470470A4666
:102000000021018C4FF6F77319401143018470478A
:102010000A460021018C4FF6DF7319404FF6FF731B
:1020200003EA02131943018470470A460021018C18
:102030004FF67F7319404FF6FF7303EA02131943FB
:10204000018470470A460021018C4FF6FF53194066
:102050004FF6FF7303EA02231943018470470A46CF
:102060000021018C4FF2FF7319404FF6FF7303EA12
:1020700002231943018470470A460021018C4DF662
:10208000FF7319404FF6FF7303EA023319430184CB
:10209000704730B5002301248C40A3B2048C9C43CC
:1020A0000484048C02FA01F5ADB22C43048430BDE3
:1020B00030B5002304248C40A3B2048C9C430484D8
:1020C000048C02FA01F5ADB22C43048430BD70B526
:1020D0000346002000241846183001258D40ACB27C
:1020E0001D8CA5431D8409B1082909D100EB6100AD
:1020F000056825F0700505600568154305600EE06C
:102100000D1FC5F34E052844056825F4E04505601C
:1021100005684FF6FF7606EA02263543056070BD76
:1021200021B1028842F00202028004E002884FF6E8
:10213000FD731A400280704721B1028842F0040208
:10214000028004E002884FF6FB731A400280704759
:1021500021B1828842F08002828004E082884FF6BA
:102160007F731A408280704702884FF6F7731A40D7
:10217000028002880A430280704782884FF68F737C
:102180001A40828082880A438280704702894FF613
:10219000F8731A40028102890A430281704702895A
:1021A0004FF67F731A40028102890A430281704709
:1021B00081847047818570478186704701877047A9
:1021C00081877047A0F84010704702884FF6FF43A0
:1021D0001A40028002880A43028070470146888EB6
:1021E00070470146088F70470146888F7047014647
:1021F000B1F8400070470146888C70470146088D51
:10220000704702460020138A0B400BB1012000E00A
:1022100000207047CA430282704730B50246002052
:1022200000230024158A05EA0103958905EA0104C3
:1022300013B10CB1012000E0002030BDCA4302827E
:102240007047000010B50446FB48844209D10121C3
:102250008803FEF719FF00214FF48040FEF714FFBA
:1022600032E0F648844209D101214804FEF719FF03
:1022700000214FF40030FEF714FF25E0F0488442BF
:1022800009D101218804FEF70CFF00214FF48020C2
:10229000FEF707FF18E0EB48844209D10121C8048A
:1022A000FEF7FFFE00214FF40020FEF7FAFE0BE0E0
:1022B000E548844208D101210805FEF7F2FE00211D
:1022C0004FF48010FEF7EDFE10BD2DE9F04786B00B
:1022D00005460E460024A24600BFA1460027B0894D
:1022E00000B100BF2F462C8A4CF6FF700440F088E6
:1022F00004432C82AC894EF6F3100440B088318937
:102300000843718908430443AC81AC8A4FF6FF400F
:102310000440B0890443AC8201A8FEF72EFEC648F3
:10232000874202D1DDF810A001E0DDF80CA0A889F9
:1023300000F4004040B10AEBCA0000EB0A1031681B
:102340004900B0FBF1F807E00AEBCA0000EB0A1005
:1023500031688900B0FBF1F86420B8FBF0F00401AB
:102360002009642101FB1089A88900F4004040B1D4
:10237000322000EBC900B0FBF1F000F0070004438D
:1023800008E0322000EB09106421B0FBF1F000F00E
:102390000F0004432C8106B0BDE8F0874FF41651BE
:1023A000016000218180C18001810C2141810021D7
:1023B0008181704710B502460020108A4FF2FF035A
:1023C00018400B884C8823438C882343CC882343B4
:1023D0001843108210BD0021018041808180C1809E
:1023E000704721B1828942F40052828104E08289DF
:1023F0004DF6FF731A4082817047F0B50346002402
:1024000000260025002040F66A17B94200D100BF1F
:102410001846C1F3421401F01F06012707FA06F51A
:10242000012C01D10C3004E0022C01D1103000E06D
:1024300014301AB107682F43076002E00768AF4302
:102440000760F0BD1AB1838A0B43838202E0838A5E
:102450008B4383827047028A4FF6F0731A400282E0
:10246000028A0A430282704782894FF2FF731A4040
:10247000828182890A438281704721B1828942F038
:102480000202828104E082894FF6FD731A40828144
:102490007047028A4FF6DF731A400282028A0A43AB
:1024A0000282704721B1028A42F48042028204E033
:1024B000028A4BF6FF731A4002827047C1F308028A
:1024C0008280704701468888C0F308007047818980
:1024D00041F0010181817047028BD2B20283028BED
:1024E00042EA012202837047028B02F47F42028398
:1024F000028B0A430283704721B1828A42F0200294
:10250000828204E0828A4FF6DF731A40828270472B
:1025100021B1828A42F01002828204E0828A4FF660
:10252000EF731A408282704721B1828A42F008021A
:10253000828204E0828A4FF6F7731A4082827047E3
:1025400021B1828942F40042828103E08289C2F390
:102550000E028281704721B1828A42F40062828237
:1025600004E0828A4FF2FF731A4082827047828AA7
:102570004FF6FB731A408282828A0A438282704736
:1025800021B1828A42F00202828204E0828A4FF6FE
:10259000FD731A408282704702460020B1F5007F29
:1025A00000D100BF13880B400BB1012000E00020D8
:1025B000704701F40072B2F5007F00D100BFCA433A
:1025C0000280704770B502460024002300250020D9
:1025D00040F66A16B14200D100BFC1F3421501F0C6
:1025E0001F03012606FA03F3012D02D19689334019
:1025F00006E0022D02D1168A334001E0968A33406C
:102600000C12012606FA04F41688344013B10CB1FA
:10261000012000E0002070BD10B50022002340F62C
:102620006A14A14200D100BF0A1201249440A3B24F
:10263000DC43048010BD000000380140004400402D
:1026400000480040004C00400050004010B50121FF
:102650000807FEF726FD00214FF08050FEF721FD10
:1026600010BD2A4908627047284908617047014631
:102670000020274A106820F0E000084310607047EF
:102680002249A0310860704710B502460020204B57
:10269000186820F00300104318601E4B1B6843F0BD
:1026A00004031C4C2360012901D130BF00E020BF8E
:1026B000184B1B6823F00403164C236010BD14480C
:1026C000006840F00400124908600846006840F0C5
:1026D000020008600F48006840F004000D490860DF
:1026E00000BF00BF30BF704701460020084A526853
:1026F0000A400AB1012000E000207047044909683F
:1027000041EA8001024A11607047000000000E4259
:102710000070004010ED00E008B501210C20FEF72C
:1027200099FC0420ADF8000010208DF80300032070
:102730008DF8020069468948FEF7D0F904218748E0
:10274000FEF779FA4FF40040ADF8000010208DF844
:10275000030003208DF8020069468148FEF7BEF9A8
:102760004FF400417E48FEF768FA08BD7D48006AD4
:1027700058B94FF4FA707B4908627B48006808B981
:10278000012000E0002078490860704710B57748C4
:10279000006A01285BD1764890F8490009284CD29C
:1027A000DFE800F04B050E1720293536420071494D
:1027B0008A686E49487E6F49283104F0D0FC3DE0BC
:1027C0006C498A686949487E6A49283104F0C7FC27
:1027D00034E068498A686549487E6649283104F0D2
:1027E000BEFC2BE063498A686049487E6149283114
:1027F00004F0B5FC22E05D4880685E4988608A6824
:102800005A49487E5B49283104F0A9FC16E015E0DE
:1028100056488068574988608A685449487E5549B7
:10282000283104F09CFC09E052498A684F49487EEF
:102830005049283104F093FC00E000BF00BF0020A5
:102840004A4908624B4928314BA009F0FBFB10BDF7
:102850001CB550A404F0F5FA204609F067F80546C7
:102860002A462146554809F015F8FFF755FFFF2085
:102870005349888000F00FFC6EE03D4890F8490015
:10288000052813D13948806880B13648006C68B992
:10289000C82034490864354880684AA109230122C8
:1028A000CDE90010B421FA2000F09EFBFFF75EFF97
:1028B000484880784749C87008464078887008467C
:1028C000007830B908468078C978884201D005F090
:1028D00099F9414890F8220028B901F0CEFB642014
:1028E0003D4981F8220006F0C3FC3C4890F82C00DA
:1028F00000F0100090B11B48C06A78B905F0D0FD17
:1029000005F03AFA0020354981F82E00FFF73EFF26
:102910002B48806930B900F07AFF03E000202F498E
:1029200081F83A000F48406C20B908F0FCFD6420A3
:102930000C4948640E480078012802D0022809D1C9
:1029400007E0264890F82C0000F0100000B102E0EB
:1029500000BF00E000BF00BF8FE70000000C014097
:1029600000080140580400208881214230040020E2
:102970008C00002074010020C9CFB4ABBFDBB7D1FD
:10298000D6B8C1EEA3ACBBE1D4B169643A25730DEE
:102990000A000000687474703A2F2F3132302E32E2
:1029A000352E37372E3231343A383635392F576590
:1029B00062466F726D322E6173707800EC370020C2
:1029C000A0040020CFB5CDB3CEB4B4E6A3BA25643D
:1029D0000D0A000054000020BC040020F403002075
:1029E000704706E0A6A009F02DFB4FF4FA7008F03E
:1029F0003EFBF7E700BFFEE700BFFEE700BFFEE7D4
:102A0000704770477047704710B50420FFF76CFEA1
:102A1000012802D19FA009F015FB4FF48030FDF78B
:102A200016FD10BD10B501218807FFF7F6FB28B190
:102A300007F011FD01218807FFF700FC10BD10B55C
:102A400001219948FFF7E9FB00287DD000F028FA22
:102A500000F05DFA9548006820B194480068401E77
:102A6000924908609148C06920B19048C069401EF1
:102A70008E49C8618E48808E002804DD8C48808E87
:102A8000401E8B4988868948406820B18748406845
:102A9000401E864948608648408E002804DD8448F0
:102AA000408E401E82494886824890F822000028C5
:102AB00006DD804890F82200401E7E4981F8220001
:102AC0007A48C06820B17948C068401E7749C8601C
:102AD0007648006920B175480069401E7349086155
:102AE0007248006A20B17148006A401E6F4908624E
:102AF0006E48C06A20B16D48C06A401E6B49C8620A
:102B00006A48006C20B16948006C401E674908643F
:102B10006648406C20B16548406C401E634948647B
:102B20006248806820B161488068401E5F498860C3
:102B30005E48C06B20B15D48C06B401E5B49C863F6
:102B40005A48006B38B100E020E05848006B401E46
:102B50005649086316E05848406898B15648007EC8
:102B600080B90220544908760846416853A009F00C
:102B700069FA514880685049496808444E4988605C
:102B80000020486001214848FFF758FB10BD10B5F0
:102B900040F225514F48FFF715FD38B14D48FFF77A
:102BA00091FCC4B221464C4804F070FF10BD10B532
:102BB00040F225514948FFF705FDD8B14748FFF7D6
:102BC00081FCC4B24648B0F80004C0F30E0040F2E5
:102BD000FF3188420EDA4249B1F80014C1F30E0009
:102BE000411C3F4AB2F8002461F30E023C49A1F8AF
:102BF00000240C5440F224413848FFF7E3FC01283C
:102C000018D13748B0F8000420F4004000F5004027
:102C10003349A1F800043148FFF754FCC4B231A194
:102C20002F4808F05BFE08B1012000E00020224997
:102C300081F8240010BD10B540F225512C48FFF753
:102C4000C1FC10BD10B540F225512A48FFF7BAFC6F
:102C500068B12848FFF736FCC4B2154890F82C003C
:102C600000F0100018B12146234804F00FFF10BDFA
:102C700010B540F225512148FFF7A4FC10BD00001B
:102C8000486172644661756C745F48616E646C651E
:102C9000720D0A0073797374656D20706F776572B9
:102CA00020646F776E0D0A00000400405804002075
:102CB000F4030020BC040020300400205379735634
:102CC00061722E506C7573436E7453756D3D25643F
:102CD0000D0A000000380140082B0020004400408D
:102CE000A4450020434C4F5345440D0A000000000A
:102CF00000480040004C0040FC22002000500040F2
:102D000000B585B001210420FEF7A4F90121880354
:102D1000FEF7A0F94FF40070ADF8100018208DF800
:102D2000130003208DF8120004A92148FDF7D6FEF8
:102D30004FF48060ADF8100004208DF8130004A952
:102D40001B48FDF7CBFE4FF4E13000900020ADF8BA
:102D50000400ADF80600ADF80800ADF80C000C203A
:102D6000ADF80A0069461348FFF7AFFA012240F2B6
:102D700025511048FFF741FB01210E48FFF731FBB9
:102D800005B000BD00BF0B49098801F040010029D2
:102D9000F9D00849091D0880704700B5024602E0D5
:102DA000D05CFFF7EFFFD05C0028F9D100BD000038
:102DB000000801400038014008B501210820FEF755
:102DC00049F92020ADF8000010208DF80300032001
:102DD0008DF8020069466948FDF780FE0120ADF8D4
:102DE000000069466548FDF779FE0220ADF8000055
:102DF00069466248FDF772FE20216048FDF71BFF1F
:102E000001215E48FDF717FF02215C48FDF713FF23
:102E100008BD10B5044604F0010020B12021574838
:102E2000FDF70BFF03E020215448FDF704FF04F0F9
:102E3000020020B101215148FDF7FFFE03E001210E
:102E40004E48FDF7F8FE04F0040020B102214B4883
:102E5000FDF7F3FE03E002214848FDF7ECFE10BD4C
:102E600008B501213020FEF7F5F81020ADF800007C
:102E700003208DF8020010208DF8030069464048B9
:102E8000FDF72CFE0420ADF8000003208DF80200B1
:102E900010208DF8030069463A48FDF71FFE08BD73
:102EA00039480069002831D03848C06870BB3848BC
:102EB000007810B1012827D110E03648D0F8090079
:102EC0003249C8600120324908703348006808B9A7
:102ED000012000E000203049086016E02E4800681C
:102EE00008B9012000E000202B4908602948D0F8EB
:102EF0000D002649C8600020254908702248006955
:102F0000401E2149086100E000BF00BF70471E4815
:102F10004069002831D01D48006970BB1F48007807
:102F200010B1012827D110E01A48D0F81100174934
:102F300008610120194908701748006808B9012084
:102F400000E000201449086016E01348006808B942
:102F5000012000E00020104908600E48D0F815005C
:102F60000A49086100200D49087007484069401E61
:102F70000549486100E000BF00BF7047000C0140F8
:102F8000001401400010014074010020580400208A
:102F9000280000208C000020880122422900002007
:102FA0000EB501210846FEF762F84FF47A70ADF8CD
:102FB00004004720ADF800000020ADF80600ADF891
:102FC000020069464FF08040FEF702FB01218807AE
:102FD000FFF720F9012211469007FEF770FE01214C
:102FE0008807FEF751FE0EBDF0B5ADF5037D044632
:102FF0000D4616461F4689A8829002A8829A889993
:1030000009F044F80020829002A83B463246294647
:103010000090204601F06FFA0DF5037DF0BD0FB46E
:1030200030B5ADF5017D04460D4687A88090684611
:10303000809A869909F02AF8002080906A462946ED
:10304000204602F02CF90DF5017D30BC5DF814FB33
:1030500010B5FFF755FE4FF44870FE490880401048
:1030600048800020886141F28830FB49C8624FF6F1
:10307000FF70F849C8800881F849C88008818881B4
:10308000C881FA200882C8204882092008750020DB
:1030900001F06EFF10BD10B586B00124002002F0D3
:1030A00024F8EF48D0F80100EEA122460523CDE92F
:1030B000001002210A20FFF797FFE94890F824004A
:1030C000E74991F82310E64A92F82220CDE9002141
:1030D0000290E34890F82130E6A212210020FFF789
:1030E0009EFFDF4890F83000DD4991F82F10DC4A50
:1030F00092F82E20CDE900210290D94890F82D3089
:10310000DCA201210020FFF78AFFD54890F82C109F
:1031100090F82B00D24A92F82A20CDE900200291A3
:10312000CF4890F82930D3A202210020FFF777FF83
:10313000CB4890F82800CA4991F82710C84A92F85D
:103140002620CDE900210290C54890F82530C9A27B
:1031500013210020FFF763FFC14890F85100C049D8
:1031600091F85010BE4A92F84F20BD4B93F84E3064
:10317000CDE90132CDE90310B94890F84D00009037
:10318000B74890F84C30C0A214210020FFF747FF49
:10319000B34B5E33C4A215210020FFF740FFB04BB4
:1031A000A033C1A216210020FFF739FFAC48B0F8C8
:1031B0003130BEA217210020FFF731FFA848D0F818
:1031C0001130BAA21B210020FFF729FFA448D0F834
:1031D0001530B6A21D210020FFF721FFA048D0F82E
:1031E0000930B2A21C210020FFF719FF9C48D0F83B
:1031F0000D30AEA21E210020FFF711FF9848007885
:10320000012802D0022814D109E0A9A0E2B20223C9
:103210004B21009040F2A320FFF7E6FE13E0A6A0AA
:10322000E2B202234B21009040F2A320FFF7DCFE24
:1032300009E0A3A0E2B202234B21009040F2A320B8
:10324000FFF7D2FE00BF00BF854890F84B0010B1D9
:10325000012814D109E09CA0E2B20223822100904F
:103260004FF42A70FFF7C0FE13E098A0E2B20223E9
:10327000822100904FF42A70FFF7B6FE09E094A077
:10328000E2B20223822100904FF42A70FFF7ACFED5
:1032900000BF00BF7248D0F8190010B1012814D146
:1032A00009E08CA0E2B2022340F26D11009093205D
:1032B000FFF79AFE13E088A0E2B2022340F26D11FC
:1032C00000909320FFF790FE09E081A0E2B2022374
:1032D00040F26D1100909320FFF786FE00BF00BF03
:1032E0005F4890F84A0010B1012814D109E079A094
:1032F000E2B2022340F2951100909320FFF774FE92
:1033000013E075A0E2B2022340F2951100909320E1
:10331000FFF76AFE09E06EA0E2B2022340F29511C7
:1033200000909320FFF760FE00BF00BF4C4890F86C
:103330004900092856D2DFE800F055050F19232D62
:1033400037414B0065A0E2B20223B421009040F265
:103350007220FFF749FE4FE064A0E2B20223B421DD
:10336000009040F27220FFF73FFE45E063A0E2B21A
:103370000223B421009040F27220FFF735FE3BE0BB
:1033800062A0E2B20223B421009040F27220FFF763
:103390002BFE31E061A0E2B20223B421009040F2A2
:1033A0007220FFF721FE27E060A0E2B20223B421E1
:1033B000009040F27220FFF717FE1DE05FA0E2B21E
:1033C0000223B421009040F27220FFF70DFE13E0BB
:1033D0005EA0E2B20223B421009040F27220FFF717
:1033E00003FE09E05DA0E2B20223B421009040F2A6
:1033F0007220FFF7F9FD00BF00BF06B010BD1CB57D
:103400001748D0F8010059A100231A46CDE9001051
:103410004FF4EA714FF42F70FFF7E6FD1CBDF0B5D5
:1034200085B00F4890F837000A2190FBF1F201FBBC
:1034300012040B4890F8370090FBF1F5084890F81B
:10344000380090FBF1F201FB1206054890F83800B5
:103450008EE00000A0040020580400201433002057
:103460008C000020C9E8B1B8B1E0BAC5A3BA2564A0
:1034700020000000253033642E253033642E2530A3
:1034800033642E2530336400253033642E253033E9
:10349000642E253033642E253033642E253033647A
:1034A0002E253033640000002573000025640000E1
:1034B000CDF8CFDF200000005769466920000000EA
:1034C000CEB4B6A8D2E500004F4646004F4E2000CD
:1034D000455252004E4320004E4F2000B0B4BCFC79
:1034E000CFFBB7D1C4A3CABD20000000B9CCB6A899
:1034F000CFFBB7D1C4A3CABD20000000B5B5CEBB79
:10350000CFFBB7D1C4A3CABD200000002020B2E980
:10351000D1AFBBFAC4A3CABD20000000202020B454
:10352000E6B1D2C4A3CABD2020000000202020CADA
:10353000DBB1D2C4A3CABD2020000000B4E6C8A1FC
:10354000D2BBCCE5C4A3CABD20000000B5C0D5A243
:10355000BFD8D6C6C4A3CABD200000002020CEB468
:10356000B6A8D2E5C4A3CABD20000000256420008F
:1035700090FBF1F7BEA000231A464FF4E271CDE9AB
:103580000176CDE9035400904FF42F70FFF72CFD26
:1035900005B0F0BD10B5BB49C88800F0D8FEFFF7F4
:1035A0002EFFFFF73CFF10BD7CB50446B64890F8EF
:1035B0004900092826D2DFE800F02505090D11157C
:1035C000191D2100032001F090FD1FE0012001F0F2
:1035D0008CFD1BE0022001F088FD17E0132001F0B4
:1035E00084FD13E0052001F080FD0FE0042001F0D0
:1035F0007CFD0BE0042001F078FD07E0122001F0D3
:1036000074FD03E0162001F070FD00BF00BF9F496C
:10361000C88800F09CFE9D48008970B19B490889CC
:1036200000F0B0FE9AA0994ACDE90004937A9188FF
:1036300050880122FFF7D8FC09E095A0934ACDE914
:103640000004937A918850880022FFF7CDFC204631
:1036500008F06CF905462946204608F034F97CBD8F
:10366000FEB50646884890F84900092867D2DFE889
:1036700000F06605091C3B455A5E62000B2001F014
:1036800034FD60E0092001F030FD002001F070FC05
:10369000092001F02AFD7F4808F048F920B17D4A51
:1036A0000121092001F0FBFD4DE00A2001F01DFD84
:1036B000002001F05DFC0A2001F017FD76488068CB
:1036C0000A21B0FBF1F201FB120473488068B0FBE1
:1036D000F1F572A009230022B421CDE90154009034
:1036E000FA20FFF781FC2EE0112001F0FEFC002003
:1036F00001F03EFC112001F0F8FC24E00D2001F067
:10370000F4FC002001F034FC0D2001F0EEFC6748D1
:10371000806867A109230022CDE90010B421FA20B6
:10372000FFF762FC0FE00C2001F0DFFC0BE00F2044
:1037300001F0DBFC07E0102001F0D7FC03E01520CE
:1037400001F0D3FC00BF00BF5049888900F0FFFDA5
:103750004E48C08980B14D49088900F013FE5C488D
:10376000AFF2BC21494ACDE90010137D518A108A7D
:103770000122FFF739FC0BE05548AFF2D421434A50
:10378000CDE90010137D518A108A0022FFF72CFC2E
:10379000FEBD1CB50446142001F0A7FC3B49C888B7
:1037A00000F0D5FD3949088900F0ECFD38A0072369
:1037B0000022C821CDE900044FF49670FFF714FCF5
:1037C0001CBD38B504462F49C88800F0C0FD2D49FE
:1037D000088900F0D7FD3FA02C4A0090937A918889
:1037E00050880022FFF700FC38BD10B53C4890F827
:1037F000240001280AD114224FF4C8714FF4167026
:1038000001F004F90020364981F8240010BD10B5FC
:103810001C48007C1B49C8730846807B08743148EB
:10382000406808B9012088731648C07B1549097C97
:1038300088421CD01348807B012804D0022806D07F
:1038400003280DD108E02248FFF70AFF0CE00F48DB
:103850002830FFF7A9FE07E023A0FFF79AFF03E057
:1038600024A0FFF7AEFF00BF00BFFFF793FE10BD1F
:10387000253032642E253032642E253032642E25D8
:1038800030326400A00400208C000020143300209B
:1038900025732000EC3700207401002025642E25BC
:1038A0006420D4AA2FB4CE0D0A20000030040020DA
:1038B000CFB5CDB3CEB4B4E6A3BA25640D0ACBF927
:1038C000CAF4C8CBA3BA68656C6C6F200000000016
:1038D000CC3400206572726F20636D6400000000BC
:1038E000BC04002058040020B5C7C2BCB3C9B9A6A7
:1038F000000000006572726F206D6F64650000004B
:1039000070B50546002405E0601CC4B2C82C01DD7A
:10391000002070BD0221F748FDF74FFD0028F3D0CD
:103920002946F448FDF7F6FC002405E0601CC4B20B
:10393000C82C01DD0020ECE70121EE48FDF73DFD3C
:103940000028F3D0EB48FDF7E7FCC0B2E1E7002127
:1039500003E000BF00BF00BF491C8142F9D370479C
:1039600000B587B001212D20FDF774FB0121C803AC
:10397000FDF77DFB0121E048FDF781F94FF40040A0
:10398000ADF8040003208DF8060010208DF8070024
:1039900001A9DA48FDF7A2F84020ADF804000320A1
:1039A0008DF8060010208DF8070001A9D448FDF716
:1039B00095F84020ADF8040003208DF80600102093
:1039C0008DF8070001A9CF48FDF788F83820ADF839
:1039D000040018208DF8070001A9CA48FDF77EF8F9
:1039E0000020ADF808004FF48270ADF80A00002006
:1039F000ADF80C00ADF81000ADF80E004FF40070FB
:103A0000ADF812000020ADF816001820ADF8140033
:103A100002A9B848FDF7A8FB0121B648FDF749FC0B
:103A200007B000BD70B504460D460020B6490860D9
:103A30007E2000EA44063046FFF762FF2846FFF783
:103A40005FFF0120B149C1F8980170BD70B504460F
:103A500000260020AC4908607E2000EA440040F0C7
:103A600080052846FFF74CFF0020FFF749FF064678
:103A70000120A649C1F89801304670BD70B50546D1
:103A80000C4600262846FFF7E1FF064646EA0401F9
:103A90002846FFF7C7FF70BD10B51420FFF7D6FF0B
:103AA000044604F0030018B903211420FFF7E6FFD1
:103AB00010BD70B505460C4600262846FFF7C6FF28
:103AC000064626EA04012846FFF7ACFF70BD10B594
:103AD0000446412C26D108210846FFF7EAFF3D2184
:103AE0001120FFF79FFF86211720FFF79BFF7F2103
:103AF0002620FFF797FF1E212D20FFF793FF0021BF
:103B00002C20FFF78FFF8D212A20FFF78BFF3E210E
:103B10002B20FFF787FF4FF47A70FFF718FFFFF7AE
:103B2000BBFF01E0012010BD0020FCE710B5032120
:103B30001420FFF7BEFF10BD10B5012074490860C6
:103B4000642007F094FA00207249C1F898016420BB
:103B500007F08DFA01206E490860642007F087FAAB
:103B60000F210120FFF75EFF0F210120FFF75AFF11
:103B70000A2007F07CFA3D211120FFF753FF1E2198
:103B80002D20FFF74FFF00212C20FFF74BFF8D2149
:103B90002A20FFF747FF3E212B20FFF743FF40215C
:103BA0001520FFF73FFF002010BD10B5FFF7D8FE2E
:103BB000FFF7C2FFFFF7BAFF0A2007F058FAFFF736
:103BC0006BFF4120FFF783FF10BD10B5FFF7B4FF77
:103BD000FFF7ACFF0A2007F04AFAFFF75DFF41202C
:103BE000FFF775FF10BD10B5FFF7A6FFFFF79EFFAB
:103BF0000A2007F03CFAFFF74FFF10BD2DE9FE4FFA
:103C00000646884691469A46DDF830B0022002907A
:103C10000020019000900C2E06D00E2E09D112200B
:103C200001901020009005E0772001903020009056
:103C300000E000BF00BF019840F080010220FFF7C4
:103C4000F1FE80210420FFF734FF00210120FFF75F
:103C5000E9FE80210A20FFF711FF002506E018F891
:103C600005100920FFF7DEFE681C85B24D45F6DB26
:103C700031460120FFF7D6FE0C2E03D180210D2006
:103C8000FFF7FCFE4FF4167500BF0420FFF7DEFEC1
:103C90000446681E85B235B104F0010018B90098D9
:103CA00020400028F1D080210D20FFF702FF002DD9
:103CB0004AD00620FFF7CAFE00F01B0060BB0020C0
:103CC00002900198204000F0010008B1012002900C
:103CD0000C2E39D10A20FFF7B9FE04460C20FFF75D
:103CE000B5FE00F00707C7B1601E07EBC0008BF8F8
:103CF000000016E0003C00400002300000080140D7
:103D000000140140000C01409881224200802242B0
:103D1000988121420080214214E0E006000E8BF8D9
:103D2000000004B90124122C00DD1224002506E055
:103D30000920FFF78BFE0AF80500681C85B2A54232
:103D4000F6DB01E00220029080210C20FFF796FEB6
:103D500000210120FFF766FE0298BDE8FE8F70B5D6
:103D600088B005460C4608210846FFF7A2FE072149
:103D70000D20FFF757FE03211420FFF77FFE8DF87B
:103D8000085007A802AB012202A900900C20FFF7FF
:103D900035FF064656B99DF81C00102806D19DF83F
:103DA000080020709DF80900607000E0022630468F
:103DB00008B070BDF0B587B0054600270821084659
:103DC000FFF777FE00210D20FFF72CFE80210E204B
:103DD000FFF76FFE93208DF8040020208DF805007A
:103DE00006A801AB022201A900900C20FFF706FFF4
:103DF000064686B9002407E001A8005D285501A801
:103E0000005D4740601CC4B2042CF5DB01A8005DD6
:103E1000B84200D0022680210E20FFF72FFE304648
:103E200007B0F0BD2DE9F04107468846154604214C
:103E30000520FFF73EFE00210120FFF7F3FD802162
:103E40000A20FFF71BFE002405E0395D0920FFF77B
:103E5000E9FD601CC4B24445F7DB03210120FFF7F4
:103E6000E1FDFF2400BF0520FFF7F0FD0646601EC0
:103E7000C4B21CB106F004000028F4D02220FFF7E1
:103E8000E5FD28702120FFF7E1FD6870BDE8F081B5
:103E900070B588B0054693208DF8080070208DF825
:103EA000090000208DF80E0000240BE0295D02AA15
:103EB000A01C11549DF80E00295D48408DF80E009D
:103EC000601CC4B2042CF1DB0DF10F02072102A823
:103ED000FFF7A8FF08210846FFF7EBFD07A802AB94
:103EE000092202A900900C20FFF788FE06462EB991
:103EF0009DF81C00182801D1002600E0022630465B
:103F000008B070BD2DE9F04188B004460D46164654
:103F10001F468DF808408DF809503068CDF80A002A
:103F2000B088ADF80E003868049007A802AB0C22E8
:103F300002A900900E20FFF761FE8046B8F1000F45
:103F400005D10820FFF782FD00F0080008B94FF006
:103F50000208404608B0BDE8F081F0B587B00546DC
:103F60000E4630208DF804008DF805500DF1060244
:103F7000022101A8FFF756FF06A801AB042201A900
:103F800000900C20FFF73AFE07466FB99DF8180025
:103F9000902809D1002404E001A8005D3055601C80
:103FA000C4B2102CF8DB00E00227384607B0F0BDA1
:103FB000F0B587B006460F46A0208DF804008DF8B6
:103FC00005600DF10602022101A8FFF72BFF06A8EC
:103FD00001AB042201A900900C20FFF70FFE05465B
:103FE0004DB99DF81800042805D19DF8040000F093
:103FF0000F000A2800D0022515BB002404E0385D1C
:1040000001A90855601CC4B2102CF8DB05AA1021C8
:1040100001A8FFF707FF06A801AB122201A9009033
:104020000C20FFF7EBFD05464DB99DF8180004285C
:1040300005D19DF8040000F00F000A2800D00225E9
:10404000284607B0F0BD10B588B050208DF80800A4
:1040500000208DF809000DF10A02022102A8FFF7E5
:10406000E1FE07A802AB042202A900900C20FFF792
:10407000C5FD0446204608B010BD10B5764926207F
:10408000FFF76DFE00286BD173481230FFF792FEE8
:10409000002865D170481230FFF7FAFE00285FD182
:1040A00001206D4981F824006C4840696B49086122
:1040B0006948817CC07C01EB00216748007D01EBF1
:1040C00000416548407D01EB00606449C8600846D6
:1040D000C0684861604B1233614A07216020FFF7D6
:1040E00011FF00283CD15C49891C0620FFF735FFF1
:1040F000002835D158488078552819D15648C078BD
:10410000AA2815D157488089401C80B2554988811A
:10411000052801DB002088815248818950480A38EF
:1041200000EB410000884F498860FFF78CFF15E0E5
:104130004D48807B012811D14848C2684BA14D48A9
:1041400007F090FF302320224A49A1F5C87005F0FE
:1041500001FF012041490862FFF775FFFFF773FF78
:1041600010BD70B504460D46434841794079401C66
:10417000414A5071FF2937D1002011464871084645
:1041800001790079401C1071FF292DD100201146C2
:1041900008710846C178C078401CD070FF2923D12F
:1041A00000201146C870084681788078401C9070C5
:1041B000FF2919D1002011468870084641784078BF
:1041C000401C5070FF290FD100201146487008464E
:1041D00001780078401C1070FF2905D1002011469D
:1041E000087026A007F02EFF70BD0EB51A492620D4
:1041F000FFF7B5FD00282ED117481230FFF7DAFD82
:10420000002828D114481230FFF742FE18BB0120C5
:10421000114981F8240001F11203174A042160209A
:10422000FFF770FE98B91448407913490979124A8A
:10423000D278CDE9002102900F4883784278017846
:1042400012A007F0FFFE27201A49487003E006215C
:104250000948FFF786FF0EBDBC0400203004002093
:10426000CF00002074010020A0040020253130750B
:10427000000000002C0300202A000020CEDEB7A89A
:10428000C6C6BDE2A3A10D0A000000006B657961FE
:104290002069733A307825782C307825782C30785E
:1042A00025782C307825782C307825782C30782596
:1042B000780D0A0054000020014606E04FF47A729F
:1042C00000E0521E002AFCDC491E0029F6DC704783
:1042D00010B5044603E02078FEF754FD641C2078F6
:1042E0000028F8D110BD70B505460E46002404E044
:1042F000285DFEF747FD601C84B2B442F8DB70BD58
:1043000070B505460E4600240AE035F81410080A78
:10431000FEF738FD15F81400FEF734FD601C84B27A
:10432000B442F2DB70BD10B5EE20FEF72BFD00208D
:10433000FEF728FDFF20FEF725FDFC20FEF722FDFD
:10434000FF20FEF71FFDFF20FEF71CFD10BD10B57E
:104350000446EE20FEF716FD4120FEF713FD200A6D
:10436000FEF710FDE0B2FEF70DFDFF20FEF70AFD9F
:10437000FC20FEF707FDFF20FEF704FDFF20FEF7FF
:1043800001FD10BD10B50446EE20FEF7FBFC4220F7
:10439000FEF7F8FC200AFEF7F5FCE0B2FEF7F2FCAF
:1043A000FF20FEF7EFFCFC20FEF7ECFCFF20FEF701
:1043B000E9FCFF20FEF7E6FC10BD70B506460C4692
:1043C0001546EE20FEF7DEFCA320FEF7DBFCF0B284
:1043D000FEF7D8FC200AFEF7D5FCE0B2FEF7D2FCCF
:1043E000280AFEF7CFFCE8B2FEF7CCFCFF20FEF770
:1043F000C9FCFC20FEF7C6FCFF20FEF7C3FCFF2033
:10440000FEF7C0FC70BD10B5EE20FEF7BBFC01202E
:10441000FEF7B8FCFF20FEF7B5FCFC20FEF7B2FC6F
:10442000FF20FEF7AFFCFF20FEF7ACFC10BD70B51F
:1044300004460D46EE20FEF7A5FC4320FEF7A2FC45
:10444000E0B2FEF79FFCE8B2FEF79CFCFF20FEF70F
:1044500099FCFC20FEF796FCFF20FEF793FCFF2062
:10446000FEF790FC70BD70B506460C461546EE2072
:10447000FEF788FC4520FEF785FCF0B2FEF782FCD3
:10448000200AFEF77FFCE0B2FEF77CFC280AFEF76C
:1044900079FCE8B2FEF776FCFF20FEF773FCFC2007
:1044A000FEF770FCFF20FEF76DFCFF20FEF76AFCB4
:1044B00070BD70B504460D46EE20FEF763FC442047
:1044C000FEF760FC200AFEF75DFCE0B2FEF75AFC46
:1044D000280AFEF757FCE8B2FEF754FCFF20FEF76F
:1044E00051FCFC20FEF74EFCFF20FEF74BFCFF20AA
:1044F000FEF748FC70BD2DE9F04104460D46164616
:104500001F46DDF81880EE20FEF73CFC2020FEF769
:1045100039FC200AFEF736FCE0B2FEF733FC280A2D
:10452000FEF730FCE8B2FEF72DFCF0B2FEF72AFCF5
:10453000F8B2FEF727FC4046FFF7CAFEFF20FEF761
:1045400021FCFC20FEF71EFCFF20FEF71BFCFF20D9
:10455000FEF718FCBDE8F0812DE9F04106460C4657
:1045600015461F46DDF81880EE20FEF70BFC2120D3
:10457000FEF708FCF0B2FEF705FC200AFEF702FC8D
:10458000E0B2FEF7FFFB280AFEF7FCFBE8B2FEF7FD
:10459000F9FBF8B2FEF7F6FB08F0FF00FEF7F2FBBE
:1045A000FF20FEF7EFFBFC20FEF7ECFBFF20FEF701
:1045B000E9FBFF20FEF7E6FBBDE8F08170B504469D
:1045C0000D46EE20FEF7DEFB3120FEF7DBFB200A76
:1045D000FEF7D8FBE0B2FEF7D5FBE8B2FEF7D2FB60
:1045E000FF20FEF7CFFBFC20FEF7CCFBFF20FEF701
:1045F000C9FBFF20FEF7C6FB70BD2DE9F041044664
:104600000D4616461F46EE20FEF7BCFB3220FEF795
:10461000B9FB200AFEF7B6FBE0B2FEF7B3FB280AAF
:10462000FEF7B0FBE8B2FEF7ADFB300AFEF7AAFBDF
:10463000F0B2FEF7A7FBF8B2FEF7A4FBFF20FEF7EF
:10464000A1FBFC20FEF79EFBFF20FEF79BFBFF205B
:10465000FEF798FBBDE8F0812DE9F05F04460D46BA
:1046600016461F46DDE90CABDDE90A89EE20FEF7B0
:1046700089FB3320FEF786FB200AFEF783FBE0B2BE
:10468000FEF780FB280AFEF77DFBE8B2FEF77AFB17
:10469000300AFEF777FBF0B2FEF774FB380AFEF73C
:1046A00071FBF8B2FEF76EFB4FEA1820FEF76AFBCB
:1046B00008F0FF00FEF766FB4FEA1920FEF762FBE9
:1046C00009F0FF00FEF75EFB4FEA1A20FEF75AFBE7
:1046D0000AF0FF00FEF756FB0BF0FF00FEF752FB5F
:1046E000FF20FEF74FFBFC20FEF74CFBFF20FEF700
:1046F00049FBFF20FEF746FBBDE8F09F2DE9F041A6
:1047000004460D4616461F46DDF81880EE20FEF7DB
:1047100039FB8020FEF736FB200AFEF733FBE0B2C0
:10472000FEF730FB280AFEF72DFBE8B2FEF72AFB66
:10473000300AFEF727FBF0B2FEF724FBF8B2FEF7D3
:1047400021FB08F0FF00FEF71DFBFF20FEF71AFB20
:10475000FC20FEF717FBFF20FEF714FBFF20FEF7FF
:1047600011FBBDE8F08170B504460D46EE20FEF762
:1047700009FB5020FEF706FB200AFEF703FBE0B220
:10478000FEF700FB280AFEF7FDFAE8B2FEF7FAFA98
:10479000FF20FEF7F7FAFC20FEF7F4FAFF20FEF701
:1047A000F1FAFF20FEF7EEFA70BD2DE9F041044664
:1047B0000D4616461F46EE20FEF7E4FA5120FEF79E
:1047C000E1FA200AFEF7DEFAE0B2FEF7DBFA280A89
:1047D000FEF7D8FAE8B2FEF7D5FA300AFEF7D2FAB9
:1047E000F0B2FEF7CFFA380AFEF7CCFAF8B2FEF7CD
:1047F000C9FAFF20FEF7C6FAFC20FEF7C3FAFF2035
:10480000FEF7C0FAFF20FEF7BDFABDE8F08170B5F3
:1048100005460E461446EE20FEF7B4FA6320FEF776
:10482000B1FAE8B2FEF7AEFA4FF6FF7000EA4401C3
:104830003046FFF765FDFF20FEF7A4FAFC20FEF7E7
:10484000A1FAFF20FEF79EFAFF20FEF79BFA70BD4B
:104850002DE9F04104460D4616461F46EE20FEF7B0
:1048600091FA5920FEF78EFA200AFEF78BFAE0B291
:10487000FEF788FA280AFEF785FAE8B2FEF782FA10
:1048800039463046FFF73CFDFF20FEF77BFAFC205F
:10489000FEF778FAFF20FEF775FAFF20FEF772FAAE
:1048A000BDE8F0812DE9F04104460D4616461F464D
:1048B000EE20FEF767FA7520FEF764FA200AFEF78D
:1048C00061FAE0B2FEF75EFA280AFEF75BFAE8B298
:1048D000FEF758FA39463046FFF712FDFF20FEF783
:1048E00051FAFC20FEF74EFAFF20FEF74BFAFF20AC
:1048F000FEF748FABDE8F0812DE9F04104460D4687
:1049000016461F46EE20FEF73DFA7620FEF73AFAED
:10491000200AFEF737FAE0B2FEF734FA280AFEF76B
:1049200031FAE8B2FEF72EFA39463046FFF7E8FCD6
:10493000FF20FEF727FAFC20FEF724FAFF20FEF7FF
:1049400021FAFF20FEF71EFABDE8F0812DE9F041C3
:1049500004460D4616461F46EE20FEF713FA772052
:10496000FEF710FAE0B2FEF70DFAE8B2FEF70AFA27
:10497000F0B2FEF707FAF8B2FEF704FAFF20FEF7EE
:1049800001FAFC20FEF7FEF9FF20FEF7FBF9FF20FD
:10499000FEF7F8F9BDE8F08170B505460C46EE204B
:1049A000FEF7F0F96820FEF7EDF94FF6FF7000EA28
:1049B00044012846FFF7A4FCFF20FEF7E3F9FC20A2
:1049C000FEF7E0F9FF20FEF7DDF9FF20FEF7DAF948
:1049D00070BD70B505460C46EE20FEF7D3F9692090
:1049E000FEF7D0F94FF6FF7000EA44012846FFF7C2
:1049F00087FCFF20FEF7C6F9FC20FEF7C3F9FF2075
:104A0000FEF7C0F9FF20FEF7BDF970BD70B5044692
:104A10000D461646EE20FEF7B5F95220FEF7B2F924
:104A2000200AFEF7AFF9E0B2FEF7ACF9280AFEF76C
:104A3000A9F9E8B2FEF7A6F9300AFEF7A3F9F0B239
:104A4000FEF7A0F9FF20FEF79DF9FC20FEF79AF98A
:104A5000FF20FEF797F9FF20FEF794F970BD70B5BF
:104A600004460D461646EE20FEF78CF95320FEF75D
:104A700089F9200AFEF786F9E0B2FEF783F9280AE1
:104A8000FEF780F9E8B2FEF77DF9300AFEF77AF911
:104A9000F0B2FEF777F9FF20FEF774F9FC20FEF77D
:104AA00071F9FF20FEF76EF9FF20FEF76BF970BD7C
:104AB0002DE9F04104460D4616461F46DDF81880E4
:104AC000EE20FEF75FF96720FEF75CF9200AFEF79B
:104AD00059F9E0B2FEF756F9280AFEF753F9E8B2A1
:104AE000FEF750F9300AFEF74DF9F0B2FEF74AF939
:104AF000380AFEF747F9F8B2FEF744F94FEA1820F2
:104B0000FEF740F908F0FF00FEF73CF9FF20FEF742
:104B100039F9FC20FEF736F9FF20FEF733F9FF20C4
:104B2000FEF730F9BDE8F0812DE9F04104460D466D
:104B300016461F46EE20FEF725F95420FEF722F90F
:104B4000200AFEF71FF9E0B2FEF71CF9280AFEF76B
:104B500019F9E8B2FEF716F9300AFEF713F9F0B2C8
:104B6000FEF710F9380AFEF70DF9F8B2FEF70AF968
:104B7000FF20FEF707F9FC20FEF704F9FF20FEF7FF
:104B800001F9FF20FEF7FEF8BDE8F0812DE9F041C4
:104B900004460D4616461F46EE20FEF7F3F8552054
:104BA000FEF7F0F8200AFEF7EDF8E0B2FEF7EAF8BB
:104BB000280AFEF7E7F8E8B2FEF7E4F8300AFEF755
:104BC000E1F8F0B2FEF7DEF8380AFEF7DBF8F8B2EB
:104BD000FEF7D8F8FF20FEF7D5F8FC20FEF7D2F854
:104BE000FF20FEF7CFF8FF20FEF7CCF8BDE8F081FC
:104BF0002DE9F04104460D4616461F46EE20FEF70D
:104C0000C1F85620FEF7BEF8200AFEF7BBF8E0B266
:104C1000FEF7B8F8280AFEF7B5F8E8B2FEF7B2F8E2
:104C2000300AFEF7AFF8F0B2FEF7ACF8380AFEF73C
:104C3000A9F8F8B2FEF7A6F8FF20FEF7A3F8FC20CB
:104C4000FEF7A0F8FF20FEF79DF8FF20FEF79AF888
:104C5000BDE8F0812DE9F04104460D4616461F4699
:104C6000EE20FEF78FF85720FEF78CF8200AFEF7AB
:104C700089F8E0B2FEF786F8280AFEF783F8E8B272
:104C8000FEF780F8300AFEF77DF8F0B2FEF77AF80A
:104C9000380AFEF777F8F8B2FEF774F8FF20FEF74F
:104CA00071F8FC20FEF76EF8FF20FEF76BF8FF208E
:104CB000FEF768F8BDE8F08110B50446EE20FEF777
:104CC00061F86020FEF75EF8E0B2FEF75BF8FF20C7
:104CD000FEF758F8FC20FEF755F8FF20FEF752F8D3
:104CE000FF20FEF74FF810BD10B50446EE20FEF78A
:104CF00049F86120FEF746F8E0B2FEF743F8FF20DE
:104D0000FEF740F8FC20FEF73DF8FF20FEF73AF8EA
:104D1000FF20FEF737F810BD2DE9F04104460D469F
:104D200016461F46EE20FEF72DF86520FEF72AF8FE
:104D3000200AFEF727F8E0B2FEF724F8280AFEF76B
:104D400021F8E8B2FEF71EF8300AFEF71BF8F0B2C1
:104D5000FEF718F8380AFEF715F8F8B2FEF712F861
:104D6000FF20FEF70FF8FC20FEF70CF8FF20FEF7FF
:104D700009F8FF20FEF706F8BDE8F0812DE9F041C3
:104D80000746884615461E4600240FB144F001042C
:104D9000B8F1000F01D044F0020415B144EA8500D7
:104DA000C4B216B144EA4610C4B2EE20FDF7EAFFE1
:104DB0007020FDF7E7FFE0B2FDF7E4FFFF20FDF70D
:104DC000E1FFFC20FDF7DEFFFF20FDF7DBFFFF200A
:104DD000FDF7D8FFBDE8F08110B5EE20FDF7D2FF5A
:104DE0007220FDF7CFFFFF20FDF7CCFFFC20FDF781
:104DF000C9FFFF20FDF7C6FFFF20FDF7C3FF10BD71
:104E000010B5EE20FDF7BEFF7320FDF7BBFFFF20BE
:104E1000FDF7B8FFFC20FDF7B5FFFF20FDF7B2FF5F
:104E2000FF20FDF7AFFF10BD10B5EE20FDF7AAFF84
:104E30000920FDF7A7FFDE20FDF7A4FFED20FDF719
:104E4000A1FF1320FDF79EFF3120FDF79BFFFF2000
:104E5000FDF798FFFC20FDF795FFFF20FDF792FF7F
:104E6000FF20FDF78FFF10BD10B5EE20FDF78AFF84
:104E70000820FDF787FFA520FDF784FF5A20FDF7E6
:104E800081FF5F20FDF77EFFF520FDF77BFFFF2010
:104E9000FDF778FFFC20FDF775FFFF20FDF772FF9F
:104EA000FF20FDF76FFF10BD10B50446EE20FDF7A3
:104EB00069FFA020FDF766FFE0B2FDF763FFFF206A
:104EC000FDF760FFFC20FDF75DFFFF20FDF75AFFB7
:104ED000FF20FDF757FF10BD10B50446EE20FDF78B
:104EE00051FFA120FDF74EFFE0B2FDF74BFFFF2081
:104EF000FDF748FFFC20FDF745FFFF20FDF742FFCF
:104F0000FF20FDF73FFF10BD10B50446EE20FDF772
:104F100039FFA220FDF736FFE0B2FDF733FFFF2097
:104F2000FDF730FFFC20FDF72DFFFF20FDF72AFFE6
:104F3000FF20FDF727FF10BD70B504460D46EE209B
:104F4000FDF720FFA420FDF71DFFE0B2FDF71AFFDB
:104F5000E8B2FDF717FFFF20FDF714FFFC20FDF777
:104F600011FFFF20FDF70EFFFF20FDF70BFF70BDC7
:104F700010B50446EE20FDF705FF0520FDF702FF02
:104F8000E0B2FDF7FFFEFF20FDF7FCFEFC20FDF781
:104F9000F9FEFF20FDF7F6FEFF20FDF7F3FE10BD42
:104FA0002DE9F04705460E4617461C46DDE90889FF
:104FB000EE20FDF7E7FE8520FDF7E4FEE8B2FDF701
:104FC000E1FEF0B2FDF7DEFEF8B2FDF7DBFE200AEF
:104FD000FDF7D8FEE0B2FDF7D5FE4FEA1820FDF749
:104FE000D1FE08F0FF00FDF7CDFE4FEA1920FDF7D6
:104FF000C9FE09F0FF00FDF7C5FEFF20FDF7C2FE68
:10500000FC20FDF7BFFEFF20FDF7BCFEFF20FDF7F3
:10501000B9FEBDE8F08770B504460E461546EE2091
:10502000FDF7B0FE8720FDF7ADFE200EFDF7AAFECE
:10503000C4F30740FDF7A6FEC4F30720FDF7A2FE68
:10504000E0B2FDF79FFE31462846FFF74CF9FF20FE
:10505000FDF798FEFC20FDF795FEFF20FDF792FE80
:10506000FF20FDF78FFE70BD70B504460D46EE20A3
:10507000FDF788FE8820FDF785FE200EFDF782FEF5
:10508000C4F30740FDF77EFEC4F30720FDF77AFE68
:10509000E0B2FDF777FE280AFDF774FEE8B2FDF7EF
:1050A00071FEFF20FDF76EFEFC20FDF76BFEFF207A
:1050B000FDF768FEFF20FDF765FE70BD10B5EE2020
:1050C000FDF760FEB120FDF75DFE0120FDF75AFE01
:1050D000FF20FDF757FEFC20FDF754FEFF20FDF7F3
:1050E00051FEFF20FDF74EFE10BD10B50446EE2028
:1050F000FDF748FEB120FDF745FE0020FDF742FE1A
:10510000200AFDF73FFEE0B2FDF73CFEFF20FDF771
:1051100039FEFC20FDF736FEFF20FDF733FEFF20B1
:10512000FDF730FE10BD10B50446EE20FDF72AFE57
:10513000B320FDF727FEE0B2FDF724FEFF20FDF7C8
:1051400021FEFC20FDF71EFEFF20FDF71BFEFF20C9
:10515000FDF718FE10BD70B504460D461646EE204C
:10516000FDF710FEB120FDF70DFE0220FDF70AFE4F
:10517000200AFDF707FEE0B2FDF704FE280AFDF75E
:1051800001FEE8B2FDF7FEFDF0B2FDF7FBFDFF20EA
:10519000FDF7F8FDFC20FDF7F5FDFF20FDF7F2FD22
:1051A000FF20FDF7EFFD70BD70B504460D461646B5
:1051B000EE20FDF7E7FDB120FDF7E4FD0320FDF74C
:1051C000E1FD200AFDF7DEFDE0B2FDF7DBFD280A78
:1051D000FDF7D8FDE8B2FDF7D5FDF0B2FDF7D2FD41
:1051E000FF20FDF7CFFDFC20FDF7CCFDFF20FDF7F4
:1051F000C9FDFF20FDF7C6FD70BD70B504460D4624
:105200001646EE20FDF7BEFDB120FDF7BBFD0420E4
:10521000FDF7B8FD200AFDF7B5FDE0B2FDF7B2FDE0
:10522000280AFDF7AFFDE8B2FDF7ACFDF0B2FDF7DF
:10523000A9FDFF20FDF7A6FDFC20FDF7A3FDFF2043
:10524000FDF7A0FDFF20FDF79DFD70BD70B5044684
:105250000D461646EE20FDF795FDB120FDF792FDB7
:105260001020FDF78FFD200AFDF78CFDE0B2FDF761
:1052700089FD280AFDF786FDE8B2FDF783FDF0B24F
:10528000FDF780FDFF20FDF77DFDFC20FDF77AFD99
:10529000FF20FDF777FDFF20FDF774FD70BD70B5B1
:1052A00004460D461646EE20FDF76CFDB120FDF7D5
:1052B00069FD1020FDF766FD200AFDF763FDE0B2F1
:1052C000FDF760FD280AFDF75DFDE8B2FDF75AFD28
:1052D0003046FEF7FDFFFF20FDF754FDFC20FDF7F3
:1052E00051FDFF20FDF74EFDFF20FDF74BFD70BD8A
:1052F00070B505460E461446EE20FDF743FDB1207D
:10530000FDF740FD1020FDF73DFD280AFDF73AFDB1
:10531000E8B2FDF737FD300AFDF734FDF0B2FDF7D6
:1053200031FD200EFDF72EFDC4F30740FDF72AFDE9
:10533000C4F30720FDF726FDE0B2FDF723FDFF20B3
:10534000FDF720FDFC20FDF71DFDFF20FDF71AFDF8
:10535000FF20FDF717FD70BD70B505460E461446DB
:10536000EE20FDF70FFDB120FDF70CFD1020FDF73D
:1053700009FD280AFDF706FDE8B2FDF703FD300A36
:10538000FDF700FDF0B2FDF7FDFC200EFDF7FAFC85
:10539000C4F30740FDF7F6FCC4F30720FDF7F2FC69
:1053A000E0B2FDF7EFFCFF20FDF7ECFCFC20FDF781
:1053B000E9FCFF20FDF7E6FCFF20FDF7E3FC70BDF4
:1053C00070B505460E461446EE20FDF7DBFCB12015
:1053D000FDF7D8FC1020FDF7D5FC280AFDF7D2FC1C
:1053E000E8B2FDF7CFFC300AFDF7CCFCF0B2FDF7D8
:1053F000C9FC200EFDF7C6FCC4F30740FDF7C2FC54
:10540000C4F30720FDF7BEFCE0B2FDF7BBFCFF20B4
:10541000FDF7B8FCFC20FDF7B5FCFF20FDF7B2FC62
:10542000FF20FDF7AFFC70BD70B504460D46164673
:10543000EE20FDF7A7FCB120FDF7A4FC1020FDF73E
:10544000A1FC200AFDF79EFCE0B2FDF79BFC280AB8
:10545000FDF798FCE8B2FDF795FCF0B2FDF792FC81
:10546000FF20FDF78FFCFC20FDF78CFCFF20FDF7F3
:1054700089FCFF20FDF786FC70BD70B504460D4623
:10548000EE20FDF77FFCB120FDF77CFC1120FDF73D
:1054900079FC200AFDF776FCE0B2FDF773FC280AE0
:1054A000FDF770FCE8B2FDF76DFCFF20FDF76AFC2C
:1054B000FC20FDF767FCFF20FDF764FCFF20FDF7F3
:1054C00061FC70BD70B504460D46EE20FDF75AFC38
:1054D000B120FDF757FC2020FDF754FC200AFDF712
:1054E00051FCE0B2FDF74EFC280AFDF74BFCE8B298
:1054F000FDF748FCFF20FDF745FCFC20FDF742FCD2
:10550000FF20FDF73FFCFF20FDF73CFC70BD70B5B0
:1055100004460D46EE20FDF735FCB120FDF732FCC8
:105520002120FDF72FFC200AFDF72CFCE0B2FDF74F
:1055300029FC280AFDF726FCE8B2FDF723FCFF2032
:10554000FDF720FCFC20FDF71DFCFF20FDF71AFCF9
:10555000FF20FDF717FC70BD70B504460D46EE2028
:10556000FDF710FCB120FDF70DFC2220FDF70AFC31
:10557000200AFDF707FCE0B2FDF704FC280AFDF75E
:1055800001FCE8B2FDF7FEFBFF20FDF7FBFBFC2072
:10559000FDF7F8FBFF20FDF7F5FBFF20FDF7F2FB21
:1055A00070BD70B504460D461646EE20FDF7EAFBC9
:1055B000B120FDF7E7FB2320FDF7E4FB200AFDF710
:1055C000E1FBE0B2FDF7DEFB280AFDF7DBFBE8B20A
:1055D000FDF7D8FBF0B2FDF7D5FBFF20FDF7D2FBBE
:1055E000FC20FDF7CFFBFF20FDF7CCFBFF20FDF7F4
:1055F000C9FB70BD70B504460D46EE20FDF7C2FB39
:10560000B120FDF7BFFB2420FDF7BCFB200AFDF70E
:10561000B9FBE0B2FDF7B6FB280AFDF7B3FBE8B231
:10562000FDF7B0FBFF20FDF7ADFBFC20FDF7AAFB6B
:10563000FF20FDF7A7FBFF20FDF7A4FB70BD70B5B1
:1056400004460D46EE20FDF79DFBB120FDF79AFBC9
:105650002520FDF797FB200AFDF794FBE0B2FDF74C
:1056600091FB280AFDF78EFBE8B2FDF78BFBFF20CC
:10567000FDF788FBFC20FDF785FBFF20FDF782FB93
:10568000FF20FDF77FFB70BD2DE9F04104460D467C
:1056900017461E46EE20FDF775FBB120FDF772FBA5
:1056A0003020FDF76FFB200AFDF76CFBE0B2FDF741
:1056B00069FB280AFDF766FBE8B2FDF763FBF8B269
:1056C000FDF760FB300AFDF75DFBF0B2FDF75AFB1A
:1056D000FF20FDF757FBFC20FDF754FBFF20FDF7F3
:1056E00051FBFF20FDF74EFBBDE8F08170B504468D
:1056F0000D461646EE20FDF745FBB120FDF742FBB7
:105700003120FDF73FFB200AFDF73CFBE0B2FDF73F
:1057100039FB280AFDF736FBE8B2FDF733FBF0B2A0
:10572000FDF730FBFF20FDF72DFBFC20FDF72AFBEA
:10573000FF20FDF727FBFF20FDF724FB70BD2DE9BF
:10574000F04104460D4617469846069EEE20FDF7AA
:1057500019FBB120FDF716FB3220FDF713FB200AE1
:10576000FDF710FBE0B2FDF70DFB280AFDF70AFB81
:10577000E8B2FDF707FBF8B2FDF704FB300AFDF7CE
:1057800001FBF0B2FDF7FEFA31464046FEF7ABFDF5
:10579000FF20FDF7F7FAFC20FDF7F4FAFF20FDF7F4
:1057A000F1FAFF20FDF7EEFABDE8F08170B504468E
:1057B0000D461646EE20FDF7E5FAB120FDF7E2FAB8
:1057C0003320FDF7DFFA200AFDF7DCFAE0B2FDF73F
:1057D000D9FA280AFDF7D6FAE8B2FDF7D3FAF0B203
:1057E000FDF7D0FAFF20FDF7CDFAFC20FDF7CAFA4D
:1057F000FF20FDF7C7FAFF20FDF7C4FA70BD2DE9C1
:10580000F04704460D4616461F46DDE90889EE209E
:10581000FDF7B8FAB120FDF7B5FA3420FDF7B2FA7A
:10582000200AFDF7AFFAE0B2FDF7ACFA280AFDF75F
:10583000A9FAE8B2FDF7A6FA300AFDF7A3FAF0B22A
:10584000FDF7A0FA380AFDF79DFAF8B2FDF79AFACB
:105850004FEA1820FDF796FA08F0FF00FDF792FADC
:105860004FEA1920FDF78EFA09F0FF00FDF78AFADA
:10587000FF20FDF787FAFC20FDF784FAFF20FDF7F3
:1058800081FAFF20FDF77EFABDE8F08710B50446E7
:10589000EE20FDF777FAB120FDF774FA1220FDF73C
:1058A00071FA200AFDF76EFAE0B2FDF76BFA10BD4F
:1058B00070B504460D46200AFDF764FAE0B2FDF724
:1058C00061FA0020FDF75EFA0120FDF75BFAE8B20D
:1058D000FDF758FA70BD70B505460C46280AFDF76D
:1058E00051FAE8B2FDF74EFA0020FDF74BFA04201A
:1058F000FDF748FA200EFDF745FAC4F30740FDF71F
:1059000041FAC4F30720FDF73DFAE0B2FDF73AFA99
:1059100070BD70B505460C46280AFDF733FAE8B2AB
:10592000FDF730FA0020FDF72DFA0420FDF72AFAE2
:10593000200EFDF727FAC4F30740FDF723FAC4F35E
:105940000720FDF71FFAE0B2FDF71CFA70BD70B535
:1059500005460C46280AFDF715FAE8B2FDF712FADB
:105960000020FDF70FFA0420FDF70CFA200EFDF7DA
:1059700009FAC4F30740FDF705FAC4F30720FDF761
:1059800001FAE0B2FDF7FEF970BD01460A4600E0FB
:10599000491C08780028FBD1881A704770B5044666
:1059A0000D46200AFDF7EEF9E0B2FDF7EBF92846C7
:1059B000FFF7EBFFC0F307263046FDF7E3F9284673
:1059C000FFF7E3FFC6B23046FDF7DCF92846FEF7E5
:1059D0007FFC70BD70B504460D46200AFDF7D2F974
:1059E000E0B2FDF7CFF90020FDF7CCF90220FDF77A
:1059F000C9F9280AFDF7C6F9E8B2FDF7C3F970BD89
:105A000010B5FF20FDF7BEF9FC20FDF7BBF9FF2024
:105A1000FDF7B8F9FF20FDF7B5F910BD70B50546E3
:105A20000E461446EE20FDF7ADF9B120FDF7AAF9B8
:105A30004020FDF7A7F9280AFDF7A4F9E8B2FDF721
:105A4000A1F9300AFDF79EF9F0B2FDF79BF9200E9F
:105A5000FDF798F9C4F30740FDF794F9C4F3072064
:105A6000FDF790F9E0B2FDF78DF9FF20FDF78AF917
:105A7000FC20FDF787F9FF20FDF784F9FF20FDF7F3
:105A800081F970BD70B504460D46EE20FDF77AF938
:105A9000B120FDF777F94120FDF774F9200AFDF7F1
:105AA00071F9E0B2FDF76EF9280AFDF76BF9E8B27B
:105AB000FDF768F9FF20FDF765F9FC20FDF762F9B5
:105AC000FF20FDF75FF9FF20FDF75CF970BD70B5B1
:105AD00004460D46EE20FDF755F9B120FDF752F9C9
