:020000040800F2
:10000000903400209D010008F916000879140008BA
:10001000F51600081D070008432C0008000000002A
:10002000000000000000000000000000FF260008A3
:100030007F07000800000000111F0008A12700082A
:10004000B7010008B7010008B7010008B7010008B0
:10005000B7010008B7010008B7010008B7010008A0
:10006000B7010008B7010008B7010008B701000890
:10007000B7010008B7010008B7010008B701000880
:10008000B7010008B7010008B7010008B701000870
:10009000B7010008B7010008B7010008B701000860
:1000A000B7010008B7010008B7010008B701000850
:1000B000B701000805280008B7010008B7010008CB
:1000C000B7010008B7010008B7010008B701000830
:1000D000B7010008212A0008B7010008B70100088D
:1000E000B7010008B7010008B701000800F002F8E6
:1000F00000F045F80AA090E8000C82448344AAF17D
:100100000107DA4501D100F03AF8AFF2090EBAE87A
:100110000F0013F0010F18BFFB1A43F0010318473B
:10012000104A0000304A0000103A24BF78C878C155
:10013000FAD8520724BF30C830C144BF04680C60ED
:10014000704700000023002400250026103A28BF35
:1001500078C1FBD8520728BF30C148BF0B60704739
:10016000642900F0A780782900F0E080732900F06E
:100170001882002070471FB51FBD10B510BD00F0DC
:100180009DFA1146FFF7F7FF02F04AFF00F0BBFAB5
:1001900003B4FFF7F2FF03BC02F070FE094880478A
:1001A00009480047FEE7FEE7FEE7FEE7FEE7FEE759
:1001B000FEE7FEE7FEE7FEE704480549054A064B71
:1001C00070470000A5270008ED000008902E0020D1
:1001D00090340020903000209030002070470000C4
:1001E0000FB4044910B503AA029800F0DFF910BC5F
:1001F0005DF814FB640000202DE9F0410E46044632
:10020000002020622046E168884730B3252805D0C9
:10021000D4E901219047206A401CF2E7E1682046BA
:1002200000278847050018D0A5F14100192802D8F9
:1002300020354FF400673246294620462760FFF7F5
:100240008FFF40B1012804D0F61D26F007060836BE
:10025000D8E7361DD6E72846DAE7206ABDE8F08100
:1002600070B50C460546012A05D02878800600D5D1
:10027000EA69002302E0012305E05B1C934202D2FD
:10028000E05C0028F9D1A869E618C01AA861286ABC
:10029000184428622846AFF3008004E0D5E9012124
:1002A00014F8010B9047B442F8D32846AFF300800E
:1002B00070BD00002DE9F041064600241068752944
:1002C000314616A511D0AFF30080002803DAC0F143
:1002D000000013A507E031688A0701D511A502E0E7
:1002E000490704D510A5012401E0AFF300800021E7
:1002F0000A2306F1240707E0B0FBF3F203FB120028
:10030000303078541046491C0028F5D123462A463F
:100310003046BDE8F04100F0D6B800000000000013
:100320002D0000002B0000002000000070B50446E6
:100330000D4621461068AFF300802188090502D5DB
:10034000104A7A4402E00F4A7A440E32002104F146
:10035000240307E000F00F064FEA1010965D5E548C
:1003600001F101010028F5D103462078000704D5EA
:10037000702D02D009B1113202232046BDE8704031
:1003800000F0A1B8C247000040EA010310B59B0786
:100390000FD1042A0DD310C808C9121F9C42F8D0EF
:1003A00020BA19BA884201D9012010BD4FF0FF30A0
:1003B00010BD1AB1D30703D0521C07E0002010BDB6
:1003C00010F8013B11F8014B1B1B07D110F8013B42
:1003D00011F8014B1B1B01D1921EF1D1184610BD23
:1003E000032A40F2308010F0030C00F0158011F861
:1003F000013BBCF1020F624498BF11F801CB00F839
:10040000013B38BF11F8013BA2F1040298BF00F88C
:1004100001CB38BF00F8013B11F0030300F0D88096
:10042000083AC0F0088051F8043B083A51F804CB70
:10043000A0E80810F5E7121D5CBF51F8043B40F836
:10044000043BAFF30080D20724BF11F8013B11F841
:1004500001CB48BF11F8012B24BF00F8013B00F885
:1004600001CB48BF00F8012B704702F0FF0343EABD
:10047000032242EA024200F002B84FF000020429CF
:10048000C0F0128010F0030C00F0D680CCF1040C08
:10049000BCF1020F18BF00F8012BA8BF20F8022BF7
:1004A000A1EB0C0100F0C8B85FEAC17C24BF00F8E2
:1004B000012B00F8012B48BF00F8012B7047704753
:1004C0007047704770472DE9F0470D4699469246B0
:1004D000044600F124080168880604D5E06921F08B
:1004E0001001216000E00120A84202DDA0EB050719
:1004F00000E00027A16907EB050202EB0900A1EB70
:100500000000A0612078C00602D42046AFF300802E
:10051000002608E0D4E901211AF806009047206A75
:10052000401C761C20624E45F4DB2078C0060AD5BC
:100530002046AFF3008006E0D4E901213020904747
:10054000206A401C2062381EA7F10107F4DC07E096
:10055000D4E9012118F805009047206A401C206268
:10056000281EA5F10105F3DC2046AFF300802078BA
:10057000000602D50220BDE8F0870120FBE710B598
:10058000436913B1AFF3008001E0FFF769FE01207A
:1005900010BD127800F124010A7000224A70012275
:1005A000EDE711684FF0FF32E9E70000074B70B547
:1005B0000D467B4400F06BF80446284600F07AF8BC
:1005C00010B14FF0FF3070BD204670BD032A00000F
:1005D00010B5203AC0F00B80B1E81850203AA0E8DE
:1005E0001850B1E81850A0E81850BFF4F5AF5FEA12
:1005F000027C24BFB1E81850A0E8185044BF18C9C5
:1006000018C0BDE810405FEA827C24BF51F8043B6B
:1006100040F8043B08BF7047D20728BF31F8023BBF
:1006200048BF11F8012B28BF20F8023B48BF00F853
:10063000012B70474FF0000200B5134694469646D2
:10064000203922BFA0E80C50A0E80C50B1F12001E5
:10065000BFF4F7AF090728BFA0E80C5048BF0CC093
:100660005DF804EB890028BF40F8042B08BF7047F1
:1006700048BF20F8022B11F0804F18BF00F8012B63
:100680007047000001694A1C02610878704700B594
:100690008FB0CDE901310021059105497944CDE9BB
:1006A000031011466846FFF7A7FD0FB000BD00001C
:1006B000E5FFFFFF007B00F080007047754600F00B
:1006C00029F8AE4605006946534620F007008546E6
:1006D00018B020B5FFF770FDBDE820404FF00006D0
:1006E0004FF000074FF000084FF0000B21F007011A
:1006F000AC46ACE8C009ACE8C009ACE8C009ACE85D
:10070000C0098D4670470446AFF300802046FFF7CE
:100710003FFD000000487047302E002000BFFEE77C
:100720000021002202714271026000BF03E0002339
:10073000821D5354491CB1F5C87FF8DB7047002176
:10074000017141710160704710B503460C461846AF
:1007500000F0F4FA08B1002010BD1979981D405C32
:1007600020701879401C4FF4C87190FBF1F201FB26
:10077000120018711868401E18600120ECE77047DD
:1007800030B585B00446002500F050FA00F032FA8A
:10079000FF220021104600F0B3FAC82002F0BCFB93
:1007A00004E0681C85B2642002F0B6FB1D2000F056
:1007B000DAF910F0010F02D1B5F5FA7FF1DBB5F5EA
:1007C000FA7F05DB70A0FFF70BFD012005B030BDFF
:1007D0000020734908600021082000F06DFA002114
:1007E000092000F069FA00210C2000F065FA0021D0
:1007F0000D2000F061FA10210A2000F05DFA1A21A4
:100800000B2000F059FA1121042000F055FA1A21AA
:10081000052000F051FAFF21062000F04DFA1F21BB
:10082000072000F049FAB021382000F045FA3F21B6
:10083000282000F041FA3021292000F03DFAF9216A
:10084000302000F039FAF721312000F035FA0D217F
:10085000C02000F031FA0021C12000F02DFA33222F
:10086000C221802000F04CFA1221C62000F024FAA8
:100870000C21C72000F020FA1521C42000F01CFA3A
:10088000EE21CA2000F018FA0521CB2000F014FA5E
:100890002178E42000F010FA6178E52000F00CFAED
:1008A000A178E22000F008FAE178E32000F004FAF1
:1008B0002179E02000F000FA6179E12000F0FCF9F4
:1008C0004FF48071002000F099F84FF480711020EF
:1008D00000F094F81F2000F0D5F9C0221B218020E1
:1008E00000F00EFA04221F21802000F009FAE42013
:1008F00000F039F98DF80C00E52000F034F98DF89E
:100900000D00E22000F02FF98DF80E00E32000F03A
:100910002AF98DF80F00E02000F025F98DF810007D
:10092000E12000F020F98DF811000622214603A8ED
:10093000FFF72AFD98B99DF811009DF810109DF859
:100940000F20CDE9002102909DF80E309DF80D207A
:100950009DF80C1013A0FFF743FC002036E79DF82C
:1009600011009DF810109DF80F20CDE90021029094
:100970009DF80E309DF80D209DF80C1014A0FFF787
:100980002FFC012022E70000454E4332384A363022
:10099000B3F5CABCBBAFCAA7B0DC0D0A00000000AB
:1009A000580000206D6163CFE0B5C8A3ACB5D8D6C0
:1009B000B7B6C1B3F6C0B4CEAAA3BA25643A2564CB
:1009C0003A25643A25643A25643A25640D0A000004
:1009D0006D6163B5D8D6B7B2BBCFE0B5C8B6C1B309
:1009E000F6C0B4CEAAA3BA25643A25643A25643A7F
:1009F00025643A25643A25640D0A000070B5054661
:100A00000C4600262946D42000F056F9E1B2D62043
:100A100000F052F9C4F30721D72000F04DF901E0AE
:100A2000701C86B2EA2000F09EF810F0010F03D08F
:100A300040F6FF708642F3DB0F2002F095FA70BD9E
:100A40002DE9F04105460F46392000F08CF810B929
:100A50000020BDE8F08129480178002000F02CF941
:100A600026480088C0F30721012000F025F9002165
:100A70003A2000F09FF82149086000213A2000F058
:100A800099F81E49096841EA00201C4908600021C4
:100A90003A2000F08FF8044600213A2000F08AF84E
:100AA00044EA0024241F00213A2000F083F806467F
:100AB00000213A2000F07EF846EA0026681EA04297
:100AC00000D26C1E16F0800F01D1002403E03946DD
:100AD000204600F053F8094801780C2000F0ECF8AB
:100AE00006480088C0F307210D2000F0E5F84022F9
:100AF0001E21802000F004F92046AAE758000020BB
:100B000070B504460D461121022000F0D5F81A21D7
:100B1000032000F0D1F811202044C1B2062000F0DB
:100B2000CBF841F611202044C0F30721072000F044
:100B3000C3F8002211467A2000F0E2F82946204648
:100B400000F0C6F808221F21802000F0D9F81C20F0
:100B500000F009F810F0020F04D008221F21A02095
:100B600000F0CEF870BD10B50446204600F08AF8BB
:100B70002146002000F01EF810BD000070B50546AB
:100B80000C4600200A4908604FF03A0001F032FCA0
:100B900005E06D1E002001F02DFC2070641C002D6E
:100BA000F7D10020207001200149086070BD0000CD
:100BB0009001214270B505460C46002600200C49E4
:100BC000086004F01F0040EA0506304601F012FC00
:100BD000FF2001F00FFC064614F0800F03D0FF2029
:100BE00001F008FC0646012001490860304670BD4E
:100BF0009001214210B501200A4908604FF0C80059
:100C000002F08AF900200849C1F88C01C82002F0DE
:100C100083F90120034908604FF0C80002F07CF915
:100C200010BD00008C0121420000214208B50121C5
:100C30000C2001F08BFA0220ADF8000048208DF85E
:100C4000030069460D4800F041FB02210B4800F00B
:100C500011FC1820ADF8000010208DF803000320CF
:100C60008DF802006946064800F030FB1821044860
:100C700000F000FC01F07AFB08BD0000000C014010
:100C80000008014010B5044604F0600009490978E5
:100C900088420ED003221F21A02000F031F8C4F3B7
:100CA00041121F21802000F02BF804F06000014960
:100CB000087010BD5400002070B504460D46204653
:100CC000FFF7E0FF2A462146402000F019F870BDEA
:100CD00070B504460D460020084908604FF07A00C0
:100CE00001F088FB04E0641E287801F083FB6D1C92
:100CF000002CF8D101200149086070BD900121420B
:100D00002DE9F04104460D4616460027002009490A
:100D1000086005F01F0040EA0407384601F06AFB4E
:100D2000304601F067FB01200349C1F89001BDE89E
:100D3000F081000090012142000021420146087923
:100D40004A79904201D1012070470020FCE710B59C
:100D500002465079401C4FF4C87390FBF3F403FB38
:100D600014001379984210D05379901DC1545079D2
:100D7000401C4FF4C87390FBF3F403FB1400507154
:100D80001068401C1060012010BD0020FCE7F0B589
:100D900007460D461646002400BF08E0295D384688
:100DA000FFF7D5FF08B90020F0BD601C84B2B44243
:100DB000F4D30120F8E7000000B599B0322269466B
:100DC0005C4801F001FCBDF800005B490880BDF8FB
:100DD0000200C0B24880BDF804000871BDF80600EA
:100DE0004871BDF80800C1B253488171BDF80A00CE
:100DF000C1B25148C171BDF80C00C1B24E48017278
:100E0000BDF80E00C1B24C484172BDF81000C1B22D
:100E100049488172BDF81200C1B24748C172BDF89D
:100E20001400C1B244480173BDF81600C1B2424873
:100E30004173BDF81800C1B23F488173BDF81A0074
:100E4000C1B23D488174BDF81C00C1B23A4841743A
:100E5000BDF81E00C1B238480174BDF82000364903
:100E6000C873BDF82200C1B233488175BDF82400B3
:100E7000C1B231484175BDF82600C1B22E48017596
:100E8000BDF828002C49C874BDF82A00C1B22A4810
:100E90008176BDF82C00C1B227484176BDF82E00FE
:100EA000C1B225480176BDF830002349C875BDF8A8
:100EB0003200C1B220488177BDF83400C1B21E486B
:100EC0004177BDF83600C1B21B480177BDF8380044
:100ED0001949C876BDF83A000884BDF83C0081F88D
:100EE0002200BDF83E00C1B2134880F82310BDF8BF
:100EF0004000C1B2104880F82410BDF84200C1B2D1
:100F00000D4880F82510BDF84400C1B20A4880F8A9
:100F10002610BDF84600C1B2074880F82710BDF87A
:100F20004800054981F82800BDF84A0081F82900E9
:100F300019B000BD00000108B004002030B504461F
:100F400004254FF4302000F089F80546042D17D110
:100F50000C48006940F002000A49086108464461F3
:100F6000006940F0400008614FF4302000F076F84E
:100F700005460448006941F6FD71084001490861D1
:100F8000284630BD0020024004200B49C96811F0FA
:100F9000010F01D001200EE00749C96811F0040FCC
:100FA00001D0022007E00449C96811F0100F01D0F8
:100FB000032000E00420704700200240034800693D
:100FC00040F08000014908617047000000200240A5
:100FD0000549096821F01001034A116011460968AA
:100FE00001431160704700000020024070B50446C4
:100FF0000D460426F00200F031F80646042E11D109
:101000000948006940F00100074908612580F002A5
:1010100000F024F806460448006941F6FE710840D5
:1010200001490861304670BD0020024001460020A1
:10103000034A106800F03800084310607047000051
:101040000020024002480349486003484860704756
:101050002301674500200240AB89EFCD00B5024671
:101060000423FFF791FF034603E0FFF78DFF0346DC
:10107000521E012B01D1002AF7D102B905231846CF
:1010800000BD000008B501226946074801F09CFA3E
:10109000BDF80000042801D001F0D6FDFFF78CFE5A
:1010A00000F038FF08BD00000000010810B59021D5
:1010B0002548FFF74CFE2548408801122248FFF7DB
:1010C00046FE224881782048FFF741FE9E211E48B7
:1010D000FFF73DFE02211C48FFF739FE1B4890F840
:1010E00022101948FFF733FE184890F823101648CD
:1010F000FFF72DFE154890F824101348FFF727FE40
:10110000124890F825101048FFF721FE0F4890F87C
:1011100026100D48FFF71BFE0C4890F827100A48D0
:10112000FFF715FEFE210848FFF711FEFC210648D7
:10113000FFF70DFEFE210448FFF709FEFC210248DF
:10114000FFF705FE10BD0000BC020020B004002027
:1011500010B590214448FFF7FAFD44484088011239
:101160004148FFF7F4FD414881783F48FFF7EFFD24
:10117000FA213D48FFF7EBFD02213B48FFF7E7FD71
:101180003A48817D3848FFF7E2FD3848417D3648CE
:10119000FFF7DDFD3548017D3348FFF7D8FD3348C3
:1011A000C17C3148FFF7D3FD3048817C2E48FFF7E2
:1011B000CEFD2E48417C2C48FFF7C9FD2B48017C11
:1011C0002948FFF7C4FD2948C17B2748FFF7BFFD29
:1011D0002648008C01122448FFF7B9FD234890F8F7
:1011E00020102148FFF7B3FD2048817E1E48FFF7FD
:1011F000AEFD1E48417E1C48FFF7A9FD1B48017E3D
:101200001948FFF7A4FD1948C17D1748FFF79FFD56
:101210001648817F1448FFF79AFD1448417F124811
:10122000FFF795FD1148017F0F48FFF790FD0F482C
:10123000C17E0D48FFF78BFD0C4890F829100A4835
:10124000FFF785FDFE210848FFF781FDFC210648D8
:10125000FFF77DFDFE210448FFF779FDFC210248E0
:10126000FFF775FD10BD0000BC020020B004002097
:1012700010B590211348FFF76AFD1348408801120A
:101280001048FFF764FD104881780E48FFF75FFDB6
:10129000A0210C48FFF75BFD02210A48FFF757FD2C
:1012A000FE210848FFF753FDFC210648FFF74FFDDC
:1012B000FE210448FFF74BFDFC210248FFF747FDE4
:1012C00010BD0000BC020020B00400202DE9F04158
:1012D000024600250026002000230024002791F864
:1012E00003C00CF00F0591F803C01CF0100F03D0E1
:1012F00091F802C04CEA050591F800C0BCF1000F5E
:1013000031D0146800202BE04FF0010C0CFA00F3F0
:10131000B1F800C00CEA03069E4220D183004FF0D2
:101320000F0C0CFA03F7BC4305FA03FC4CEA040467
:1013300091F803C0BCF1280F06D14FF0010C0CFA54
:1013400000FCC2F814C00AE091F803C0BCF1480FD9
:1013500005D14FF0010C0CFA00FCC2F810C0401C83
:101360000828D1D31460B1F800C0BCF1FF0F34DD00
:10137000546800202EE000F1080C4FF0010808FA34
:101380000CF3B1F800C00CEA03069E4221D18300A1
:101390004FF00F0C0CFA03F7BC4305FA03FC4CEAC0
:1013A000040491F803C0BCF1280F05D100F1080C2A
:1013B00008FA0CF8C2F8148091F803C0BCF1480F89
:1013C00007D100F1080C4FF0010808FA0CF8C2F838
:1013D0001080401C0828CED35460BDE8F081000086
:1013E000F0B50A46002300240021002500F0004645
:1013F000B6F1004F02D11D4EF16901E01B4E71683C
:10140000C0F3034583B200F44016B6F5401F08D17F
:1014100021F07061154E766826F07066134F7E607D
:1014200012E000F48016B6F5801F06D1032606FAF6
:1014300005F4A14341F0706106E0460D360103FA60
:1014400006F6B14341F0706122B1460D360103FA50
:1014500006F6314300F00046B6F1004F02D1034ECC
:10146000F16101E0014E7160F0BD0000000001403B
:10147000416170470161704706E004A0FEF7B0FECD
:101480004FF4FA7001F048FDF7E70000486172641C
:101490004661756C745F48616E646C65720D0A001C
:1014A0004CF6CC4001490860704700000030004015
:1014B00010B500F013F810BD70B505460C4645F2A6
:1014C000555000F01FF8284600F010F8204600F0B4
:1014D00013F800F003F8FFF7E3FF70BD4AF6AA2007
:1014E0000149086070470000003000400149486031
:1014F00070470000003000400149886070470000DC
:101500000030004001490860704700000030004092
:101510000748008850B9322005490880054800680E
:1015200008B9012000E0002002490860704700006F
:101530004C000020B401224208B50121182000F01F
:1015400005FE4FF46040ADF8000010208DF8030058
:1015500003208DF8020069460C48FFF7B7FE4FF4F0
:1015600060410A48FFF786FF8020ADF80000482060
:101570008DF8030003208DF8020069460448FFF748
:10158000A5FE80210248FFF775FF08BD001001404D
:10159000000C014008B50EE04BA0FEF721FE4FF411
:1015A0007A7001F0B9FC4E48006808B9012000E0EB
:1015B00000204B49086001F017FE0028ECD102F032
:1015C000C3FA00BF4748417D807D41EA0020010207
:1015D0004448427D807D42EA002041EA202080B2DA
:1015E000ADF800003F48C17C007D41EA00200102C7
:1015F0003C48C27C007D42EA002041EA202080B2C3
:10160000ADF8020000BF00BFBDF8000036490880F9
:10161000BDF80200488000BF00BF3248417E807E96
:1016200041EA002001022F48427E807E42EA0020EB
:1016300041EA202080B2ADF800002A48C17D007E3A
:1016400041EA002001022748C27D007E42EA0020D4
:1016500041EA202080B2ADF8020000BF00BFBDF813
:10166000000022490880BDF80200488000BF00BF8A
:101670001C48417F807F41EA002001021948427FD7
:10168000807F42EA002041EA202080B2ADF80000CD
:101690001448C17E007F41EA002001021148C27E49
:1016A000007F42EA002041EA202080B2ADF802002B
:1016B00000BF00BFBDF800000D490880BDF8020062
:1016C000488000BF08BD0000454E4332384A3630DE
:1016D00020496E6974204572726F72210D0A0000F4
:1016E000B4012242B00400208200002086000020C5
:1016F0008A00002000BFFEE7704700001CB510A163
:1017000003C9CDE9000105226946302000F068F9DF
:1017100005226946102000F0ABF8002406E01DF811
:101720000400A52800D003E0601CC4B2052CF6DB41
:1017300000BF052C01D001201CBD0020FCE70000EB
:10174000A5A5A5A5A500000008B501210C2000F065
:10175000FDFC4FF48050ADF8000010208DF8030020
:1017600003208DF8020069462548FFF7AFFD4FF4CE
:1017700080512348FFF77EFE4FF48070ADF80000E3
:1017800010208DF8030069461E48FFF79FFD4FF4B7
:1017900080711C48FFF76EFE4FF40060ADF800004A
:1017A00028208DF8030069461648FFF78FFD4FF497
:1017B00000611448FFF75CFE00F046FE002012496D
:1017C00008604FF001001149C1F8B0014FF064000A
:1017D00001F0A2FB0AE0C82001F09EFB0C48006863
:1017E00008B9012000E0002009490860FFF786FFE2
:1017F0000028F0D1074991F8290000F00DF808BD44
:10180000000C014000080140A0012142008021425B
:10181000B4012242B004002010B504460020114952
:1018200008604FF0050210494FF02A0000F0D8F888
:101830000121222000F0F2F82146252000F0EEF8E8
:101840001621312000F0EAF80F21262000F0E6F8FA
:101850000F21202000F0E2F801200449C1F8A00186
:1018600010BD0000A0012142F54A000800002142FD
:101870002DE9F04107460D46164600200A4908604A
:10188000384600F02BFE8046002405E0FF2000F0E3
:1018900025FE2855601CC4B2B442F7DB0120024982
:1018A00008604046BDE8F081B081214270B5044631
:1018B000002007490860204600F010FEFF2000F0DD
:1018C0000DFE054601200349C1F8B001284670BD50
:1018D000B08121420080214270B5044600260720D5
:1018E000FFF7E4FF054615F0400F05D0162221460C
:1018F0006120FFF7BDFF00E00126FF21E22000F09C
:101900008DF8FF21E12000F089F82946272000F01A
:1019100085F8304670BD000010B50446002013491C
:1019200008604FF0050212494FF0300000F058F8FF
:101930000121222000F072F80021242000F06EF82E
:101940002146252000F06AF81621312000F066F8C3
:101950000F21262000F062F80E21202000F05EF812
:1019600001200449C1F8A00110BD0000A0012142DE
:10197000F04A00080000214270B50546002600200C
:10198000144908604FF0160229464FF0A00000F0FD
:1019900027F801201049C1F8A00100BF0F480068D6
:1019A0000028FBD14FF00700FFF780FF044614F03A
:1019B000200F00D02026FF21E22000F02FF8FF2189
:1019C000E12000F02BF82146272000F027F83046D0
:1019D00070BD0000A0012142000021422C012142E3
:1019E0002DE9F04107460C46154600200A490860DB
:1019F000384600F073FD8046002605E014F8010B20
:101A000000F06CFD701CC6B2AE42F7DB012002494B
:101A100008604046BDE8F081B081214270B50546BE
:101A20000C46002007490860284600F057FD06468E
:101A3000204600F053FD01200349C1F8B0013046B3
:101A400070BD0000B08121420080214210B54FF4EA
:101A5000A06000F03BF810BD70B5002100230F22FC
:101A6000C4780CB3164C246804F4E064C4F5E06454
:101A7000210AC1F10403CA40447804FA03F18478CE
:101A80001440214309010F4C0678A155047804F055
:101A90001F050124AC4005786D114FF0E02606EBE0
:101AA0008505C5F8004109E0047804F01F0501240C
:101AB000AC40054D0678761145F8264070BD000013
:101AC0000CED00E000E400E080E100E002490143A9
:101AD000024A1160704700000000FA050CED00E0BA
:101AE0002DE9F041002400260027C348006800F1DA
:101AF0001C052822C149C24801F006FBC6B2002ECF
:101B00007EDDBE488078BD49497800EB012084B273
:101B1000BA48C078E92874D006DC9D2872D09E2887
:101B200071D09F2870D1FCE0F9286ED0FB281FD01F
:101B3000FC28F7D14FF49670B24988800020B24952
:101B40004870B2490870B2484088A0420FD1AB48F3
:101B50004079AA49097900EB0120AD49488001F09C
:101B6000DFF8FFF729F900F0D5F900F0FDFDF5E009
:101B70000020A64908704FF49670A2498880002082
:101B8000A1494870A2484088A04256D19B4801799B
:101B90009F488175994841799D4841759748817959
:101BA0009B4801759548C0799949C8749348017A52
:101BB000974881749148417A954841748F48817A59
:101BC000934801748D48C07A9149C8738B48407B13
:101BD0008A49097B00EB01208D4908848748817B75
:101BE0008B4881768548C17B894841768348017C52
:101BF000874801768148407C8549C8757F4805E063
:101C0000ADE01BE058E04AE09EE03BE0817C80488C
:101C100081777A48C17C7E4841777848017D7C484D
:101C200001777648407D7A49C87601F079F8FFF768
:101C3000C3F800F06FF900F097FD8FE000207349C2
:101C400008704FF496706F49888000206E49487084
:101C50006F484088A04214D1684840797D2805DA51
:101C6000664840796A4981F8290002E069A0FEF7D8
:101C7000B7FA01F055F8FFF79FF800F04BF9FFF7BE
:101C800067FA6BE00020614908704FF496705D4977
:101C9000888000205C49487000F066FD5EE000200E
:101CA0005A4908704FF4967056498880002056496A
:101CB0004870FFF7FBF951E00020544908704FF4D9
:101CC00096705049888000204F494870504840889D
:101CD000A04225D1494840794D4981F82200474822
:101CE00081794B4880F823104448C179484880F8EE
:101CF00024104248017A464880F825103F48417A2E
:101D0000434880F826103D48817A414880F82710E2
:101D100001F006F8FFF750F800F0FCF800F024FDA1
:101D20001CE00020394908704FF4967035498880CE
:101D30003D48007820B901203B490870FFF708FAB8
:101D400000203149487009E0C6F116012B4A90196C
:101D5000FEF793FB01203549487000BF00BF3448AF
:101D6000007810F0800F28D026488088B0B94FF452
:101D700096702449888024484078401CC0B222498B
:101D80004870032808DD002048702948007820F0BA
:101D900080002749087001E0FFF76AFA28222549E8
:101DA000254801F0B1F9C7B2002F06DD21480079BE
:101DB000022802D11F486860AF6020480088C8B977
:101DC0001B48007810F0800F14D101F00BFB0020AD
:101DD000A860287001F010FF4FF496701749088032
:101DE0000A480078401CC0B208490870032801DD89
:101DF00000F0BAFCBDE8F081A000002054040020EF
:101E000024010020280000201F00002001000020E5
:101E1000B0040020C6B5B5C0BAC5B3ACB3F6CFDECA
:101E2000D6C60D0A00000000080000202100002096
:101E3000BE00002088040020BC0200200200002018
:101E400000B587B02C484078002832DD00202A49B0
:101E500048702A4991F82900FFF7DEFC01A8FFF736
:101E60003BFD80B92648006808B9012000E0002049
:101E7000234908609DF80800022804D1162201A910
:101E80002048FEF784FF1D4991F82900FFF744FD23
:101E900001201D4908710846FFF76EFD202828D152
:101EA0001A48006808B9012000E0002017490860BE
:101EB0001FE011480079E0B901200F4908710F496E
:101EC00091F82900FFF7A8FC01A8FFF705FD80B9EC
:101ED0000B48006808B9012000E0002008490860AC
:101EE0009DF80800022804D1162201A90548FEF732
:101EF0004EFF07B000BD000021000020B00400200C
:101F0000BC012242BC02002054040020B80122423D
:101F1000704700000EB535A0FEF762F94048018811
:101F200040A0FEF75DF93E48418842A0FEF758F90F
:101F30003B48017943A0FEF753F947A0FEF750F95B
:101F400037480179401D01F039F93548C07B0090D0
:101F50003348037C427C817C43A0FEF741F9304842
:101F6000C07C00902E48037D427D817D45A0FEF718
:101F700037F92B48C07D00902948037E427E817E40
:101F800047A0FEF72DF92648C07E00902448037F25
:101F9000427F817F48A0FEF723F92148018C4CA0A5
:101FA000FEF71EF91E4890F827001D4991F82610EB
:101FB0001B4A92F82520CDE900210290184890F89C
:101FC000243090F8232090F8221045A0FEF708F95D
:101FD000134890F828104BA0FEF702F9104890F82B
:101FE00029104CA0FEF7FCF80EBD0000B6C1C8A138
:101FF000CFB5CDB3B2CECAFD2D2D2D2D2D2D2D2D2E
:102000002D2D2D2D2D2D2D2D2D2D2D2D2D2D2D2D00
:102010002D2D2D2D2D2D2D2D2D3A0D0A00000000DA
:10202000B0040020CFB5CDB3B1EAD6BEA3BA2564C3
:102030000D0A0000CDF8B9D84944A3BA25640D0AA9
:1020400000000000D7D3BFA8CDB7B8F6CAFDA3BA29
:1020500025640D0A00000000D7D3BFA8CDB7C1D0BA
:10206000B1EDA3BA00000000B7FECEF1C6F769706B
:10207000B5D8D6B7A3BA25642E25642E25642E259F
:10208000640D0A00B1BEBBFA6970B5D8D6B7A3BA61
:1020900025642E25642E25642E25640D0A0000007B
:1020A000C4ACC8CFCDF8B9D8A3BA25642E25642E08
:1020B00025642E25640D0A00D7D3CDF8D1DAC2EB02
:1020C000A3BA25642E25642E25642E25640D0A00EE
:1020D000B6CBBFDABAC5A3BA25640D0A000000006A
:1020E000B1BEBBFA6D6163B5D8D6B7CEAAA3BA2587
:1020F000643A25643A25643A25643A25643A2564AD
:102100000D0A0000B6C1CDB7C6B5B5C0A3BA2564E7
:102110000D0A0000CDF8B9D8C6B5B5C0A3BA25647C
:102120000D0A0000014608687047000029B1064A00
:10213000D2690243044BDA6104E0034AD269824364
:10214000014BDA61704700000010024029B1064AD5
:1021500092690243044B9A6104E0034A9269824304
:10216000014B9A6170470000001002400F48006860
:1021700040F001000D490860084640680C490840DD
:102180000A494860084600680A490840074908604B
:102190000846006820F4802008600846406820F463
:1021A000FE0048604FF41F00886070470010024036
:1021B0000000FFF8FFFFF6FE30B5002100220024EA
:1021C00000232D4D6D6805F00C0121B1042905D0C7
:1021D000082923D105E0294D056022E0274D05603F
:1021E0001FE0254D6D6805F47012234D6D6805F4F0
:1021F0008034022505EB92421CB9214D5543056000
:102200000BE01D4D6D6815F4003F03D01C4D554388
:10221000056002E0194D5543056002E0174D056069
:1022200000BF00BF144D6D6805F0F0010909154DA0
:102230006B5C0568DD4045600F4D6D6805F4E0613D
:10224000090A104D6B5C4568DD4085600A4D6D687C
:1022500005F46051C90A0B4D6B5C4568DD40C560F3
:10226000054D6D6805F44041890B074D6B5CC568F1
:10227000B5FBF3F5056130BD0010024000127A0095
:1022800000093D00680000207800002010B50146DC
:102290000022002300204A11012A02D1094C2368A0
:1022A00006E0022A02D1074C236A01E0054C636A6A
:1022B00001F01F02012494401C4201D0012000E0E3
:1022C000002010BD001002400248406800F00C00E1
:1022D000704700000010024001460020034A506889
:1022E00020F0F000084350607047000000100240EA
:1022F000014908607047000000004242014600208A
:10230000034A506820F4E0600843506070470000C2
:102310000010024001460020034A506820F460503B
:1023200040EAC10050607047001002400149086651
:10233000704700000000424202460020044B5868EB
:1023400020F47C1042EA01031843014B58607047A7
:102350000010024001460020034A506820F00300AC
:1023600008435060704700000010024000B587B07D
:1023700001210420FFF7EAFE01210803FFF7E6FE32
:10238000E020ADF8180018208DF81B0003208DF810
:102390001A0006A91548FEF799FFE0211348FFF738
:1023A00069F80020ADF804004FF48270ADF8060023
:1023B0000020ADF80800ADF80A00ADF80C004FF4AD
:1023C0000070ADF80E000820ADF810000020ADF848
:1023D00012000720ADF8140001A9054800F0D6F856
:1023E0000121034800F0B8F807B000BD0008014023
:1023F0000030014070B50546002405E0601CC4B201
:10240000C82C01DD002070BD02210E4800F0B0F89C
:102410000028F3D029460B4800F0B6F8002405E068
:10242000601CC4B2C82C01DD0020ECE70121054886
:1024300000F09EF80028F3D0024800F0A2F8C0B2E5
:10244000E1E700000030014000B587B0012108201D
:10245000FFF77CFE01218803FFF768FE4FF4604020
:10246000ADF8180018208DF81B0003208DF81A0015
:1024700006A91848FEF72AFF4FF460411548FEF7F9
:10248000F9FF0020ADF804004FF48270ADF80600AB
:102490000020ADF80800ADF80A00ADF80C004FF4CC
:1024A0000070ADF80E001820ADF810000020ADF857
:1024B00012000720ADF8140001A9074800F066F8E3
:1024C000102000F035F80121034800F045F807B06E
:1024D00000BD0000000C01400038004070B505460A
:1024E000002405E0601CC4B2C82C01DD002070BDD2
:1024F00002210E4800F03CF80028F3D029460B4892
:1025000000F042F8002405E0601CC4B2C82C01DDD4
:102510000020ECE70121054800F02AF80028F3D05C
:10252000024800F02EF8C0B2E1E700000038004099
:1025300010B50446074800884FF6C77108400549A2
:10254000088008460088204308800121014800F0E7
:1025500003F810BD0038004021B1028842F040026B
:10256000028004E002884FF6BF731A400280704771
:102570000246002013890B4201D0012000E0002018
:1025800070470146888970478181704710B50022E5
:10259000028802F441520B884C8823438C882343E1
:1025A000CC8823430C8923434C8923438C892343C0
:1025B000CC8923431A430280838B4FF2FF7423405C
:1025C00083830B8A038210BD30B503460C46154643
:1025D000002207E0184600F008F824F812009B1CBF
:1025E000501C82B2AA42F5DB30BD01460888704714
:1025F0002DE9F05F80468A4617463448804502D36D
:102600003348804501D3BDE8F09FFEF71BFD2F48FE
:10261000A8EB000B4FEADB25CBF34909C9F5806431
:10262000A74200DC3C464AE0284901EBC5204A1499
:102630002849FFF7C9FF00260BE009EB06002549F2
:1026400031F81000A0F57F41FF3900D003E0701C85
:1026500086B2A642F1DB00BFA64219DA1B4901EBA4
:10266000C520FEF76BFC002608E03AF8160006EBE2
:102670000901184A22F81100701C86B2A642F4DB48
:10268000124901EBC5204A14124900F025F804E074
:1026900022465146404600F01FF8A74200D10FE005
:1026A0006D1C4FF000090AEB440AA044381B87B2A6
:1026B000B7F5806F02DD4FF4806400E03C46B3E77D
:1026C00000BFFEF77BFC00BF9DE700000000010893
:1026D00000000908DA0400202DE9F04105460E4605
:1026E0001746002407E036F814102846FEF77EFC53
:1026F000AD1C601C84B2BC42F5DBBDE8F0817047C4
:10270000704710B5FFF732FD0120FFF7F1FD00BF64
:102710002120FFF7BBFD0028FAD00020FFF7DCFDE9
:102720000020FFF7F7FD4FF48060FFF7E7FD022080
:10273000FEF77CFC1020FEF74BFC4FF460110020EC
:10274000FFF7FAFD0120FFF7F1FD00BF3920FFF789
:102750009DFD0028FAD00220FFF7FCFD00BFFFF727
:10276000B3FD0828FBD110BD01480249086070473D
:102770000400FA050CED00E0042808D14FF0E02138
:10278000096941F004014FF0E022116107E04FF0C8
:10279000E021096921F004014FF0E0221161704746
:1027A0007047000010B51348006840F0010011495F
:1027B000086008464068104908400E4948600846CD
:1027C00000680E4908400B4908600846006820F47C
:1027D000802008600846406820F4FE0048604FF4FE
:1027E0001F008860FFF78CFF4FF00060044908600D
:1027F00010BD0000001002400000FFF8FFFFF6FED1
:1028000008ED00E010B50121284800F09CF80028F0
:1028100047D027480068401C2549086025480078B3
:10282000002804DD23480078401E22490870224811
:10283000C088002804DD2048C088401E1E49C8808A
:102840001D48006828B11C480068401E1A490860ED
:1028500003E04FF0FF30184908601848007900285D
:1028600004DD16480079401E14490871124880881A
:10287000002804DD10488088401E0F4988801048D9
:102880000088002804DD0E480088401E0C4908809E
:102890000C480088002804DD0A480088401E0949C9
:1028A00008800121014800F03FF810BD00040040FD
:1028B00050000020260000202800002021000020D9
:1028C0004C000020020000207FB505460C46012187
:1028D0000220FFF72BFCADF80850ADF804400020B3
:1028E000ADF80A00ADF8060001A90E4800F046F860
:1028F000012241210B4800F037F80121094800F07E
:1029000016F81D208DF8000001208DF8010002202E
:102910008DF8020001208DF803006846FFF79CF84F
:102920007FBD000000040040CA430282704721B10D
:10293000028842F00102028004E002884FF6FE7332
:102940001A400280704730B5024600200023002460
:10295000158A05EA0103958905EA010413B10CB152
:10296000012000E0002030BD1AB183890B43838130
:1029700002E083898B438381704700000022028834
:102980001D4B98420ED01D4B98420BD0B0F1804F9A
:1029900008D01B4B984205D01A4B984202D01A4BD4
:1029A000984204D14FF68F731A404B881A43174B45
:1029B000984207D0164B984204D04FF6FF431A4076
:1029C000CB881A4302808B8883850B8803850A4B4A
:1029D00098420BD0094B984208D00E4B984205D034
:1029E0000D4B984202D00D4B984201D10B7A0386D1
:1029F0000123838270470000002C01400034014015
:102A00000004004000080040000C0040001000409E
:102A100000140040004001400044014000480140D3
:102A200010B540F225511D4800F04AF810B31B487C
:102A300000F002F9C4B21A48008810F4004F2BD1FC
:102A40001748008810F4804F0CD00A2C03D00020C7
:102A50001349088020E01248008840F400401049E3
:102A6000088019E00D2C06D10D48008840F4804004
:102A70000B49088010E00A480088C0F30D0009499E
:102A80000C5407480088401C054908800846008807
:102A9000C72801DD0020088010BD0000003801407B
:102AA00060000020DA0C002021B1828942F400523B
:102AB000828104E082894DF6FF731A40828170475B
:102AC00070B502460024002300250020A1F5106601
:102AD0006A3E00D100BFC1F3421501F01F03012679
:102AE00006FA03F3012D02D19689334006E0022D48
:102AF00002D1168A334001E0968A33400C12012637
:102B000006FA04F41688344013B10CB1012000E039
:102B1000002070BDF0B503460024002600250020EB
:102B2000A1F510676A3F00D100BF1846C1F34214F7
:102B300001F01F06012707FA06F5012C01D10C3020
:102B400004E0022C01D1103000E014301AB1076803
:102B50002F43076002E00768AF430760F0BD000045
:102B60002DE9F04786B005460E460024A24600BF78
:102B7000A1460027B08900B100BF2F462C8A4CF631
:102B8000FF700440F08804432C82AC894EF6F310A9
:102B90000440B08831890843718908430443AC81FB
:102BA000AC8A4FF6FF400440B0890443AC8201A8D0
:102BB000FFF702FB1F48874202D1DDF810A001E0B9
:102BC000DDF80CA0A88910F4004F08D00AEBCA0069
:102BD00000EB0A1031684900B0FBF1F807E00AEB9E
:102BE000CA0000EB0A1031688900B0FBF1F86420DC
:102BF000B8FBF0F004012009642101FB1089A889C9
:102C000010F4004F08D0322000EBC900B0FBF1F007
:102C100000F00700044308E0322000EB09106421B3
:102C2000B0FBF1F000F00F0004432C8106B0BDE8CA
:102C3000F08700000038014001468888C0F3080092
:102C4000704700BFFEE7000010B50420324908803D
:102C50000220488001200871002406E0A01DC1B2B6
:102C60002D48401D0155601CC4B22B480079A0427C
:102C7000F4DCC02128488174A82141740121017429
:102C8000FA202549C873C02123488175A8214175C0
:102C900001210175FE202049C874C0211E4881769B
:102CA000A82141760121017601201B49C875FF2129
:102CB000194881774177017700201749C87642F299
:102CC000B82008841548007881F82200134800884D
:102CD000010A114880F8231010480068010C0E48C2
:102CE00080F824100D480068010E0B4880F825106C
:102CF0000A480179084880F8261008488088010AA7
:102D0000054880F827106420034981F8280081F8DD
:102D1000290000F005F810BDB00400207C0400205C
:102D200000B599B053480088ADF80000514840887C
:102D3000ADF802004F480079ADF804004D484079E5
:102D4000ADF806004B488079ADF808004948C079D5
:102D5000ADF80A004748007AADF80C004548407AC3
:102D6000ADF80E004348807AADF810004148C07AB3
:102D7000ADF812003F48007BADF814003D48407BA1
:102D8000ADF816003B48807BADF818003948807CD0
:102D9000ADF81A003748407CADF81C003548007C7F
:102DA000ADF81E003348C07BADF820003148807D6F
:102DB000ADF822002F48407DADF824002D48007D5D
:102DC000ADF826002B48C07CADF828002948807E4D
:102DD000ADF82A002748407EADF82C002548007E3B
:102DE000ADF82E002348C07DADF830002148807F2B
:102DF000ADF832001F48407FADF834001D48007F19
:102E0000ADF836001B48C07EADF838001948008C7C
:102E1000ADF83A00174890F82200ADF83C0015488C
:102E200090F82300ADF83E00124890F82400ADF869
:102E30004000104890F82500ADF842000D4890F889
:102E40002600ADF844000B4890F82700ADF8460086
:102E5000084890F82800ADF84800064890F8290086
:102E6000ADF84A00322269460348FFF7C1FB19B0AA
:102E700000BD0000B004002000000108014600BFB2
:102E80007047F0B50B46144619461E19751E0BE027
:102E90004E780F7806EB0726B2B28618B0B2904291
:102EA00001DA461CB0B2891CA942F1D3A9420AD169
:102EB0000E78002707EB0626B2B28618B0B2904211
:102EC00001DA461CB0B2F0BD01480068704700004E
:102ED0005000002010B56FF00400FFF74DFC0A48C9
:102EE00000680A49B0FBF1F009490870084600780B
:102EF00000EB4001C1EBC0104FF6FF7101EAC000CA
:102F00000449088010BD00003000002000127A0043
:102F10005C0000205E00002070B505461148008866
:102F200068434FF0E021486100208861084600694D
:102F300040F00100086100BF4FF0E0200469FEF797
:102F4000B7FA14F0010F02D014F4803FF4D04FF020
:102F5000E020006920F001004FF0E021086100202E
:102F6000886170BD5E00002070B50546114800788C
:102F700068434FF0E02148610020886108460069FD
:102F800040F00100086100BF4FF0E0200469FEF747
:102F90008FFA14F0010F02D014F4803FF4D04FF0F8
:102FA000E020006920F001004FF0E02108610020DE
:102FB000886170BD5C00002000BF054A128812F0D5
:102FC000400FFAD0C2B2024B1B1D1A80704700009E
:102FD000003801400C4800680C4988600A48001D10
:102FE0000068486008480830006808600846806843
:102FF0004008496840EA51000449096840EA510024
:103000000349086070470000E8F7FF1F7C040020B8
:10301000040000200146080240EA212080B27047E7
:10302000FFF76FFBFEF712FDFFF754FF0121084683
:10303000FFF78CF801212C48FEF7D2F940F27121FC
:103040000420FEF739FAFFF7C5FF4FF4E13000F036
:1030500047FAFEF717F8FEF76FFAFEF775FBFEF773
:1030600099FAC820214908802148006838B90A2007
:10307000FFF752FF1E48006808B9FFF7E5FD40F270
:103080007F214FF47A70FFF71FFC1A48FDF757FBBA
:103090001948FDF754FB1748FDF742FB1648FDF7AA
:1030A0003FFB16484088322190FBF1F201FB1200F1
:1030B00084B22046FFF730FF14E0FEF729FA1048EB
:1030C000007810F0800F01D0FEF7BAFE00F094FDFA
:1030D000FEF706FD0B48C08820B9FEF7E9F90A2083
:1030E0000849C880E9E70000000230000200002023
:1030F0001C81214224010020BC020020B0040020D9
:10310000BE00002028000020F8B507460C461546F2
:103110000026002000903846FFF704F806463EE0FF
:1031200069463846FDF710FB1F48006828B99DF82E
:103130000000902801D00020F8BD1B480068A8427C
:1031400009D29DF80010184802680068401C164B10
:103150001860A1540DE000201349086000261349AF
:1031600008603846FDF7DCFA11A0FDF739F80020B9
:10317000E2E79DF800000D49096840EA01200B498B
:103180000860084600680C49884208D1064806686D
:10319000002006490860044908603046CCE7002E4C
:1031A000BED10020C8E700004800002044000020F5
:1031B000D6A1D2E7B3F60000FCFEFCFE70B50546D2
:1031C0000E46002405E0295D05A0FDF709F8601C06
:1031D000C4B2B442F7DB03A0FDF702F870BD0000F3
:1031E00025782C000D0A000070B500250A48FDF76F
:1031F000C7FA0546002405E00748005D0749085561
:10320000601CC4B2062CF7DB40F276411420FDF7B7
:10321000F5FB284670BD0000D20400207C00002091
:1032200010B5034940F2EE50FDF70AFC80B210BD24
:10323000A40D002010B5034903480088FDF760FC89
:1032400010BD0000A40D00209800002010B5084813
:10325000007820F08000064908700648FDF760FA03
:103260000548FDF75DFA05A000F0B6FC10BD0000B2
:10327000BE00002024010020BC0200207463705FA7
:10328000636C69656E742061626F72746564210D90
:103290000A0000000349096801F11C000021816057
:1032A00070470000A000002010B50848007820F00A
:1032B0008000064908700648FDF732FA0548FDF718
:1032C0002FFA05A000F088FC10BD0000BE00002011
:1032D00024010020BC0200207463705F636C696588
:1032E0006E7420636C6F736564210D0A000000002A
:1032F00010B50848006800F11C040748007840F049
:1033000080000549087005A000F066FC00202070D0
:1033100010BD0000A0000020BE0000207463705F9C
:10332000636C69656E7420636F6E6E65637465644B
:10333000210D0A0010B52748007810F0200F01D0A9
:10334000FFF784FF2348007810F0800F01D000F0D1
:1033500093F82048007810F0100F01D0FFF7A4FF79
:103360001C48007810F0400F01D0FFF7C1FF19484A
:10337000007810F0010F01D0FFF78CFF154800789E
:1033800010F0020F0AD014480088002806DD124809
:103390000288124801681248FDF7F9FC0D480078D0
:1033A00010F0040F13D10B48007810F0020F0ED16B
:1033B0000848007810F0010F09D10648007810F095
:1033C000400F04D10348007810F0080F01D000F03E
:1033D00043F810BD9C0000209800002090000020C1
:1033E0002401002038B500BF1648417C807C41EAAA
:1033F000002001021348427C807C42EA002041EA1E
:10340000202080B2ADF800000E48C17B007C41EA6C
:10341000002001020B48C27B007C42EA002041EA06
:10342000202080B2ADF8020000BF0649088CFFF7EB
:10343000F1FD04462146684600F0FEFA02A000F0C5
:10344000CBFB38BDB0040020D6D8C1ACB7FECEF15E
:10345000C6F70D0A0000000010B50648006800F12C
:103460001C04A068002803DDD4E9010101F0FEFA84
:1034700010BD0000A000002010B50548007820F025
:1034800080000349087003A000F0A6FB10BD0000F7
:10349000BE0000207463705F636C69656E74207495
:1034A000696D656F7574210D0A00000010B5044642
:1034B000FFF70AFD2168401A6168884201DB01209C
:1034C00010BD0020FCE7D0E90012114401607047F4
:1034D00070B504460D466560FFF7F6FC206070BDD0
:1034E00010B586B00446012144F20500FEF72EFE19
:1034F0004FF40070ADF8140003208DF8160018206A
:103500008DF8170005A91C48FDF7E0FE4FF4806018
:10351000ADF8140004208DF8170005A91648FDF732
:10352000D5FE25208DF8000003208DF801008DF8D0
:10353000020001208DF803006846FEF78DFA019421
:103540000020ADF80800ADF80A00ADF80C00ADF8A9
:1035500010000C20ADF80E0001A90848FFF700FB91
:10356000012240F225510548FFF7D4FA0121034812
:10357000FFF79AFA06B010BD00080140003801407C
:10358000C2780A44194BDA70827802EB21229A70D1
:1035900042785A7002781A701A469278B2EB212F4C
:1035A0000ADA1A465278521C5A701A4652781AB9D8
:1035B0001A461278521C1A700C4AD278CBB29A4230
:1035C00012DA0A4A9278521C084B9A701A4692787C
:1035D00052B91A465278521C5A701A4652781AB981
:1035E0001A461278521C1A7070470000AE00002074
:1035F00010B5044621460D4800680830FFF7C0FFAB
:103600000B48007809490968087209484178074859
:103610000068417206488178044800688172044855
:10362000C17802480068C17210BD0000A0000020EF
:10363000AE00002010B5354800882A2803D20020AB
:103640003249088010BD0020304908803048808A07
:10365000B0F5807F03D0B0F5007F54D141E02C4815
:10366000C08C2C49098888423AD12948008D2949C3
:103670004988884234D126491631881D00F04AF91C
:103680004FF40070224988820846D1F81620026261
:10369000498B818420490A68C0F8162089884183B3
:1036A0001D490A68C0F806208988418101460A6AD6
:1036B0000260898C8180808B1549C8840846C18B43
:1036C00001851448008812498883124841881048AF
:1036D000C1834FF4C1600E4988812A200B490880BC
:1036E00011E00B48C08C0B49098888420AD1084870
:1036F000008D08494988884204D105491631881D42
:1037000000F008F900BF00BF00BF9BE79800002051
:10371000A40D0020820000207C00002010B55B4832
:10372000C08B5B49098888420CD15848008C5849A5
:103730004988884206D1554856490A6802608988F6
:10374000818091E05148C08B534909880840534912
:103750000988514A1288114088420BD14B48008C8D
:103760004D49498808404D4949884B4A5288114083
:10377000884208D000BF4A4800884A490880484823
:103780004088488008E000BF4048C08B4549088019
:103790003E48008C488000BF00204349087016E076
:1037A0004148007800EB4000404901EB80043D486F
:1037B00000882188884205D13A484088618888423B
:1037C00000D108E038480078401C37490870364876
:1037D00000780828E4DB00BF3348007808283ED191
:1037E000FF2206212948FCF740FE284800210162FB
:1037F00081842F490A68C0F80620898841812C49B4
:103800000A68C0F816208988418300BF25480088CF
:103810001E49C884234841881C48018500BF00BF59
:103820001E480088194988831C4841881748C1836D
:1038300000BF4FF4807015498882C8810820088233
:10384000062088740420C8744FF4C160888101F197
:103850003600184908602A201749088010BD0B4817
:103860006168016021898180084811490A68C0F8AF
:103870000620898841810820044988810E480088F3
:103880000E300D49088000BFE8E70000A40D0020BD
:10389000044B0008FE4A00088A0000208200002035
:1038A00086000020B6000020BA000020D02D0020A5
:1038B0007C00002090000020980000201249097828
:1038C000491C114A11700021104A117017E00F496C
:1038D000097801EB41010E4A02EB81000188428820
:1038E000114307D0817A084A1278511A782901DBEE
:1038F0000021016005490978491C044A11700349F7
:1039000009780829E3DB7047BC000020BA000020DA
:10391000D02D002010B502460023424C23701FE03A
:10392000404B1B7803EB43033F4C04EB83000388BD
:103930008BB143887BB113880488A3420BD1538891
:103940004488A34207D10B6843608B880381374BBF
:103950001B78837210BD334B1B785B1C314C23707A
:10396000304B1B78082BDBDB00232E4C237010E040
:103970002C4B1B7803EB43032B4C04EB8300038895
:1039800013B9438803B908E0264B1B785B1C254C10
:103990002370244B1B78082BEADB00BF214B1B78DC
:1039A000082B34D10023224C2370224C23701D4C51
:1039B00023701DE01B4B1B7803EB43031A4C04EBF5
:1039C0008300837A194C2478E31A194C2478A34293
:1039D00009DD837A154C2478E31A154C2370114BBA
:1039E0001B78144C23700F4B1B785B1C0D4C237001
:1039F0000C4B1B78082BDDDB0E4B1B78094C23701E
:103A000023461B7803EB4303074C04EB8300136846
:103A100003600B6843608B880381044B1B788372BF
:103A200000BF97E7BA000020D02D0020BC00002086
:103A3000BD000020BB00002030B504460D4600BF8D
:103A40003D480088401C3C49088008460088B0F585
:103A5000FA4F02DB4FF4805008800020374908708D
:103A600015E03648007800EB8000354901EBC002D4
:103A7000507E38B130480088FFF7CCFA91888842F0
:103A800000D1DDE72D480078401C2C4908702B48F8
:103A900000780128E5DB002200202849087018E0A2
:103AA0002648007800EB8000254901EBC003587ED2
:103AB00008B91A4611E0587E072805D11AB1987E38
:103AC000917E884200DD1A461C480078401C1B4944
:103AD00008701A4800780128E2DB00BF0AB900200C
:103AE00030BD022050761748007810731548417891
:103AF000517381789173C178D17341F6CA70508245
:103B00009082012010820020D07601209076032040
:103B10001076002090751020D07507480088FFF7B8
:103B200079FA9080D58000BF20881080608850800E
:103B300000BF1046D4E70000AC000020B200002017
:103B4000A82D0020A80000200020164908700AE0D7
:103B500000201549134A127821F812001148007804
:103B6000401C104908700F4800780128F0DB002045
:103B70000C4908700DE000200A49097801EB810129
:103B80000A4A02EBC101487606480078401C054904
:103B90000870044800780128EDDB4FF48060044988
:103BA00008807047B2000020A4000020A82D00204B
:103BB000AC00002010B5142206490020FFF761F97F
:103BC000044614B94FF6FF7010BD2046FFF722FAE5
:103BD000FAE70000B20D002010B50446214602A00D
:103BE000FCF7FEFA10BD0000754950206C6F673A73
:103BF00025730D0A0000000010B53348007850B955
:103C000001203149087014213048FFF761FCC821B8
:103C10002F48FFF75DFCFFF703FB2E49088008469D
:103C20000088002824DD4FF40060FFF7F3F92A49EB
:103C3000898988420BD1012000F054F8254800887A
:103C400000283FDDFFF76AFDFFF7F4FA3AE040F69F
:103C50000600FFF7DFF920498989884232D1FFF752
:103C6000E9FC1C48008800282CDDFFF7E3FA29E076
:103C70001648FFF71BFC28B31448FFF724FC002468
:103C800015E000BF04EB8400144901EBC0001449A7
:103C90000860022000F026F800BF0E4800880028C7
:103CA00003DDFFF73BFDFFF7C5FA601CC4B2012C32
:103CB000E7DB0748FFF7FAFB20B10548FFF703FCF5
:103CC000FFF7FCFD10BD00001C0000200C000020D0
:103CD0001400002098000020A40D0020A82D002032
:103CE000A000002070B50546FD480468FD48FE4967
:103CF0000860FE490860032D0DD1607E00F00F00C2
:103D0000032807D1208A28B90820F9490870FFF74D
:103D100011FBE4E321E3022D70D1F648C078401C8A
:103D200010F0FF00F349C87011D108468078401C9C
:103D300010F0FF0088700AD108464078401C10F04F
:103D4000FF00487003D108460078401C087000202E
:103D5000E9490880E9490880607E072802D0607E32
:103D6000052808D1A07E401CA076A07E78285AD1D4
:103D70000020607657E0607E002854D0208A00281A
:103D800046D0A17E481EA07600294CD1E07E0828AE
:103D900008D0607E022802D0607E01280FD1E07E2C
:103DA00005280CD1002060768020D1490870FFF7EB
:103DB000C1FA1421CB48363880F82F10E9E3E07EB1
:103DC000042801DD042000E0E07E03218140A1768B
:103DD000E07E401CE076607E00F00F00092822D2D1
:103DE000DFE800F02105060D13211421150082E201
:103DF0000021BC48363880F82F1081E214E00420FE
:103E0000BB490870FFF796FAEFE300BF00BFEDE390
:103E1000607E00F00F00032805D10820B449087027
:103E2000FFF788FA75E775E7AE483638807B452896
:103E300000D06FE7AB483638417C007C01EB0020B6
:103E4000AD490988884208DCA6483638417C007CA8
:103E500001EB0020A849088000E05BE7A148363864
:103E6000007D10F03F0F03D19E483638407D00B1F1
:103E700050E7A3480088A3490988884205D1A04893
:103E80004088A049498888420ED096483638C08B71
:103E90009B490988884206D192483638008C984957
:103EA0004988884200D035E7FFF784FEA0F57F41BE
:103EB000FF3900D02EE78B483638C07D062800D168
:103EC0003CE088483638C07D012800D022E785488C
:103ED000363890F82200082800D01BE700218148DE
:103EE000363880F82210808C4FF6F771884208DB54
:103EF0007C483638808C093081B27A4836388184E3
:103F000007E078483638808C083081B275483638FA
:103F1000818400BF73483638418BC183818B018413
:103F200000BF00BF764801886E4836384183744828
:103F300041886C483638818300BFFDE300F0AEFD58
:103F4000A0F57F41FF3900D0E4E66F4C1BE0607EB6
:103F5000C0B164483638808CA188884212D161484B
:103F60003638408CE18888420CD15E483638408B28
:103F70002188884206D15B483638808B6188884228
:103F800000D1D9E1283460488442E0D95548363818
:103F900090F82F0000F03F00022800D01CE05148AC
:103FA0003638808C594908800020594908700EE045
:103FB00058485749097830F811005449098888420F
:103FC00000D1C1E052480078401C51490870504867
:103FD00000780128ECDB00BF4248363890F82F000B
:103FE00010F0040F00D095E614213E48363880F8D2
:103FF0002F1028204049088050213A48363880F850
:104000002E1090F82900424908703648363890F84A
:104010002D1080F829103E4801783248363880F853
:104020002D1090F828003A4908702E48363890F83C
:104030002C1080F82810364801782A48363880F845
:104040002C1090F82700324908702648363890F82E
:104050002B1080F827102E4801782248363880F837
:104060002B1090F826002A4908701E48363890F820
:104070002A1080F82610264801781A48363880F829
:104080002A1090F82D00401C10F0FF011548A0F1F7
:10409000360080F82D101DD190F82C00401C10F037
:1040A000FF011048A0F1360080F82C1012D190F8D2
:1040B0002B00401C10F0FF010A48A0F1360080F8E8
:1040C0002B1007D190F82A00401CC1B205483638A1
:1040D00080F82A1003483638408C0C4908801BE0D1
:1040E000A0000020DA0D00209000002094000020A5
:1040F0009C000020A8000020980000209A000020CA
:1041000082000020FA4A0008A82D0020B4000020F8
:10411000B2000020A4000020FD48818C4184FD48AD
:104120000188FB48818400BF418BC183818B01845E
:1041300000BF00BFF8480188F5484183F648418830
:10414000F348818300BFF7E300240020F34908709F
:1041500030E0F248007800EB8000F14901EBC0004C
:10416000407E30B9ED48007800EB800001EBC004E0
:1041700024E0EA48007800EB8000E94901EBC00048
:10418000407E072811D14CB1E448007800EB800054
:1041900001EBC000807EA17E884206DDDF4800780A
:1041A00000EB8000DE4901EBC004DC480078401CD5
:1041B000DA490870D94800780128CADB00BF04B981
:1041C000A8E5D84804600320A07620760020A075DA
:1041D0000420E0750020E076CD48808CA080CC489B
:1041E000408CE08000BFCA48408B2080C848808B4C
:1041F000608000BF01206076CB4800782073CA48F9
:10420000417861738178A173C178E17301202082C4
:10421000BF4890F82910E17290F82810A17290F828
:104220002710617290F8260020720120FFF7E0F954
:10423000B74890F82E0000F0F00050285ADD00201A
:10424000B64908704AE0B54800783630B049085C95
:10425000B64908700846007800B94AE0B3480078CB
:10426000012805D1AD480078401CAC49087035E004
:10427000AE480078022820D1A84800783730A449F9
:10428000085C042819D1A54800783930095CA34896
:10429000007838309E4A105C41EA00209D49088031
:1042A0000846008841F6CA71884201DD084601E0EF
:1042B000984800886082A0821BE0984800783730D8
:1042C0009349085C00B914E094480078373090496D
:1042D000085C924909780844904908708C4890F825
:1042E0002E000521C1EB20108C490978B1EB800F1D
:1042F000A9DB00BF00BF1021854880F82F1000BF48
:10430000834890F82F0040F00201814880F82F1078
:10431000022180F83610042180F837101F2180F820
:104320003810CA2180F839102C208149088060217A
:10433000774880F82E10F3E27A48046000207D4927
:104340000870734890F82F0010F0040F06D000207A
:10435000607620200870FEF7EDFF75E36C4890F85A
:104360002E00001180006D4908707148008809789E
:10437000401A14386E490880607E00F00F00022851
:1043800006D1634890F82F0000F03F00122822D099
:1043900067480088002805DC5D4890F82F0010F081
:1043A000030F18D05A4890F82600217A884211D17C
:1043B000574890F82710607A81420BD1544890F802
:1043C0002810A07A814205D1514890F82910E07A4E
:1043D000814200D096E24E4890F82F0010F0100F66
:1043E00053D0208AE8B3218A04F10C00FFF7C8F803
:1043F000474890F82A0050490978884245D14448F6
:1044000090F82B004C49497888423ED1404890F8BA
:104410002C0049498978884237D13D4890F82D00D1
:104420004549C978884230D14348007820734248D2
:10443000417861738178A173C178E173E07EE8B956
:10444000217EA27E891A48B2A17DA0EBE10148B28B
:10445000A17D0144A175002801DA414248B2E17D05
:1044600000E012E0A0EBA10148B2E17D0144E1755A
:10447000E17DA27D01EBE201217600BF01202D4903
:104480000870207EA07600202082607E00F00F0061
:1044900009287DD2DFE800F07C0525DCFEFDFCFB71
:1044A000FA002448007810F0010F19D0032060763C
:1044B000402020490870002020821D4800880028E4
:1044C00008DD0846007840F00200087018480088AF
:1044D000FFF78EF8002019490880FEF72BFF40E116
:1044E000B2E21448007810F0010F7CD0084890F830
:1044F0002F0000F03F00122875D1054890F82E00DB
:1045000000F0F00050287ADD00200449087065E0D2
:10451000A40D0020B400002082000020B200002082
:10452000A82D0020A0000020A8000020B30000203B
:10453000980000209C000020AE0000209A0000207F
:10454000FE4800783630FE49085CFE49087008468F
:10455000007800B952E0FB480078012805D1F748FF
:104560000078401CF549087038E0F64800780228C9
:1045700023D1F24800783730F149085C04281CD177
:10458000EE4800783930095CEC480078383001E0BA
:10459000B6E1BCE1EA4A105C41EA0020EA49088041
:1045A0000846008841F6CA71884201DD084601E0EC
:1045B000E54800886082A08220E0E048007837303B
:1045C000DF49085C00B919E0DC4800783730DC4985
:1045D000085CDA4909780844D8490870D84890F846
:1045E0002E00052103E029E009E0FAE061E0C1EBDB
:1045F0002010D2490978B1EB800FA1DB00BF032066
:104600006076CF4890F826002072CD4890F82710A9
:10461000617290F82810A17290F82910E1720120BF
:10462000FEF7E6FF4220C949087000202082C849F1
:104630000880C8490880FEF77DFE92E02020C3492B
:104640000870FEF777FE0020C34909684876C3E486
:10465000BB4890F82F0010F0010F2FD0607E10F0B3
:10466000100F2BD1208A00B1EEE1B9490988491C0D
:1046700088B2FEF7BDFFB548007840F01000B3499E
:104680000870B348008800280ADD04E0CBE02CE184
:104690002CE109E1D4E00846007840F002000870FF
:1046A000FEF748FE01202082082060760020E07698
:1046B00000BF1121A24880F82F1028E1A04890F8EF
:1046C0002F0010F0200F17D09D4890F8351090F86B
:1046D000340041EA0020A149096808449F49086064
:1046E000974890F8351090F8340041EA0020984936
:1046F0000988081A964908809548008800280DDD29
:10470000607E10F0100F09D19048007840F0020050
:104710008E4908708E480088FEF76AFF884890F836
:10472000311090F8300001EB002087490880A08A02
:104730000988884204DB00E082E18348008810B9E0
:10474000A08A814908808048008860827F4800787C
:1047500010F0030F66D000207E490880FEF7EAFDC6
:1047600000BF7A48007810F0200F08D00020794967
:10477000088060761421724880F82F10C7E07348D3
:10478000007810F0100F0DD0002072490880012031
:104790002082042060760020E0761121684880F8AD
:1047A0002F10B4E06B480088002817DD67480078B8
:1047B00010F0010F01D000202082208A58B9608AB1
:1047C00064490988884202DA608A6249088061483F
:1047D0000088208202E0208A5E4908800020E0767E
:1047E00000BF5F4800685D4908605A48008800289B
:1047F0000BDD208A002808DD208A283054490880F3
:1048000018214F4880F82F1085E05048007810F0AC
:10481000020F07D028204E4908801021484880F810
:104820002F1078E010E14948007810F0010F06D011
:1048300000206076102045490870FEF77BFD5FE0A0
:1048400043480088002803DD41480088FEF7D0FE79
:104850003B4890F82F0010F0010F15D03B4800782E
:1048600010F0010F05D0072060760020A07620828E
:1048700001E0062060760120FEF7BAFE10203349E1
:104880000870FEF757FD3DE03048007810F0010F4A
:1048900004D00520607600202082D5E02C480088D6
:1048A000002800DD2EE0CFE029480088002803DD45
:1048B00027480088FEF79CFE214890F82F0010F052
:1048C000010F0CD0072060760020A0760120FEF7B3
:1048D0008FFE10201D490870FEF72CFD12E01C48C9
:1048E0000088002800DD0DE0AEE00BE017480078FE
:1048F00010F0010F03D0072060760020A07600BFE3
:1049000000BFA1E010210E4880F82F1000BF282022
:104910000F49088000BF5021094880F82E1000BFC1
:10492000217A074880F82A10617A80F82B10A17A42
:1049300080F82C10E17A15E04BE00000B200002076
:10494000A40D0020B3000020B40000209C00002033
:10495000980000209A000020A00000209000002075
:104960009400002080F82D10217B80F82610617BB8
:1049700080F82710A17B80F82810E17B80F82910AF
:104980000621C175A1884184E188818400BF324835
:10499000018832484183304841883048818300BFD4
:1049A00000BF2188C1836188018400BF607E10F050
:1049B000100F06D00021294880F8311080F83010FF
:1049C00006E01F21254880F83010CA2180F83110F8
:1049D00000BF4021214881752148008801121F48ED
:1049E00001741F4801781D484174002180F835107A
:1049F00080F83410418600F051F8C04381B2174866
:104A0000418645201549887300211448C1734175BA
:104A1000017514480088401C124908800846008827
:104A200001120E4881740F4801780C48C1740021AE
:104A30000183FFF7BFF8C04381B20848018300BF7C
:104A400000200949087070BD00200549088006490A
:104A5000087000BFF7E7000082000020A40D0020CE
:104A600098000020A60000209C00002070B504469D
:104A70000D46002D0CDD07490D8007480068844273
:104A800006D008460288214603480068FBF7A8FCC8
:104A900070BD00009A0000209400002010B5062090
:104AA00000F002F810BD000070B504460F48417CCC
:104AB000007C01EB0020143885B2281986B2082248
:104AC0000A491A313046FEF7DCF906462A460749FC
:104AD00022313046FEF7D5F9064616B94FF6FF707B
:104AE00070BD3046FEF796FAFAE70000A40D0020EC
:104AF0003443101001344310100100000000FFFF88
:104B0000FFFFFFFFFFFFFFFF303132333435363711
:104B10003839414243444546403058003031323301
:104B20003435363738396162636465664030780001
:104B3000504B000800000020C000000028010008C1
:104B4000104C0008C0000020D033000044010008D1
:104B50000000000001000000000000000000000054
:104B60000000000000000000000000000000000045
:104B70000000000000000000000000000000000035
:104B800000127A000000000000000000010203048F
:104B900006070809000000000000000000000000F7
:104BA0000000000000000000000000000000000005
:104BB00000000000000000000000000001020304EB
:104BC00001020304060708090204060800000000A9
:104BD00000000000000000000000000000000000D5
:104BE00000000000000000000000000000000000C5
:104BF00000000000000000000000000000000000B5
:104C000000000000000000000000000000000000A4
:04000005080000ED02
:00000001FF
