:020000040800F2
:10000000303400209D010008271400086112000808
:10001000251400081D070008152600080000000030
:10002000000000000000000000000000D3210008D4
:100030007907000800000000F51A00085D2200089A
:10004000B7010008B7010008B7010008B7010008B0
:10005000B7010008B7010008B7010008B7010008A0
:10006000B7010008B7010008B7010008B701000890
:10007000B7010008B7010008B7010008B701000880
:10008000B7010008B7010008B7010008B701000870
:10009000B7010008B7010008B7010008B701000860
:1000A000B7010008B7010008B7010008B701000850
:1000B000B7010008A9220008B7010008B70100082D
:1000C000B7010008B7010008B7010008B701000830
:1000D000B701000871240008B7010008B701000843
:1000E000B7010008B7010008B701000800F002F8E6
:1000F00000F045F80AA090E8000C82448344AAF17D
:100100000107DA4501D100F03AF8AFF2090EBAE87A
:100110000F0013F0010F18BFFB1A43F0010318473B
:10012000243B0000443B0000103A24BF78C878C14B
:10013000FAD8520724BF30C830C144BF04680C60ED
:10014000704700000023002400250026103A28BF35
:1001500078C1FBD8520728BF30C148BF0B60704739
:10016000642900F0A780782900F0E080732900F06E
:100170001882002070471FB51FBD10B510BD00F0DC
:100180009DFA1146FFF7F7FF02F0B4FB00F0BBFA4F
:1001900003B4FFF7F2FF03BC02F008FB09488047F5
:1001A00009480047FEE7FEE7FEE7FEE7FEE7FEE759
:1001B000FEE7FEE7FEE7FEE704480549054A064B71
:1001C0007047000061220008ED000008302E00207A
:1001D00030340020303000203030002070470000E4
:1001E0000FB4044910B503AA029800F0DFF910BC5F
:1001F0005DF814FB640000202DE9F0410E46044632
:10020000002020622046E168884730B3252805D0C9
:10021000D4E901219047206A401CF2E7E1682046BA
:1002200000278847050018D0A5F14100192802D8F9
:1002300020354FF400673246294620462760FFF7F5
:100240008FFF40B1012804D0F61D26F007060836BE
:10025000D8E7361DD6E72846DAE7206ABDE8F08100
:1002600070B50C460546012A05D02878800600D5D1
:10027000EA69002302E0012305E05B1C934202D2FD
:10028000E05C0028F9D1A869E618C01AA861286ABC
:10029000184428622846AFF3008004E0D5E9012124
:1002A00014F8010B9047B442F8D32846AFF300800E
:1002B00070BD00002DE9F041064600241068752944
:1002C000314616A511D0AFF30080002803DAC0F143
:1002D000000013A507E031688A0701D511A502E0E7
:1002E000490704D510A5012401E0AFF300800021E7
:1002F0000A2306F1240707E0B0FBF3F203FB120028
:10030000303078541046491C0028F5D123462A463F
:100310003046BDE8F04100F0D6B800000000000013
:100320002D0000002B0000002000000070B50446E6
:100330000D4621461068AFF300802188090502D5DB
:10034000104A7A4402E00F4A7A440E32002104F146
:10035000240307E000F00F064FEA1010965D5E548C
:1003600001F101010028F5D103462078000704D5EA
:10037000702D02D009B1113202232046BDE8704031
:1003800000F0A1B8D438000040EA010310B59B0783
:100390000FD1042A0DD310C808C9121F9C42F8D0EF
:1003A00020BA19BA884201D9012010BD4FF0FF30A0
:1003B00010BD1AB1D30703D0521C07E0002010BDB6
:1003C00010F8013B11F8014B1B1B07D110F8013B42
:1003D00011F8014B1B1B01D1921EF1D1184610BD23
:1003E000032A40F2308010F0030C00F0158011F861
:1003F000013BBCF1020F624498BF11F801CB00F839
:10040000013B38BF11F8013BA2F1040298BF00F88C
:1004100001CB38BF00F8013B11F0030300F0D88096
:10042000083AC0F0088051F8043B083A51F804CB70
:10043000A0E80810F5E7121D5CBF51F8043B40F836
:10044000043BAFF30080D20724BF11F8013B11F841
:1004500001CB48BF11F8012B24BF00F8013B00F885
:1004600001CB48BF00F8012B704702F0FF0343EABD
:10047000032242EA024200F002B84FF000020429CF
:10048000C0F0128010F0030C00F0D680CCF1040C08
:10049000BCF1020F18BF00F8012BA8BF20F8022BF7
:1004A000A1EB0C0100F0C8B85FEAC17C24BF00F8E2
:1004B000012B00F8012B48BF00F8012B7047704753
:1004C0007047704770472DE9F0470D4699469246B0
:1004D000044600F124080168880604D5E06921F08B
:1004E0001001216000E00120A84202DDA0EB050719
:1004F00000E00027A16907EB050202EB0900A1EB70
:100500000000A0612078C00602D42046AFF300802E
:10051000002608E0D4E901211AF806009047206A75
:10052000401C761C20624E45F4DB2078C0060AD5BC
:100530002046AFF3008006E0D4E901213020904747
:10054000206A401C2062381EA7F10107F4DC07E096
:10055000D4E9012118F805009047206A401C206268
:10056000281EA5F10105F3DC2046AFF300802078BA
:10057000000602D50220BDE8F0870120FBE710B598
:10058000436913B1AFF3008001E0FFF769FE01207A
:1005900010BD127800F124010A7000224A70012275
:1005A000EDE711684FF0FF32E9E70000074B70B547
:1005B0000D467B4400F06BF80446284600F07AF8BC
:1005C00010B14FF0FF3070BD204670BDEB2200002F
:1005D00010B5203AC0F00B80B1E81850203AA0E8DE
:1005E0001850B1E81850A0E81850BFF4F5AF5FEA12
:1005F000027C24BFB1E81850A0E8185044BF18C9C5
:1006000018C0BDE810405FEA827C24BF51F8043B6B
:1006100040F8043B08BF7047D20728BF31F8023BBF
:1006200048BF11F8012B28BF20F8023B48BF00F853
:10063000012B70474FF0000200B5134694469646D2
:10064000203922BFA0E80C50A0E80C50B1F12001E5
:10065000BFF4F7AF090728BFA0E80C5048BF0CC093
:100660005DF804EB890028BF40F8042B08BF7047F1
:1006700048BF20F8022B11F0804F18BF00F8012B63
:100680007047000001694A1C02610878704700B594
:100690008FB0CDE901310021059105497944CDE9BB
:1006A000031011466846FFF7A7FD0FB000BD00001C
:1006B000E5FFFFFF007B00F080007047754600F00B
:1006C00029F8AE4605006946534620F007008546E6
:1006D00018B020B5FFF770FDBDE820404FF00006D0
:1006E0004FF000074FF000084FF0000B21F007011A
:1006F000AC46ACE8C009ACE8C009ACE8C009ACE85D
:10070000C0098D4670470446AFF300802046FFF7CE
:100710003FFD000000487047CC2D0020FEE710B5DB
:100720000021017141710A464FF4C87401604318F9
:10073000491C9A71A142FADB10BD0021017141717F
:100740000160704700B50B46024600F0BDFA08B1E3
:10075000002000BD1179901D085C187010794FF4CD
:10076000C871401CB0FBF1F301FB1300107110685D
:10077000401E1060012000BD7047000070B50546A6
:1007800086B0002401210C2001F0B4FA0220ADF85B
:1007900000004820854E8DF803006946304600F081
:1007A000E3FC0221304600F059FD1820ADF80000AE
:1007B00010208DF8030003207D4E8DF8020069465D
:1007C000304600F0D1FC1821304600F047FD01F022
:1007D00065FB00F015FAFF220021104600F060FAD8
:1007E000C82002F025F84FF4FA7604E0641CA4B2A5
:1007F000642002F01DF81D2000F0C2F9C00705D0EA
:10080000B44206D36BA0FFF7EBFCC7E0B442EDD3D4
:10081000F8E76E49002048600146082000F01CFA05
:100820000021092000F018FA00210C2000F014FA31
:1008300000210D2000F010FA10210A2000F00CFA1F
:100840001A210B2000F008FA1121042000F004FA0C
:100850001A21052000F000FAFF21062000F0FCF923
:100860001F21072000F0F8F9B021382000F0F4F93A
:100870003F21282000F0F0F93021292000F0ECF988
:10088000F921302000F0E8F9F721312000F0E4F9F7
:100890000D21C02000F0E0F90021C12000F0DCF9BA
:1008A0003322C221802000F0FBF91221C62000F083
:1008B000D3F90C21C72000F0CFF91521C42000F096
:1008C000CBF9EE21CA2000F0C7F90521CB2000F0BA
:1008D000C3F92978E42000F0BFF96978E52000F039
:1008E000BBF9A978E22000F0B7F9E978E32000F03D
:1008F000B3F92979E02000F0AFF96979E12000F03F
:10090000ABF94FF480742146002000F08DF82146A9
:10091000102000F089F81F2000F086F9C0221B216A
:10092000802000F0BDF904221F21802000F0B8F9DA
:10093000E42000F025F98DF80C00E52000F020F906
:100940008DF80D00E22000F01BF98DF80E00E32079
:1009500000F016F98DF80F00E02000F011F98DF885
:100960001000E12000F00CF98DF811000622294654
:1009700003A8FFF709FD00289DF80F009DF811203E
:100980009DF810108DE807009DF80E309DF80D20A1
:100990009DF80C1005D00EA0FFF722FC012006B038
:1009A00070BD16A0FFF71CFC0020F8E7000C01400A
:1009B00000080140454E4332384A3630B3F5CABCD0
:1009C000BBAFCAA7B0DC0D0A000000005400002035
:1009D0006D6163B5D8D6B7B2BBCFE0B5C8B6C1B309
:1009E000F6C0B4CEAAA3BA25643A25643A25643A7F
:1009F00025643A25643A25640D0A00006D6163CFD1
:100A0000E0B5C8A3ACB5D8D6B7B6C1B3F6C0B4CEBE
:100A1000AAA3BA25643A25643A25643A25643A259E
:100A2000643A25640D0A000070B50D4601460024A5
:100A3000D42000F011F9E9B2D62000F00DF9C5F389
:100A40000721D72000F008F940F6FF7501E0641C8B
:100A5000A4B2EA2000F094F8C00701D0AC42F6D36B
:100A6000BDE870400F2001F0FFBE00002DE9F0410D
:100A700006468846392000F083F800284AD0264DE3
:100A80000020297900F0E8F8A888C0F307210120A8
:100A900000F0E2F800213A2000F098F868600021A8
:100AA0003A2000F093F8696841EA0020686000216C
:100AB0003A2000F08BF8044600213A2000F086F836
:100AC00044EA0024241F00213A2000F07FF8074662
:100AD00000213A2000F07AF8711E47EA00208C428B
:100AE00000D90C46000601D4002403E0414620460C
:100AF00000F050F829790C2000F0AEF8A888C0F377
:100B000007210D2000F0A8F840221E21802000F0CF
:100B1000C7F82046BDE8F0815400002070B50E46AD
:100B200005461121022000F097F81A21032000F059
:100B300093F841F611202C18E1B2062000F08CF851
:100B4000C4F30721072000F087F8002211467A201D
:100B500000F0A6F83146284600F08AF808221F2146
:100B6000802000F09DF81C2000F00AF8800706D5D0
:100B7000BDE8704008221F21A02000F091B870BD90
:100B800010B5044600F050F82146BDE810400020A2
:100B900000F01CB82DE9F0410B4F00260C4605462D
:100BA000C7F890613A2001F0BDF905E06D1E002004
:100BB00001F0B8F904F8010B002DF7D126700120DF
:100BC000C7F89001BDE8F0810000214270B50B4DDF
:100BD0000C460021C5F8901104F01F01084301F0F4
:100BE000A1F9FF2001F09EF9210602D5FF2001F0B6
:100BF00099F90121C5F8901170BD00000000214253
:100C000070B5084C01252560C82001F011FE0020B8
:100C10002060C82001F00CFE2560BDE87040C820AF
:100C200001F006BE8C01214270B50A4E054600F067
:100C30006004307884420BD003221F21A02000F0F2
:100C40002FF8C5F341121F21802000F029F83470DD
:100C500070BD00005400002070B50C460546FFF73B
:100C6000E3FF22462946BDE87040402000F018B856
:100C700070B50A4E054600200C46C6F890017A2051
:100C800001F050F904E06D1E207801F04BF9641C6E
:100C9000002DF8D10120C6F8900170BD000021425E
:100CA00070B5084C034600201546206001F01F0077
:100CB000184301F037F9284601F034F9012020608B
:100CC00070BD00009001214201794079814201D13B
:100CD000012070470020704730B542794FF4C87347
:100CE0001446521CB2FBF3F503FB15220579AA4208
:100CF0000DD0821DA1544179491CB1FBF3F203FBD5
:100D0000121141710168491C0160012030BD0020B1
:100D100030BDF0B515460E460746002407E0315DAC
:100D20003846FFF7D9FF002804D0641CA4B2AC42B7
:100D3000F5D30120F0BD000000B599B0322269461C
:100D4000404801F0C4F94048BDF800100180BDF8EA
:100D50000210C9B24180BDF804100171BDF806103F
:100D60004171BDF808108171BDF80A10C171BDF85C
:100D70000C100172BDF80E104172BDF81010817296
:100D8000BDF81210C172BDF814100173BDF8161031
:100D90004173BDF818108173BDF81A108174BDF845
:100DA0001C104174BDF81E100174BDF82010C173F1
:100DB000BDF822108175BDF824104175BDF82610CC
:100DC0000175BDF82810C174BDF82A108176BDF8F0
:100DD0002C104176BDF82E100176BDF83010C1758B
:100DE000BDF832108177BDF834104177BDF8361068
:100DF0000177BDF83810C176BDF83A100184BDF80E
:100E00003C1080F82210BDF83E1080F82310BDF889
:100E1000401080F82410BDF8421080F82510BDF86D
:100E2000441080F82610BDF8461080F82710BDF851
:100E3000481080F82810BDF84A1080F8291019B021
:100E400000BD0000000001084C04002070B50546FC
:100E50004FF43026304600F06FF8042811D1094CC9
:100E6000206940F0020020616561206940F0400087
:100E70002061304600F060F8216941F6FD721140B2
:100E8000216170BD0020024008490420CA68D207D1
:100E900001D001207047CA68520701D5022070476F
:100EA000C968C906FBD50320704700000020024036
:100EB0000248016941F08001016170470020024051
:100EC00004490A6822F010020A600A6802430A60B4
:100ED0007047000000200240F0B506464FF400576E
:100EE0000D46384600F028F804280CD1064C20693D
:100EF00040F0010020613580384600F01DF821697E
:100F0000BA1E11402161F0BD00200240034A116861
:100F100001F03801014311607047000000200240D9
:100F20000348024941600349416070472301674516
:100F300000200240AB89EFCD00B50346FFF7A4FFC8
:100F400002E0FFF7A1FF5B1E012803D0002B00D1B8
:100F5000052000BD002BF4D1FAE7000008B50122FE
:100F60006946074801F0B3F8BDF80000012801D038
:100F700001F052FBFFF7E0FE00F0BEFD08BD0000EF
:100F80000000010810B590212048FFF7A5FE204C75
:100F900034F8060C010A1D48FFF79EFE14F8061CE3
:100FA0001A48FFF799FE9E211848FFF795FE022187
:100FB0001648FFF791FEA17E1448FFF78DFEE17EF3
:100FC0001248FFF789FE217F1048FFF785FE617FF9
:100FD0000E48FFF781FEA17F0C48FFF77DFEE17F01
:100FE0000A48FFF779FEFE210848FFF775FEFC214D
:100FF0000648FFF771FEFE210448FFF76DFEBDE8CD
:101000001040FC210148FFF767BE00005802002095
:101010005404002010B590213A48FFF75DFE3A4C89
:101020006088010A3748FFF757FEA1783548FFF777
:1010300053FEFA213348FFF74FFE02213148FFF7F4
:101040004BFEA17D2F48FFF747FE617D2D48FFF73E
:1010500043FE217D2B48FFF73FFEE17C2948FFF747
:101060003BFEA17C2748FFF737FE617C2548FFF750
:1010700033FE217C2348FFF72FFEE17B2148FFF759
:101080002BFE208C010A1F48FFF726FE94F8201043
:101090001C48FFF721FEA17E1A48FFF71DFE617E66
:1010A0001848FFF719FE217E1648FFF715FEE17D6F
:1010B0001448FFF711FEA17F1248FFF70DFE617F74
:1010C0001048FFF709FE217F0E48FFF705FEE17E7D
:1010D0000C48FFF701FE94F829100A48FFF7FCFDC1
:1010E000FE210848FFF7F8FDFC210648FFF7F4FD54
:1010F000FE210448FFF7F0FDBDE81040FC21014847
:10110000FFF7EABD580200204C04002010B59021E2
:101110001348FFF7E1FD134C6088010A1048FFF700
:10112000DBFDA1780E48FFF7D7FDA0210C48FFF7A3
:10113000D3FD02210A48FFF7CFFDFE210848FFF743
:10114000CBFDFC210648FFF7C7FDFE210448FFF751
:10115000C3FDBDE81040FC210148FFF7BDBD000004
:10116000580200204C040020F0B5CC78002204F096
:101170000F03E40601D58C7823430C784FF00F0C55
:101180004FF0010EDCB105680E880EFA02F426401D
:10119000A64210D196000CFA06F725EA070703FAD3
:1011A00006F5CE783D43282E02D0482E02D002E02C
:1011B000446100E00461521C082AE5D305600A88F6
:1011C000FF2A1CD94468002202F108060EFA06F52F
:1011D0000E882E40AE420ED196000CFA06F7BC43A4
:1011E00003FA06F7CE783C43282E00D14561CE782D
:1011F000482E00D10561521C082AE5D34460F0BD99
:10120000F0B5144C002801DAE36900E06368450D8D
:101210002E0185B2C0F30157B540C0F30342032F3E
:1012200005D0C6020AD503269640B34307E023F053
:101230007062636823F07063636002E0AB4343F065
:10124000706201B12A43002801DAE261F0BD6260F8
:10125000F0BD00000000014041617047016170472E
:101260004FF4FA7404A0FEF7BBFF204601F0E0FA49
:1012700000F0E0FFF6E70000486172644661756CBB
:10128000745F48616E646C65720D0A0002494CF629
:10129000CC400860704700000030004000F014B8F7
:1012A00070B504460D4645F2555000F021F8204631
:1012B00000F012F8284600F015F800F005F8BDE837
:1012C0007040FFF7E3BF000002494AF6AA20086019
:1012D000704700000030004001494860704700003E
:1012E0000030004001498860704700000030004035
:1012F000014908607047000000300040074801883D
:10130000002908D1322101800549D1F8B40118B172
:101310000020C1F8B40170470120FAE74C0000201A
:1013200000002242F8B50121182000F0E3FC4FF440
:101330006044ADF8004010208DF803000E4E0325E8
:101340008DF8025069463046FFF70EFF21463046C1
:10135000FFF784FF8020ADF8000048208DF80300DF
:10136000064C8DF8025069462046FFF7FDFE8021AD
:101370002046FFF773FFF8BD00100140000C01404C
:1013800070B51D4C4FF47A750BE01CA0FEF728FFDA
:10139000284601F04DFAD4F8B40158B30021C4F83E
:1013A000B41101F075FB0028EFD101F039FF1948A5
:1013B00041880A0242EA112201880B0243EA112104
:1013C000154B1A805980C1880A0242EA112281888D
:1013D0000B0243EA1121114B1A805980418900897F
:1013E0000A0242EA1121020242EA10200C4A11804C
:1013F000508070BD0121D2E700002242454E4332A9
:10140000384A363020496E6974204572726F7221F5
:101410000D0A00005F04002094000020AC000020B2
:10142000B0000020FEE770471CB50FA00522D0E9F0
:101430000010CDE900106946302000F03FF9052288
:101440006946102000F09EF8002069460A5CA52A33
:1014500003D1401CC0B20528F8D3052801D00120D3
:101460001CBD00201CBD0000A5A5A5A5A500000071
:10147000F8B501210C2000F03DFC4FF48054ADF88C
:10148000004010258DF803500320254E8DF80200F2
:1014900069463046FFF768FE21463046FFF7DEFE1C
:1014A0002411ADF800408DF803501E4D69462846C2
:1014B000FFF75AFE21462846FFF7D0FEE400ADF8BC
:1014C000004028228DF8032069462846FFF74CFE8D
:1014D00021462846FFF7C0FE00F04CFD12490020CF
:1014E000086012490120C1F8B001642001F0A0F9A0
:1014F0000F4C08E0C82001F09BF9D4F8B40160B1AA
:101500000020C4F8B401FFF78FFF0028F2D109488A
:1015100090F8290000F010F8F8BD0120F1E7000074
:10152000000C014000080140A0012142008021423E
:10153000000022424C04002070B5104C00220546E9
:10154000226005220E492A2000F0B8F8012122204D
:1015500000F0D2F82946252000F0CEF816213120DF
:1015600000F0CAF80F21262000F0C6F80F21202035
:1015700000F0C2F80120206070BD0000A0012142EF
:10158000D43B00082DE9F0410C4F0E4600211546D2
:10159000C7F8B01100F034FD8046002405E0FF20BC
:1015A00000F02EFD3055641CE4B2AC42F7D30120AC
:1015B000C7F8B0014046BDE8F0810000008021423C
:1015C00010B5054C0021216000F01AFDFF2000F04D
:1015D00017FD0121216010BDB081214270B5064682
:1015E00000250720FFF7ECFF0446400605D516222C
:1015F00031466120FFF7C6FF00E00125FF21E22010
:1016000000F07AF8FF21E12000F076F8214627204B
:1016100000F072F8284670BD70B5124C00220546E5
:10162000226005221049302000F048F801212220D4
:1016300000F062F80021242000F05EF82946252001
:1016400000F05AF81621312000F056F80F2126201C
:1016500000F052F80E21202000F04EF8012020600A
:1016600070BD0000A0012142CF3B000870B5124CB4
:1016700000250146C4F8A0511622A02000F01EF853
:101680000120C4F8A001D4F82C010028FBD10720C8
:10169000FFF796FF0446800600D52025FF21E220B3
:1016A00000F02AF8FF21E12000F026F8214627204B
:1016B00000F022F8284670BD000021422DE9F041DB
:1016C0000C4F0D4600211646C7F8B01100F098FCEB
:1016D0008046002405E015F8010B00F091FC641C25
:1016E000E4B2B442F7D30120C7F8B0014046BDE8E8
:1016F000F08100000080214270B50D46074C014684
:1017000000202060084600F07BFC0646284600F0DA
:1017100077FC01202060304670BD0000B08121427E
:101720004FF4A06000F032B870B50F23C278017892
:1017300001244FF0E025DAB1124A126802F4E062A7
:10174000C2F5E062120AC2F10406D3404278B24008
:1017500086781E400C4B16433201CA54007800F0C4
:101760001F018C40400905EB8000C0F8004170BDAE
:1017700001F01F008440480905EB8000C0F880415B
:1017800070BD00000CED00E000E400E002490843F9
:1017900002490860704700000000FA050CED00E007
:1017A0002DE9F05F8E488F4928220568A1F54C701D
:1017B0001C3501F013F9DFF83492DFF82CB2A9F1EF
:1017C000200610F0FF0A4FF496774FF00004A6F1C0
:1017D00004083AD086A0FEF703FD5146814801F087
:1017E00041F980488178427801EB0221C2788BB2BE
:1017F00000F15C01E92A57D006DC9D2A7ED09E2AA2
:1018000074D09F2A06D195E0F92A67D0FB2A1DD013
:10181000FC2A09D0CAF116015044FEF72EFE734986
:101820000120183948708FE0A9F80470747088F8A6
:1018300000404A889A4208D14279007902EB0020A0
:10184000488070E06F49C1F800B07EE088F8004041
:10185000A9F8047074704A889A4276D102798A7520
:1018600042794A7582790A75C279CA74027A8A7491
:10187000427A4A74827A0A74C27ACA73427B037BC0
:1018800002EB03220A84827B8A76C27B4A76027C40
:101890000A76427CCA75827C8A77C27C4A77027D4E
:1018A0000A77407DC8763EE088F80040A9F80470C9
:1018B00074704A889A4248D140797D2802D281F8D2
:1018C000290002E050A0FEF78BFC00F0E7FEFFF7D6
:1018D00033FA00F011F9FFF79DFB36E088F800407D
:1018E000A9F804707470ADE708E0FFE788F80040DD
:1018F000A9F804707470FFF745FB26E088F80040F3
:10190000A9F8047074704A889A421ED1427901F88D
:10191000222F82794A70C2798A70027ACA70427A1A
:101920000A71807A487100F0B9FEFFF705FA00F0FD
:10193000E3F887E788F80040A9F80470B07818B990
:101940000120B070FFF766FB747034480078000621
:101950002CD5244928223431A1F5E67001F03EF857
:1019600010F0FF0A0ED01F4E3436307902281DD1F8
:101970002BA0FEF735FC5146304601F073F8C5E95F
:10198000016A13E0B9F8041081B9A9F804707078FD
:10199000401CC0B27070032806D9204874700178CA
:1019A00021F08001017001E0FFF7B0FB1B48B8F89F
:1019B00002104646007800F0800008430DD1AC606C
:1019C0002C7001F04DF977803078401CC0B2307037
:1019D000032802D90B49C1F800B0BDE8F09F000010
:1019E000A0000020F00300200400FA0524000020DD
:1019F000B7FECEF1C6F72D2D2D2D2D3ECDF8B9D841
:101A0000A3BA00000CED00E0C6B5B5C0BAC5B3ACD2
:101A1000B3F6CFDED6C60D0A00000000BC000020E1
:101A2000CDF8B9D82D2D2D2D2D3EB7FECEF1C6F710
:101A30003E3E000070B52B492B4E2C4C4A7896F850
:101A4000290086B0012572B300224A70FFF774FDA9
:101A50006846FFF7C3FD88B9D4F8BC0138B100204F
:101A6000C4F8BC019DF80400022802D006E0012061
:101A7000F6E7162269461E48FFF74BF996F829004B
:101A8000FFF7CAFD18485C380571FFF7EFFD202805
:101A900005D1D4F8B80120B10020C4F8B80106B0CF
:101AA00070BD0120F9E7FFE70A79002AF7D10D712F
:101AB000FFF742FD6846FFF791FD0028EFD1D4F80B
:101AC000BC0160B10020C4F8BC019DF804000228EC
:101AD000E5D1162269460648FFF71BF9DFE701202A
:101AE000F1E700000C0000204C040020000022421E
:101AF00058020020704700003EB529A0FEF770FB99
:101B0000344C35A02188FEF76BFB618836A0FEF7C8
:101B100067FB217938A0FEF763FB3CA0FEF760FB72
:101B20002179601D00F09EFF14F80F0F009063787C
:101B3000A278E17839A0FEF753FB20790090637911
:101B4000A279E1793CA0FEF74BFB207A0090637A02
:101B5000A27AE17A3FA0FEF743FB207B0090637BF3
:101B6000A27BE17B41A0FEF73BFBB4F8111045A03E
:101B7000FEF736FBA07D227EE17D8DE80700637DC8
:101B8000227DE17C43A0FEF72BFB617E4AA0FEF79D
:101B900027FBA17E03B04CA0BDE83040FEF720BB80
:101BA000B6C1C8A1CFB5CDB3B2CECAFD2D2D2D2D56
:101BB0002D2D2D2D2D2D2D2D2D2D2D2D2D2D2D2D55
:101BC0002D2D2D2D2D2D2D2D2D2D2D2D2D3A0D0A7B
:101BD000000000004C040020CFB5CDB3B1EAD6BE62
:101BE000A3BA25640D0A0000CDF8B9D84944A3BAB8
:101BF00025640D0A00000000D7D3BFA8CDB7B8F602
:101C0000CAFDA3BA25640D0A00000000D7D3BFA8FF
:101C1000CDB7C1D0B1EDA3BA00000000B7FECEF140
:101C2000C6F76970B5D8D6B7A3BA25642E25642E39
:101C300025642E25640D0A00B1BEBBFA6970B5D8C3
:101C4000D6B7A3BA25642E25642E25642E25640DEF
:101C50000A000000C4ACC8CFCDF8B9D8A3BA256437
:101C60002E25642E25642E25640D0A00D7D3CDF8C9
:101C7000D1DAC2EBA3BA25642E25642E25642E2565
:101C8000640D0A00B6CBBFDABAC5A3BA25640D0A43
:101C900000000000B1BEBBFA6D6163B5D8D6B7CE07
:101CA000AAA3BA25643A25643A25643A25643A25FC
:101CB000643A25640D0A0000B6C1CDB7C6B5B5C0FB
:101CC000A3BA25640D0A0000CDF8B9D8C6B5B5C0D1
:101CD000A3BA25640D0A000000687047044A002971
:101CE000D16901D0014300E08143D1617047000018
:101CF00000100240044A0029916901D0014300E02C
:101D00008143916170470000001002400C48016857
:101D100041F00101016041680A4A114041600168D7
:101D2000094A11400160016821F480210160416885
:101D300021F4FE0141604FF41F01816070470000F3
:101D4000001002400000FFF8FFFFF6FE30B5204A09
:101D50005168204B11F00C0103D0042901D008294F
:101D600001D0036012E05168536801F470114FF024
:101D7000020413F4803F04EB914102D053689B03AB
:101D800001D5154B00E0134B5943016051680F23F7
:101D900003EA1111114B5C5C0168E1404160546839
:101DA000072505EA14241C5D21FA04F484605468B4
:101DB00005EAD4241B5DD940C1605268032303EABD
:101DC0009232064B1B1F9A5CB1FBF2F1016130BDF0
:101DD0000010024000127A0000093D006C00002053
:101DE000034600205909094A01290AD002290AD0CC
:101DF000516A03F01F02012393400B4200D00120DF
:101E000070471168F5E7116AF3E70000001002401F
:101E10000248406800F00C007047000000100240CB
:101E2000034A516821F0F0010143516070470000FE
:101E30000010024001490860704700000000424263
:101E4000034A516821F4E06101435160704700008A
:101E500000100240034A516821F4605141EAC00079
:101E6000506070470010024001490866704700004A
:101E700000004242034B5A68084322F47C1210438C
:101E80005860704700100240034A516821F0030176
:101E900001435160704700000010024010B586B049
:101EA00001210420FFF726FF01210803FFF722FF8D
:101EB000E020ADF8140018208DF817000320174C0F
:101EC0008DF8160005A92046FFF74EF9E0212046BF
:101ED000FFF7C4F90020ADF800004FF48271ADF8AF
:101EE00002106115ADF80800ADF80A100821ADF830
:101EF0000C10ADF80400ADF80600ADF80E00072098
:101F0000074CADF810006946204600F0C4F80121E6
:101F1000204600F0ABF806B010BD000000080140FC
:101F20000030014070B506460024114D03E0641CEA
:101F3000E4B2C82C0FD80221284600F0A1F80028EE
:101F4000F5D03146284600F0A4F8002405E0641CD2
:101F5000E4B2C82C01D9002070BD0121284600F050
:101F60008FF80028F3D0284600F091F8C0B270BD79
:101F70000030014070B586B001210820FFF7BAFE9D
:101F800001218803FFF7AAFE4FF46045ADF8145015
:101F900018248DF817400320174E8DF8160005A958
:101FA0003046FFF7E1F829463046FFF757F90020A1
:101FB000ADF80000ADF80800ADF80C404FF48271A8
:101FC000ADF80400ADF80210ADF80600ADF80E0053
:101FD00071150720094CADF80A10ADF810006946DC
:101FE000204600F058F8102000F032F80121204679
:101FF00000F03CF806B070BD000C01400038004015
:1020000070B506460024114D03E0641CE4B2C82CF0
:102010000FD80221284600F033F80028F5D03146C9
:10202000284600F036F8002405E0641CE4B2C82C11
:1020300001D9002070BD0121284600F021F80028B8
:10204000F3D0284600F023F8C0B270BD003800403D
:1020500001460548028822F03802028002880A43BD
:102060000280012100F002B80038004000290188F8
:1020700002D041F0400101E021F0400101807047B1
:102080000246002012890A4200D001207047808950
:1020900070478181704730B502884C8802F4415303
:1020A0000A88CD8822438C882C4322430C89224302
:1020B0004C8922438C892243CC8922431A430280D3
:1020C000828B22F400628283098A018230BD10B5BE
:1020D000002305E030F8024B21F813405B1C9BB253
:1020E0009342F7D310BD00002DE9F05F88462D49DB
:1020F000154644188246B4F5002F50D2FEF710FF63
:10210000E70AC4F34906C6F58064A54200D82C4608
:10211000DFF894B023484FF48062404200EBC720C0
:1021200081462149FFF7D3FF00204FF6FF7206E0FA
:1021300033183BF81310914203D1401C80B2A042E7
:10214000F6D3A04223D24846FEF780FE00205A462E
:1021500006E038F810108319401C22F8131080B2E2
:10216000A042F6D348464FF480620F4900F01EF8B3
:10217000A54210D0281B08EB4408A2447F1C00266F
:1021800085B24FF48064A542C4D82C46C2E72246EB
:1021900041465046EAE7BDE8F05FFEF789BEBDE87C
:1021A000F09F00000000FFF7760400202DE9F041C9
:1021B00016460F460546002407E037F81410284657
:1021C000FEF78AFEAD1C641CA4B2B442F5D3BDE890
:1021D000F081704710B5FFF799FD0120FFF72AFE47
:1021E0002120FFF7FDFD0028FAD00020FFF718FEA0
:1021F0000020FFF72FFE4FF48060FFF721FE022042
:10220000FEF784FE1020FEF75BFE4FF46011002005
:10221000FFF730FE0120FFF727FE3920FFF7E0FD32
:102220000028FAD00220FFF72FFEFFF7F1FD082863
:10223000FBD110BD02490148086070470400FA054F
:102240000CED00E04FF0E0210428086903D020F0F5
:1022500004000861704740F00400FAE7704700008E
:102260000D48016841F00101016041680B4A1140CD
:10227000416001680A4A11400160016821F480212F
:102280000160416821F4FE0141604FF41F0181604B
:102290000449C00308607047001002400000FFF8C6
:1022A000FFFFF6FE08ED00E010B51A4C01212046B4
:1022B00000F07BF840B318480168491C01601748DA
:1022C000017809B1491E0170154AD18809B1491E2A
:1022D000D180116811B1491E116002E04FF0FF304A
:1022E00010601049087908B1401E0871908808B143
:1022F000401E90800C49088808B1401E08800B4998
:10230000088808B1401E08802046BDE81040012121
:1023100000F03EB800040040500000202C000020D7
:10232000240000200C0000204C00002002000020AF
:102330007FB50D46044601210220FFF7CFFCADF822
:1023400004400020ADF80050104CADF80600ADF888
:1023500002006946204600F03DF801224121204656
:1023600000F02FF80121204600F015F81D208DF80F
:102370000C0001208DF80D0002218DF80E108DF853
:102380000F0003A8FFF7D0F97FBD00000004004054
:10239000C943018270470029018802D041F0010140
:1023A00001E021F001010180704702460020138AFC
:1023B00092890B4202EA010202D0002A00D00120D9
:1023C0007047002A828901D00A4300E08A43828153
:1023D0007047000030B502881B4C1C4DA0420DD048
:1023E000A8420BD0B0F1804F08D0194B984205D0CD
:1023F000184B984202D0184B984203D122F0700338
:102400004A881A43154B984206D0154B984203D080
:1024100022F44073CA881A4302808A8882850A8817
:102420000285A0420AD0A84208D00E4A904205D0A8
:102430000D4A904202D00D4A904201D1097A01869C
:102440000121818230BD0000002C01400034014098
:102450000004004000080040000C00400010004054
:102460000014004000400140004401400048014089
:1024700070B5154C40F22551204600F035F8002883
:102480000ED0204600F0C2F8104AC1B210880304F2
:1024900006D444044FF0000306D50A2901D0138066
:1024A00070BD40F400400DE00D2909D0C0F30D04CB
:1024B000074D401C80B229551080C728EFD870BD49
:1024C00040F48040108070BD003801406000002062
:1024D000760C00200029818902D041F4005101E0EE
:1024E00021F400518181704770B501F01F0501266C
:1024F0000024C1F3421306FA05F2012B0FD0022B80
:102500000FD0838A4FEA11210088134206FA01F6A0
:1025100000EA060001D000B10124204670BD838985
:10252000F0E7038AEEE710B5C1F3421301F01F0490
:102530000121A140012B07D0022B07D01430002A23
:10254000026805D00A4304E00C30F8E71030F6E7E3
:102550008A43026010BD000030B50446008A85B091
:102560000D464CF6FF710840E98801432182A0899D
:102570004EF6F3110840A9882A8911436A8902435B
:102580001143A181A08A4FF6FF410840A989014368
:10259000A1826846FFF7DAFB1B48844201D1039809
:1025A00000E00298A1890904002900EBC00101EBB9
:1025B0000010296802DA4FEA410101E04FEA810187
:1025C000B0FBF1F06422B0FBF2F14FEA01114FEAE7
:1025D00011136FF018056B4300EB8300A3891D04F2
:1025E0004FF0320306D503EBC000B0FBF2F000F071
:1025F000070005E003EB0010B0FBF2F000F00F0065
:102600000843208105B030BD003801408088C0F308
:1026100008007047FEE700001F4830B40123038024
:1026200002214180037100218A1D4418491C6271F6
:102630000279C9B28A42F7D80F30C021C170A822EE
:1026400082704370FA240470C17182714371FE2458
:102650000471C172827243720372FF21C17381736C
:10266000417300210C4A017342F2B821343AA0F8B8
:1026700011101168C1740B0A03750B0C4375090E18
:1026800081759188C175090A017664214176817648
:1026900030BC00F003B800004C04002000B54148F5
:1026A00099B00188ADF800104188ADF802100179A9
:1026B000ADF804104179ADF806108179ADF8081035
:1026C000C179ADF80A10017AADF80C10417AADF875
:1026D0000E10817AADF81010C17AADF81210017B9E
:1026E000ADF81410417BADF81610817BADF81810D1
:1026F000817CADF81A10417CADF81C10017CADF85E
:102700001E10C17BADF82010817DADF82210417DF7
:10271000ADF82410017DADF82610C17CADF828106D
:10272000817EADF82A10417EADF82C10017EADF807
:102730002E10C17DADF83010817FADF83210417F91
:10274000ADF83410017FADF83610C17EADF8381009
:10275000018CADF83A1090F82210ADF83C1090F8CA
:102760002310ADF83E1090F82410ADF8401090F80A
:102770002510ADF8421090F82610ADF8441090F8EE
:102780002710ADF8461090F82810ADF8481090F8D2
:102790002900ADF84A00322269460348FFF7A4FC3D
:1027A00019B000BD4C04002000000108704710B5AE
:1027B0008B185B1E0BE04A780C7802EB042292B275
:1027C000104480B2904201D2401C80B2891C9942D0
:1027D000F1D3994207D109780902084480B28842AE
:1027E00001D2401C80B210BD014800687047000053
:1027F0005000002010B56FF00400FFF723FD0948DA
:1028000009490068B0FBF1F00849C0B200EB400292
:102810000870C2EBC0104FF6FF7202EAC000488099
:1028200010BD00003000002000127A005C00002083
:1028300070B50C494FF0E02549884843686100268F
:10284000AE61286940F0010028612C69FEF726FD81
:10285000E00701D0E003F8D5286920F001002861E5
:10286000AE6170BD5C00002070B50C494FF0E025F2
:102870000978484368610026AE61286940F001008C
:1028800028612C69FEF70AFDE00701D0E003F8D5C6
:10289000286920F001002861AE6170BD5C00002055
:1028A00004490A885206FCD5024AC1B2121D1180A1
:1028B000704700000038014008480068084B07498D
:1028C000091D98600968054A596008321268084372
:1028D0000449104340081A6088607047E8F7FF1FFA
:1028E0001804002000000020010241EA102080B2FC
:1028F00070470000FFF76EFCFEF712FFFFF77AFF4C
:1029000001210846FFF7F6F901212D48FEF778FC72
:10291000FFF7D2FF4FF4E13000F000FAFEF71EFBA4
:10292000FEF700FDFEF7A4FDFEF72AFD2549264C23
:10293000C8204880D4F81C0138B90A20FFF778FF76
:10294000D4F81C0108B9FFF767FE40F27F214FF46D
:102950007A70FFF7EDFC1D48FDF7EFFE1C48FDF710
:10296000ECFE1A48FDF7DBFE1948FDF7D8FE1948C2
:1029700032214088B0FBF1F201FB1200FFF758FF53
:1029800040F271210420FEF78BFC0E4E124D361DD5
:102990000A2706F12004FEF7B1FC2878000603D5CB
:1029A000B07808B1FFF746F800F074FCFEF7F8FEC7
:1029B000E0880028EFD1FEF771FCE780EBE700002C
:1029C000000230000000002000802142C0000020F2
:1029D000580200204C040020BC0000202DE9F84FD4
:1029E00000261746884682468DF80060FFF774F986
:1029F0000446184DDFF8609027E069465046FDF721
:102A0000A1FE686818B99DF8001090291FD1B8423E
:102A100012D29DF8002008F80020401C68609DF844
:102A20000000296840EA0120286048450DD1686807
:102A30002E606E60BDE8F88F6E6050462E60FDF728
:102A40006EFE06A0FDF7CCFB01E0002CD5D10020E6
:102A5000F0E7000044000020FCFEFCFED6A1D2E717
:102A6000B3F6000070B50D460646002405E0315D62
:102A70000648FDF7B5FB641CE4B2AC42F7D3BDE8F1
:102A800070400248001DFDF7ABBB0000C83B0008CA
:102A900010B50B48FDF772FE0446094A00210948AB
:102AA000223A531893F822304354491CC9B20629DC
:102AB000F7D340F276411420FDF7B6FF204610BD53
:102AC0006E0400207C00002010B5034940F2EE5057
:102AD000FDF7CCFF80B210BD400D00200348024935
:102AE0000088FEF71BB80000400D00208800002081
:102AF000094810B5017821F08001017007490020D4
:102B000088700748FDF70BFE0648FDF708FEBDE894
:102B1000104005A000F0B8BBBC000020040000205D
:102B2000C0000020580200207463705F636C696508
:102B30006E742061626F72746564210D0A0000007A
:102B40000348002100684162024800F09DBB00007C
:102B5000A0000020F03B0008094810B5017821F0E2
:102B6000800101700748FDF7DAFD0748FDF7D7FD42
:102B7000064900208870BDE8104005A000F084BB25
:102B8000BC000020C00000205802002004000020EB
:102B90007463705F636C69656E7420636C6F7365DA
:102BA00064210D0A00000000064810B504680648BC
:102BB000017841F08001017004A000F065FB002065
:102BC000207710BDA0000020BC0000207463705F5F
:102BD000636C69656E7420636F6E6E6563746564A3
:102BE000210D0A0010B51A4C2078800601D5FFF798
:102BF0007FFF2078000601D500F064F82078C00639
:102C000001D5FFF7A9FF2078400601D5FFF7CCFFDB
:102C10002078C00701D0FFF793FF2078800707D501
:102C20000C48028822B10C4801680C48FEF771F884
:102C30002078C0F3410151EAC07103D1410601D4AB
:102C4000000703D5BDE8104000F030B810BD00000B
:102C5000840000208800002098000020C000002090
:102C60000D4908B5B1F81100020242EA1020ADF892
:102C70000000B1F80F00020242EA1020ADF8020095
:102C8000088CFFF731FE0146684600F05BFA03A0AE
:102C900000F0FAFA08BD00004C040020D6D8C1AC00
:102CA000B7FECEF1C6F70D0A000000000448006828
:102CB0001C308168002902DD406800F057BF704772
:102CC000A00000200548017821F08001017004492E
:102CD00000208870034800F0D7BA0000BC00002034
:102CE00004000020043C000810B50446FFF77CFDFA
:102CF0002168401A6168884201DB012010BD002074
:102D000010BDD0E9001211440160704710B50446AF
:102D10004160FFF769FD206010BD000070B50546F9
:102D200086B0012144F20500FEF7E4FF4FF4007085
:102D3000ADF8100003248DF8124018201D4E8DF8B8
:102D4000130004A93046FEF70FFA3015ADF8100055
:102D500004208DF8130004A93046FEF705FA25205B
:102D60008DF814008DF815408DF8164001208DF86F
:102D7000170005A8FEF7D8FC0020ADF80400ADF858
:102D80000600ADF80800ADF80C000C200A4CADF8B8
:102D90000A00009569462046FFF7DEFB012240F25B
:102DA00025512046FFF7BFFB01212046FFF792FB8C
:102DB00006B070BD000801400038014030B5C2784F
:102DC000144D0A44D4B2EC70827802EB1122D2B2D4
:102DD000AA7043786B7000782870B2EB112F06D27E
:102DE0005B1C13F0FF036B7001D1401C2870C8B24C
:102DF00084420DD2521C12F0FF00A87008D16878EE
:102E0000401C10F0FF00687002D12878401C287028
:102E100030BD0000A800002010B5094C0146E06953
:102E20000830FFF7CBFF04F12401E0690A78027251
:102E30004A7842728A788272C978C17210BD0000E5
:102E4000840000202DE9F047244D002029882A29FC
:102E500002D22880BDE8F087214C28802246214EEE
:102E600002F11601B4F81480B2F826C0138D881D43
:102E7000378872884FF40079B8F5807F09D0C8454B
:102E8000E8D1BC45E6D19342E4D1BDE8F04700F07B
:102E9000FDB8BC45DED19342DCD100F0F7F8A4F8D0
:102EA0001490D4F8162022620F49638BA38408681B
:102EB000C4F8160089886183C4F806006181226025
:102EC000A380A08BE084E08B20853088A08370886D
:102ED000E0834FF4C160A0812A20BAE78800002077
:102EE000400D0020940000207C0000202DE9F05FC0
:102EF000DFF82CC14B4A6046BCF81E104FF6FF733A
:102F0000008C95881468994209D1984207D14648A7
:102F10000168CCF800108088ACF8040041E0DFF8CC
:102F20000C81434A434EB8F80030B2F800A001EAE1
:102F300003070AEA03023E4BE3469742B3F80290C6
:102F400007D1B8F8022000EA020709EA02039F420B
:102F500004D0394801883180408800E03180708099
:102F6000344B00201B1FDFF8D48018703788768818
:102F7000197801EB410008EB80000288974202D1EA
:102F80004288964204D0491CC9B219700829EFD36F
:102F9000C9B2082910D04268CCF800200089ACF8EA
:102FA0000400CCF80640ACF80A500820ACF80C003D
:102FB000234801880E3130E0FF2206211848FDF732
:102FC00054FA0021CBF82010ABF82410CBF80640BF
:102FD000ABF80A50CBF81640ABF81A50ABF8267095
:102FE000ABF82860ABF81CA0ABF81E904FF48071D2
:102FF000ABF81410ABF80E1008215846ABF81010BF
:10300000062181740421C1744FF4C1618181044897
:103010000C49363008600A482A210180BDE8F09F3B
:10302000400D00207C000020D93B0008B0000020AB
:1030300094000020B8000020AC0000206C2D00207F
:103040008800002098000020F0B50E4B0E4D9878B7
:10305000401CC2B29A7000241C70197801EB410028
:1030600005EB8000068847883E4304D0867A961B8D
:10307000782E00DB0460491CC8B218700828ECD315
:10308000F0BD0000B40000206C2D0020F0B52B4FE7
:103090004FF0000EDFF8A8C087F800E03B7803EBA4
:1030A00043020CEB8202158875B1548864B106881E
:1030B000AE4209D14588A54206D10868506088888B
:1030C0001081B8789072F0BD5B1CDAB23A70082AB1
:1030D000E4D387F800E03B7803EB43020CEB820279
:1030E00014880CB9548824B15B1CDBB23B70082BEC
:1030F000F1D3DBB2082B1DD187F803E087F801E09C
:1031000087F800E0BC783A78FD7802EB42030CEBDC
:1031100083039B7AE31AAB4201DDFB707A70521C89
:10312000D2B23A70082AEED37A783A7002EB4202B1
:103130000CEB820200681060BFE70000B4000020C2
:103140006C2D00202DE9F043334C344B8946064664
:103150004FF4FA484FF4805700259889401C80B2FC
:103160009881404500D39F815D70587800EB8000C6
:1031700004EBC002507E28B19889FFF7B5FB918817
:103180008842EAD05878401C10F0FF005870ECD00C
:1031900000225D70597801EB810004EBC000477E8E
:1031A00017B1072F02D008E002460BE022B1877E5C
:1031B00092F81AC0674500D90246491C11F0FF0079
:1031C0005870E7D02AB30220507614482030017896
:1031D00011734178517381789173C078D07341F63F
:1031E000CA705082908201201082D576907603209A
:1031F000107695751020D0759889FFF775FB908033
:10320000A2F8069030881080708850801046BDE883
:10321000F0830020FBE70000442D00208400002004
:103220000F4910B500224A7001F10803487823F8CD
:103230001020401C10F0FF004870F7D0094B4A7076
:10324000487800EB800403EBC404401C627610F065
:10325000FF004870F4D04FF48060888110BD0000FA
:1032600084000020442D002010B5142205490020C0
:10327000FFF79DFA18B1BDE81040FFF735BB4FF6D8
:10328000FF7010BD4E0D002001460148FCF7A8BF9D
:10329000E03B00082DE9F0413148417851B9012166
:1032A000417014211430FFF731FD2D48C8211C3026
:1032B000FFF72CFDFFF708FC2A4D288000B34FF4E0
:1032C0000060FFF711FB284CA189884208D101203A
:1032D00000F050F8288800283FD0FFF707FE0BE0E9
:1032E00040F60600FFF700FBA189884235D1FFF7C1
:1032F000A9FD2888002830D0BDE8F041FFF7EEBBDB
:1033000017481430FFF7F0FC002826D0144814307A
:10331000FFF7F7FC154E164F002404EB840006EB74
:10332000C0003860022000F025F8288818B1FFF7A7
:10333000DDFDFFF7D3FB641C14F0FF04EDD008485B
:103340001C30FFF7D1FC002807D005481C30FFF7E0
:10335000D8FCBDE8F041FFF777BEBDE8F081000082
:103360000000002088000020400D0020442D002097
:10337000A00000202DE9F05FFD4FFE493A46FC69B0
:10338000516100264FF0100AA1F136059161032822
:1033900009D04FF0030B02F1200902280ED0A87BC0
:1033A000452833D16EE0607E00F00F000328F8D18D
:1033B000208A0028F5D108203870FBE299F8030034
:1033C0004946401C10F0FF0089F803000FD18878AF
:1033D000401C10F0FF00887009D14878401C10F0A4
:1033E000FF00487003D10878401C89F80000BE80B7
:1033F000FE80607E07280AD0052808D0002805D066
:10340000218A89B3A07E411EA17640B181E3A07ECE
:10341000401CC0B2A0767828F8D1667679E3E07EC9
:1034200008281BD0617E022901D0012901D105287D
:1034300014D0042800D904200BFA00F1A176E07E14
:10344000401CE076607E00F00F000928DED2DFE845
:1034500000F018EB0C0FEA18EA18EA0066768020F4
:103460003870FFF7BFFBACE207E085F82F6043E15F
:1034700004203870FFF7B6FBBAE200F00F00032813
:1034800099D046E3687C297C00EB0120B98888420A
:10349000BCD8B880287D8006B8D1687D0028B5D119
:1034A000B34810300188408801B928B1EA8B8A42BC
:1034B000ACD1298C8142A9D1FFF7D6FE4FF6FF741B
:1034C000A042A3D1E87D06281BD001289ED195F803
:1034D000220008289AD185F82260A88C4FF6F7714F
:1034E000884201D3093000E00830A884688BE88363
:1034F000A88B28849E481030018869834088A8835F
:103500002EE300F041FBA04288D19B4CB5F822C0CD
:1035100021466B8BAA8BA88C15E094F81980B8F122
:10352000000F0FD0B4F8048040450BD1B4F80680EA
:10353000C44507D1B4F80080434503D1B4F80280F4
:1035400042456FD028348C42E7D995F82F2002F0FD
:103550003F02022A11D1864BF8817E700833B846AB
:1035600098F8012033F81240844247D002F101025A
:1035700012F0FF0288F80120F2D095F82F004007E2
:103580007ED42635142068722820B88050202872F6
:10359000EB78E879E870AA78A879A870AA716978B8
:1035A000687968706971287878702C792C705B1C48
:1035B000287113F0FF03EB71A5F126050ED1521C03
:1035C00012F0FF0285F82C2008D1491C11F0FF01F0
:1035D00085F82B1002D1401C85F82A00688CF881F0
:1035E000A98C6984A884688BE883A88B28846048A8
:1035F0001030018869834088A88392E2002488F80B
:10360000016098F8012002EB820001EBC000437ECC
:1036100013B1072B09D00FE0D0B200EB800001EB13
:10362000C0040FE089E099E164E024B1837E94F85E
:103630001AC0634500D90446521C12F0FF0088F8F6
:103640000100DED0002C1BD0C8F81C4084F81AB052
:1036500084F818B00420A675E0751A35E6766889F6
:10366000A0802889E08028882080688860800122E6
:10367000627699F80010217399F80110617300E0E7
:103680004EE199F80210A17399F80300E0732282C9
:10369000E87BE072A87BA072687B6072287B207256
:1036A0000120FFF7B9FB287D1A3D00F0F0015029F9
:1036B00020D90009830088F80160143B16E02A181D
:1036C00092F8361088F80210A1B1012902D002291F
:1036D00002D005E0401C07E092F8371004291ED004
:1036E00092F8371031B1084488F8010098F80100C9
:1036F0008342E4DC85F82FA02E35687840F0020084
:10370000687002202872042068721F20A872CA20E4
:10371000E8722C20B880602005F82E09C6E1C0B2FE
:10372000284441F6CA71008F40BAA8F80E008842BA
:1037300000D908466082A082DCE7FC613E7095F803
:103740002F00410703D566762020387076E195F882
:103750002E10A846090989007970BA88511A1439BF
:1037600089B2B980627E02F00F02022A0AD105E016
:1037700084000020760D0020442D002000F03F0240
:10378000122A17D009B9810714D095F82610227A89
:103790002B4691427AD193F82710627A9142F9D15F
:1037A00093F82810A27A9142F4D195F82910E27A80
:1037B0009142EFD1C0063CD5218AD1B304F10C006F
:1037C000FFF7FCFAE84B98F82A10C14618788142B6
:1037D0002FD199F82B2059788A422AD199F82CC0F8
:1037E0009A78944525D198F82DC0DB789C4520D156
:1037F00020736173A273E373E07EA8B9207EA17E7B
:10380000401AA17DA0EBD10040B20144C9B2A1751C
:10381000002801DA404240B2E27DA0EB9200104461
:10382000E07500EBD100207601203870207EA07674
:103830002682617E4FF0070901F00F0009286FD240
:10384000DFE800F06E05146FFFECEB24F60038782B
:10385000C00765D084F819B0402038702682B88837
:10386000F0B342213970FFF7D7FAA2E03878C007E9
:1038700005D098F82F0000F03F00122807D0202034
:103880003870FFF7AFF9F869467676E607E198F801
:103890002E0000F0F00150291DD9000983007E7030
:1038A000143B15E008EB000292F83610B97091B1A4
:1038B000012902D0022902D005E0401C07E092F85D
:1038C000371004291FD092F8371021B108447870BE
:1038D00078788342E6DC84F819B098F8260000E096
:1038E00067E0207298F82700607298F82800A072AC
:1038F00098F82900E0720120FFF78EFA4220387014
:103900002682BE8055E0C0B2404441F6CA71008FA5
:1039100040BAF881884200D908466082A082DAE77E
:1039200079E098F82F00C2071AD0CA0618D4208A66
:10393000002870D1B888401C80B2FFF76DFA387843
:1039400040F010003870B98811B140F002003870B2
:10395000FFF748F90120208208203CE0112031E0E7
:1039600080060AD5B8F834007B6942BA1A447A61F5
:10397000BA8840BAA2EB0000B880B88838B1C9064E
:1039800005D4397841F002013970FFF745FA98F80B
:10399000310098F8301000EB012080B2F881A18A44
:1039A000814200D300B9F981F889608238788007B4
:1039B00031D0FE80FFF716F93878810605D5FE80F4
:1039C0006676142085F82F006BE0C10606D5FE80D0
:1039D0000120208204206076E676BFE7F98831B1C5
:1039E000C00701D026820FE0208A68B1F880E67611
:1039F000B8697861F88898B1208A88B12830B88091
:103A0000182085F82F004EE0608A884200D2F880A6
:103A1000F8882082EBE713E00AE074E031E010E080
:103A20003878800775D52820B88085F82FA03AE02F
:103A30003878C0076DD0667687F800A0FFF7D2F817
:103A400067E0B88808B1FFF7E7F998F82F00C007DA
:103A500038784FEAC0700FD020B184F81990A6765C
:103A6000268201E0062060760120FFF7D5F987F86D
:103A700000A0FFF7B7F812E078B105206076268243
:103A800047E0B88808B1FFF7C7F998F82F00C007DA
:103A900003D084F81990A676E6E7B88890B388F842
:103AA0002FA02820B880502085F82E001835207AC5
:103AB000A874607AE874A07A2875E07A6875207B2B
:103AC000A873607BE873A07B2874E07B6874062091
:103AD00005F8010CA0886881E088A8812248143884
:103AE000018869804088A8802088E88060882881D3
:103AF000607EA5F11805C0060DD585F8316085F802
:103B000030600EE005E03878C00702D084F81990E4
:103B1000A676BE8024E01F2085F83000CA2085F8F4
:103B200031004020A875B888010A2974687485F8A6
:103B3000356085F834606E8600F026F8C0436886EC
:103B40004520A873EE736E752E757889401C7881B8
:103B5000010AA974E8742E83FFF786FBC04328830B
:103B60003E70BDE8F09F0000A80000200A1E01463C
:103B700007DD044892B2C2808069814201D0FCF71F
:103B80002FBC7047840000200E4810B5417C007C9B
:103B90006FF0130202EB0020084484B20949A01D13
:103BA00080B208221A31FEF702FE0649224622316F
:103BB000FEF7FDFD18B1BDE81040FEF795BE4FF6CB
:103BC000FF7010BD400D002025782C000D0A003438
:103BD000431010013443101001FFFFFFFFFFFF00EF
:103BE000754950206C6F673A25730D0A000000007C
:103BF0007463705F636C69656E742061636B656488
:103C0000210D0A007463705F636C69656E742074C3
:103C1000696D656F7574210D0A00303132333435AA
:103C200036373839414243444546403058003031F8
:103C30003233343536373839616263646566403013
:103C400078000000643C000800000020C000000074
:103C500028010008243D0008C00000207033000047
:103C60004401000800000000000000000100000006
:103C70000000000000000000000000000000000044
:103C80000000000000000000000000000000000034
:103C90000000000000127A00000000000000000098
:103CA00001020304060708090000000000000000EC
:103CB0000000000000000000000000000000000004
:103CC00000000000000000000000000002040608E0
:103CD00000000000010203040102030406070809B2
:103CE00000000000000000000000000000000000D4
:103CF00000000000000000000000000000000000C4
:103D000000000000000000000000000000000000B3
:103D100000000000000000000000000000000000A3
:043D2000000000009F
:04000005080000ED02
:00000001FF
