:020000040800F2
:10000000503A002099010008D5220008B5110008D7
:10001000732200081D0800081F49000800000000A6
:10002000000000000000000000000000133B00087A
:10003000F10800080000000085300008D13D0008EC
:10004000B3010008292D0008B3010008B30100081E
:10005000B3010008B3010008B3010008B3010008B0
:10006000B3010008B3010008B3010008B3010008A0
:10007000B3010008B3010008B3010008B301000890
:10008000B3010008B3010008B3010008B301000880
:10009000B3010008B3010008B3010008B301000870
:1000A000B3010008B3010008B3010008B301000860
:1000B000B3010008993E0008B3010008B30100082D
:1000C000B3010008B3010008B3010008B301000840
:1000D000B301000861460008B3010008B30100083D
:1000E000F5080008B3010008B301000800F002F8A9
:1000F00000F042F80AA090E8000C82448344AAF180
:100100000107DA4501D100F037F8AFF2090EBAE87D
:100110000F0013F0010F18BFFB1A43F0010318473B
:10012000B0B40000D0B40000103A24BF78C878C141
:10013000FAD8520724BF30C830C144BF04680C60ED
:10014000704700000023002400250026103A28BF35
:1001500078C1FBD8520728BF30C148BF0B60704739
:10016000642900F04780782900F0808000207047E3
:100170001FB51FBD10B510BD00F01CFA1146FFF7EA
:10018000F7FF04F02DFD00F03AFA03B4FFF7F2FF99
:1001900003BC04F0C2FC000009488047094800473E
:1001A000FEE7FEE7FEE7FEE7FEE7FEE7FEE7FEE727
:1001B000FEE7FEE704480549054A064B7047000084
:1001C000D53D0008ED00000850340020503A0020D2
:1001D0005036002050360020704700000FB404490C
:1001E00010B503AA029800F08FF910BC5DF814FB5B
:1001F0004C0000202DE9F0410646002410687529C6
:10020000314616A511D0AFF30080002803DAC0F103
:10021000000013A507E031688A0701D511A502E0A7
:10022000490704D510A5012401E0AFF300800021A7
:100230000A2306F1240707E0B0FBF3F203FB1200E8
:10024000303078541046491C0028F5D123462A4600
:100250003046BDE8F04100F0FBB8000000000000AF
:100260002D0000002B0000002000000070B50446A7
:100270000D4621461068AFF300802188090502D59C
:10028000104A7A4402E00F4A7A440E32002104F107
:10029000240307E000F00F064FEA1010965D5E544D
:1002A00001F101010028F5D103462078000704D5AB
:1002B000702D02D009B1113202232046BDE87040F2
:1002C00000F0C6B810B300002DE9F05F894604467F
:1002D0004FF0000ADFF828B1FB44C0F820A0204608
:1002E000E168884700287CD0252806D0D4E9012180
:1002F0009047206A401C2062F1E700255F462046B7
:10030000E16888472028064608DB312E06D207EB35
:10031000060010F8200C08B10543F0E7A80701D546
:1003200025F00405C4F81CA00027C4F818A02A2E44
:1003300009D0304604F0EAFB38B304EB8708303EBE
:10034000C8F8186019E059F8041B204604EB87022E
:100350009161E1688847012F064618D1E0690028BD
:1003600020DA25F020051DE0D8F8180000EB800009
:1003700006EB40003038C8F818002046E16888478E
:10038000064604F0C3FB0028EED1012F0AD02E2E22
:1003900008D12046E16888477F1C0646022F45F0B9
:1003A0002005C4DBA069002803DA404245F00105BE
:1003B000A061E80701D025F0100596B1A6F1410033
:1003C000192802D8203645F400654A4631462046B1
:1003D00025604D46FFF7C4FE60B1012807D0ED1D32
:1003E00000E009E025F0070000F1080977E705F1D2
:1003F000040974E7304679E7206ABDE8F09F000001
:10040000E2B200004FF000020429C0F0128010F0A8
:10041000030C00F08D80CCF1040CBCF1020F18BF6E
:1004200000F8012BA8BF20F8022BA1EB0C0100F073
:100430007FB85FEAC17C24BF00F8012B00F8012BD4
:1004400048BF00F8012B70477047704770477047EE
:100450002DE9F0470D4699469246044600F12408DE
:100460000168880604D5E06921F01001216000E0F0
:100470000120A84202DDA0EB050700E00027A169EA
:1004800007EB050202EB0900A1EB0000A061207858
:10049000C00602D42046AFF30080002608E0D4E96D
:1004A00001211AF806009047206A401C761C206241
:1004B0004E45F4DB2078C0060AD52046AFF3008015
:1004C00006E0D4E9012130209047206A401C2062D8
:1004D000381EA7F10107F4DC07E0D4E9012118F880
:1004E00005009047206A401C2062281EA5F10105E6
:1004F000F3DC2046AFF300802078000602D502200E
:10050000BDE8F0870120FBE7074B70B50D467B4443
:1005100000F039F80446284600F048F810B14FF0D2
:10052000FF3070BD204670BDB34600004FF00002A2
:1005300000B5134694469646203922BFA0E80C50D9
:10054000A0E80C50B1F12001BFF4F7AF090728BFB4
:10055000A0E80C5048BF0CC05DF804EB890028BF30
:1005600040F8042B08BF704748BF20F8022B11F059
:10057000804F18BF00F8012B7047000001694A1C2A
:1005800002610878704700B58FB0CDE901310021D4
:10059000059105497944CDE9031011466846FFF7F6
:1005A00093FE0FB000BD0000E5FFFFFF007B00F0F1
:1005B00080007047754600F029F8AE460500694690
:1005C000534620F00700854618B020B5FFF7F2FD2E
:1005D000BDE820404FF000064FF000074FF0000844
:1005E0004FF0000B21F00701AC46ACE8C009ACE8C5
:1005F000C009ACE8C009ACE8C0098D4670470446A4
:10060000AFF300802046FFF7C0FD000000487047B0
:10061000F033002010B59021134800F03AFA134847
:1006200080880112104800F034FA104801790E4811
:1006300000F02FFA10210C4800F02BFA02210A4892
:1006400000F027FAFE21084800F023FAFC210648B2
:1006500000F01FFAFE21044800F01BFAFC210248BA
:1006600000F017FA10BD0000FC01002094030020E8
:1006700010B504462146024803F09DFF10BD00005E
:100680000008004010B504462146024803F08FFFE1
:1006900010BD00000008004010B504462146024885
:1006A00003F087FF10BD000000080040014908600A
:1006B00070470000A001214200B55548007B012889
:1006C00051D0022802D003287ED125E0514800787D
:1006D00038B9C8205049488101204E490870FFF7B9
:1006E000E5FF4C48007801280AD14B48408938B9C9
:1006F00000204849087046490873FFF7D7FF0AE011
:1007000044480078012806DD00204249087040492D
:100710000873FFF7CBFF78E03E48007840B94FF40C
:1007200048703D49488101203A490870FFF7BEFFF3
:100730003848007801280AD13748408938B9002064
:100740003449087032490873FFF7B0FF0AE03148B6
:100750000078012806DD00202E4908702C49087316
:10076000FFF7A4FF51E02B48007838B9C8202A4988
:100770004881012027490870FFF798FF2548007835
:1007800001280BD12448408940B9642022490873CC
:100790000220204908700020FFF788FF1D480078DC
:1007A00002280BD11C48007B40B90320194908706E
:1007B0000120FFF77BFFC8201749488115480078C2
:1007C00003280DD1144800E016E0408940B900200C
:1007D00010490870FFF76AFF00200D4908730AE00E
:1007E0000C480078032806DD00200A4908700849F3
:1007F0000873FFF75BFF08E00748408920B9002035
:1008000004490870FFF752FF00BF00BF00BD0000A1
:10081000F803002040000020B803002000BFFEE7DE
:100820002DE9F0410746884615460421052000F0D1
:100830002CF80021012004F0EDF880210A2003F0BB
:100840009FF9002405E0395D092004F0E3F8601CFD
:10085000C4B24445F7DB0321012004F0DBF8FF2498
:1008600000BF052002F06EFF0646601EC4B214B140
:1008700016F0040FF5D0222002F064FF287021202A
:1008800002F060FF6870BDE8F08170B505460C4667
:100890000026284602F056FF064626EA04012846AE
:1008A00004F0B8F870BD002101714171016070471A
:1008B0000021017141710160704710B503460C467B
:1008C000184600F0DDF808B1002010BD1979981D18
:1008D000405C20701879401C4FF4C87190FBF1F215
:1008E00001FB120018711868401E18600120ECE727
:1008F0007047000010B54FF4006000F063F8D8B105
:100900000E48006828B901200D4988820420088219
:1009100007E00B48008A20B9022009498882042098
:1009200048820120064981F830004FF4FA600862DD
:100930004FF4006000F040F810BD00002C0121428F
:10094000F80300200EB50121084602F0A1FD0B219D
:10095000002000F0D7FA4FF40060019000208DF8DD
:10096000080010208DF8090001208DF80A0001A868
:1009700000F03CF80C21002000F0C4FA4FF4805045
:10098000019000208DF8080010208DF8090001204A
:100990008DF80A0001A800F029F828208DF8000041
:1009A00000208DF801008DF8020001208DF8030071
:1009B000684601F0F1FD0EBD014908607047000076
:1009C00014040140014600200022074B1B6803EA83
:1009D0000102054B14331B680B4202D00AB10120FF
:1009E00000E000207047000000040140002123497E
:1009F0008279002A3AD00A46126803689A430B4665
:100A00001A600A1D126803689A430B1D1A60027966
:100A100011440A6803681A430A60184A08321268C7
:100A200003689A43154B08331A601A1D126803684D
:100A30009A43124B0C331A604279102A0ED11A1FB6
:100A4000126803681A430D4B08331A601A1D1268A6
:100A500003681A43094B0C331A600DE007494279C9
:100A600011440A6803681A430A6005E002791144D8
:100A70000A6803689A430A60704700000004014056
:100A8000014608794A79904201D10120704700203F
:100A9000FCE730B504460D46204600F01FFA08B1C9
:100AA000002030BD6179A01D45546079401C4FF491
:100AB000C87190FBF1F201FB120060712068401CCC
:100AC00020600120EDE7F0B507460D4616460024EC
:100AD00000BF08E0295D3846FFF7DBFF08B90020BA
:100AE000F0BD601C84B2B442F4D30120F8E70000EA
:100AF00000B58BB0142201A91F4802F069FFBDF8B0
:100B00000400C0B21D490880BDF806008870BDF819
:100B100008008880BDF80A008871BDF80C00C87113
:100B2000BDF80E000881BDF810000873BDF8120072
:100B30004873BDF814008873BDF81600C873BDF87B
:100B400018000882BDF81A0048810846C07908B923
:100B5000012000E000200A490860BDF81C00074998
:100B60008874BDF81E00C874BDF820000875BDF873
:100B7000220088610BB000BD000001089403002032
:100B8000BC01214230B5044604254FF4302000F06A
:100B900089F80546042D17D10C48006940F0020081
:100BA0000A49086108464461006940F04000086154
:100BB0004FF4302000F076F805460448006941F60D
:100BC000FD71084001490861284630BD00200240FF
:100BD00004200B49C96811F0010F01D001200EE07B
:100BE0000749C96811F0040F01D0022007E0044949
:100BF000C96811F0100F01D0032000E004207047F5
:100C0000002002400348006940F08000014908616B
:100C100070470000002002400549096821F01001DA
:100C2000034A1160114609680143116070470000D2
:100C30000020024070B504460D460426F00200F084
:100C400031F80646042E11D10948006940F0010030
:100C5000074908612580F00200F024F806460448A0
:100C6000006941F6FE71084001490861304670BDD7
:100C70000020024001460020034A106800F03800BE
:100C800008431060704700000020024002480349FA
:100C900048600348486070472301674500200240D0
:100CA000AB89EFCD00B502460423FFF791FF034661
:100CB00003E0FFF78DFF0346521E012B01D1002AEE
:100CC000F7D102B90523184600BD000070B50346F0
:100CD0000020002217E000210DE05C5C02EB4205E1
:100CE00005EBC205094E06EB45056D5CAC4200D034
:100CF00003E04C1CE1B21629EFDB00BF162900D13E
:100D00000120541CE2B2322AE5DB70BD92040020BF
:100D100070B504460D4690211E48FFF7BAFE1E48E6
:100D2000808801121B48FFF7B4FE1B48017919485F
:100D3000FFF7AFFE81211748FFF7ABFE02211548F0
:100D4000FFF7A7FE210E1348FFF7A3FEC4F30741E8
:100D50001048FFF79EFEC4F307210E48FFF799FEE7
:100D6000E1B20C48FFF795FE29460A48FFF791FECD
:100D7000FE210848FFF78DFEFC210648FFF789FE9B
:100D8000FE210448FFF785FEFC210248FFF781FEA3
:100D900070BD0000FC0100209403002010B59021DC
:100DA0002948FFF776FE2948808801122648FFF778
:100DB00070FE264801792448FFF76BFE082122487F
:100DC000FFF767FE02212048FFF763FE1F48008AF5
:100DD0000A2190FBF1F0C4B221461B48FFF759FEEF
:100DE0001A4881781848FFF754FE1848C179164808
:100DF000FFF74FFE1548017A1348FFF74AFE1348E4
:100E0000817A1148FFF745FE1048817C0E48FFF7B4
:100E100040FE0E48417B0C48FFF73BFE0B48817BB0
:100E20000948FFF736FEFE210748FFF732FEFC2196
:100E30000548FFF72EFEFE210348FFF72AFEFC219E
:100E40000148FFF726FE10BDFC010020940300209E
:100E500070B504460D4690211E48FFF71AFE1E4845
:100E6000808801121B48FFF714FE1B4801791948BE
:100E7000FFF70FFE02211748FFF70BFE022115486E
:100E8000FFF707FE210E1348FFF703FEC4F30741E7
:100E90001048FFF7FEFDC4F307210E48FFF7F9FDE8
:100EA000E1B20C48FFF7F5FD29460A48FFF7F1FDCE
:100EB000FE210848FFF7EDFDFC210648FFF7E9FD9C
:100EC000FE210448FFF7E5FDFC210248FFF7E1FDA4
:100ED00070BD0000FC010020940300200146487909
:100EE000401C4FF4C87290FBF2F302FB13000A7926
:100EF000904201D1012070470020FCE710B500F0BE
:100F00005BF910BD30B500228B071C0F0F2303FACD
:100F100004F20B4B8C1053F824309343084C8D1083
:100F200044F8253023468C1053F824308C07240FC6
:100F300000FA04F42343024C8D1044F8253030BDF0
:100F4000080001402DE9F04102460025002600205E
:100F500000230024002791F803C00CF00F0591F83E
:100F600003C01CF0100F03D091F802C04CEA050535
:100F700091F800C0BCF1000F31D0146800202BE0C4
:100F80004FF0010C0CFA00F3B1F800C00CEA0306B4
:100F90009E4220D183004FF00F0C0CFA03F7BC43A4
:100FA00005FA03FC4CEA040491F803C0BCF1280FD5
:100FB00006D14FF0010C0CFA00FCC2F814C00AE094
:100FC00091F803C0BCF1480F05D14FF0010C0CFAA9
:100FD00000FCC2F810C0401C0828D1D31460B1F83E
:100FE00000C0BCF1FF0F34DD546800202EE000F19A
:100FF000080C4FF0010808FA0CF3B1F800C00CEA35
:1010000003069E4221D183004FF00F0C0CFA03F728
:10101000BC4305FA03FC4CEA040491F803C0BCF19C
:10102000280F05D100F1080C08FA0CF8C2F814805A
:1010300091F803C0BCF1480F07D100F1080C4FF044
:10104000010808FA0CF8C2F81080401C0828CED31A
:101050005460BDE8F0810000F0B50A46002300248A
:101060000021002500F00046B6F1004F02D11D4ED0
:10107000F16901E01B4E7168C0F3034583B200F4CF
:101080004016B6F5401F08D121F07061154E766804
:1010900026F07066134F7E6012E000F48016B6F5FD
:1010A000801F06D1032606FA05F4A14341F07061C2
:1010B00006E0460D360103FA06F6B14341F07061D1
:1010C00022B1460D360103FA06F6314300F0004620
:1010D000B6F1004F02D1034EF16101E0014E7160A3
:1010E000F0BD0000000001404161704701617047A0
:1010F0002148007A00283EDD2048C08900283AD1E6
:101100001F48007910B1012833D115E01D4800892E
:1011100000EB80004FF6FF7101EA40001749C881DB
:101120000120174908711848006808B9012000E03B
:101130000020154908601DE01348006808B9012027
:1011400000E00020104908600E48408900EB800054
:101150004FF6FF7101EA40000849C8814FF00000D6
:10116000074908710448007AA0F101000249087299
:1011700000E000BF00BF7047F8030020B803002064
:101180001E00002094030020BC01214210B5002065
:10119000064908604FF0C80003F0E4FC0120044950
:1011A000C1F89401C82003F0DDFC10BD94812142F8
:1011B0000080214200BFFEE708B501211C2002F09B
:1011C00067F90121042002F043F941F60100ADF86E
:1011D000000048208DF8030003208DF802006946C6
:1011E0004248FFF7AFFE41F601014048FFF77EFF9E
:1011F00048F21210ADF8000010208DF80300032013
:101200008DF8020069463948FFF79CFE12213748E5
:10121000FFF76CFF4FF401413448FFF765FF4FF4CF
:101220003970ADF8000003208DF8020018208DF809
:10123000030069462D48FFF785FE4FF48160ADF845
:10124000000004208DF8030069462848FFF77AFE65
:1012500041F63F60ADF8000010208DF80300032038
:101260008DF8020069462248FFF76CFE40F6230124
:101270001F48FFF73BFF18211D48FFF735FF4EF2CF
:10128000C010ADF8000018208DF8030003208DF881
:10129000020069461648FFF755FE00214FF47A70A8
:1012A00002F0FAFE4FF4C040ADF8000010208DF8B7
:1012B000030003208DF8020069460E48FFF742FE46
:1012C0004FF4C0410B48FFF711FF4FF40040ADF859
:1012D000000028208DF8030069460648FFF732FE1B
:1012E0004FF400410348FFF701FF08BD000801402B
:1012F000000C0140001001407047704710B502F02B
:1013000065FA01F045FE01F015FD022003F02AFC0C
:1013100001F016FD412000F07DFF10BD10B5FFF774
:1013200035FFE22003F090FBC82003F01BFC2C20CB
:1013300003F08AFBC82003F015FC2E2003F084FB89
:10134000C82003F00FFC2F2003F07EFB232003F0C6
:101350007BFB812003F078FB302003F075FB10202D
:1013600003F072FBA22003F06FFBA02003F06CFBE4
:10137000C82003F069FB602003F066FBAF2003F098
:1013800063FB10BD89480088B0F57A7F03DB01203C
:101390008649887406E085480088022802DC00201F
:1013A000824988748148007E804948750846807C5F
:1013B00008760846C088002837D10846007E497D57
:1013C000884202D096207949C8807848807C98B9B4
:1013D00076480088B0F5FA7F03DD0A207349088259
:1013E00002E0052071490882704800886F49098A27
:1013F00008446E49088018E06C480088FA2803DA2F
:1014000002206A49088202E005206849088267488C
:1014100000886649098A401A002806DD634800886A
:101420006249098A401A6149088060484088B0F5DD
:101430007A7F03DB01205D49C87406E05B48408881
:10144000022802DC00205949C8745848407E574998
:1014500088750846C07C487608460089B8BB0846AF
:10146000407E897D884202D06420504908814F48DF
:10147000C07C98B94D484088B0F5FA7F03DD0A205A
:101480004A49C88102E005204849C8814748408848
:101490004649C98908444549488018E0434840887E
:1014A000FA2803DA02204149C88102E005203F49B9
:1014B000C8813E4840883D49C989401A002806DD58
:1014C0003A4840883949C989401A384948803748DC
:1014D0008088B0F57A7F03DB01203449087506E087
:1014E00032488088022802DC0020304908752F48E5
:1014F000807E2E49C8750846007D8876084640895A
:10150000B8BB0846007D90B908468088B0F5FA7FE0
:1015100002DD0A20888102E00520244988812348D1
:1015200080882249898908442049888021E01F4811
:10153000807E1E49C97D884202D064201B494881B3
:101540001A488088FA2803DA02201849888102E0C4
:101550000520164988811548808814498989401AD0
:10156000002806DD1148808810498989401A0F49F2
:1015700088800E48007D40B90C48C07C28B90B48D3
:10158000807C10B90120094988740848007D012831
:101590000AD10648C07C012806D10448807C012875
:1015A00002D100200149087570470000380400206E
:1015B0001CB54A4800784A4908704A48407A474969
:1015C0000870084600784649097888420FD0002004
:1015D00000F0BCFB4448008A00EBC00101EB0010A6
:1015E0004FF6FF7101EA80004049888209E03F48D8
:1015F000808A30B93B48407A092802D00120394915
:1016000048723848407A0F284BD2DFE800F02F08A4
:101610004A4A0E144A1D2329353B1A41470000F05F
:10162000B9F901202F4988723CE000F033FA02201A
:101630002C49887236E000F066FA03202949887246
:1016400030E000F0C3F82DE009202649887200F050
:101650002BF927E000F064FA04202249887221E087
:1016600000F0D2FA05201F4988721BE000F0E2FA70
:1016700006201C49887215E000F074F9072019490A
:1016800088720FE000F07AF908201649887209E0A4
:101690000A201449887200F083F803E000F09EFAF3
:1016A00000E000BF00BF81200C21CDE900100D48F3
:1016B000027A032300216A2000F024FD0B48408BAE
:1016C00048B94FF4C8700949488302F0ADFA02F0F6
:1016D0008DFA02F0D1FA00F00BF81CBD0F000020CB
:1016E0000E000020F803002094030020B80300201F
:1016F00070B508242CE02848C07B30B1C82003F026
:10170000A3F9A02003F0A0F905E0C02003F09CF9A4
:10171000A12003F099F904F1B001C8B203F094F9E3
:10172000102003F091F9002003F08EF900250BE062
:10173000C5EBC50101EB8101184A02EB4101085DCF
:1017400003F0B2F9681CC5B2802DF1DB601EC4B293
:10175000042CD0DA00241CE004F1B001C8B203F07C
:1017600073F9102003F070F9002003F06DF90025E3
:101770000BE0C5EBC50101EB8101084A02EB410119
:10178000085D03F091F9681CC5B2802DF1DB601C87
:10179000C4B2042CE0DB70BD94030020DE0C0020FA
:1017A0001CB50520012110235B22CDE900100F217B
:1017B000172000F053F80520012110236022CDE905
:1017C00000102621172000F049F81CBD0EB502209C
:1017D000012110234322CDE9001014210F2000F035
:1017E0003DF801201BA10C221346CDE900210290F7
:1017F0000A221621322000F0F3FB01201821CDE946
:1018000000101548826905231021322000F07AFC6F
:101810000220012110230622CDE900102D210F20E6
:1018200000F01CF801200BA10C221346CDE9002189
:1018300002900A222F21322000F0D2FB0120102139
:10184000CDE900100448026808232D21322000F061
:1018500059FC0EBD3A000000F80300202DE9F847BE
:1018600004460E4617461D46DDE9099A4FF000086A
:1018700016E02B463A4631462046CDF8009000F05F
:10188000E3FB642C03DD0024A81C3044C6B2A81C72
:101890002044C4B2781CC7B208F1010000F0FF0870
:1018A000D045E6DBBDE8F8873EB5042001211023D2
:1018B0004622CDE900100F211720FFF7CFFF264861
:1018C00000686421B0FBF1F40120202104232246AA
:1018D000CDE900100D2000F015FC01201FA12022F1
:1018E0000C23CDE9002102900A2220214C2000F097
:1018F00077FB194800686421B0FBF1F201FB12008C
:101900000A21B0FBF1F40120202103462246CDE953
:101910000010522000F0F6FB1148807820B1012819
:1019200003D0022815D10AE014E001200090102312
:101930003722252101906420FFF790FF0AE0012063
:10194000009010233822252101906420FFF786FFA4
:1019500000E000BF00BF3EBDF80300202E000000E5
:10196000940300201CB50420012110233922CDE965
:1019700000101E211920FFF771FF1CBD1CB50420AB
:10198000012110233D22CDE900101E211920FFF76F
:1019900065FF1CBD3EB53D48007D012804D00228EE
:1019A00062D003286ED16AE00120009010235A22F1
:1019B000282101906420FFF751FF012032235A2291
:1019C00019210090692000F0DBF93048806964211A
:1019D000B0FBF1F40120202103232246CDE90010C1
:1019E0001421062000F08EFB012029A120220C23C7
:1019F000CDE9002102900A221421382000F0F0FAEB
:101A0000224880696421B0FBF1F201FB12000A2137
:101A1000B0FBF1F40120202103462246CDE900105D
:101A20001421402000F06EFB1848807820B1012876
:101A300003D0022815D10AE014E001200090102301
:101A40003722192101905020FFF708FF0AE00120FA
:101A5000009010233822192101905020FFF7FEFE3C
:101A600000E000BF00BF0EE003200121102352223E
:101A7000CDE9001019211E20FFF7F0FE03E0FFF76B
:101A8000A5FE00E000BF00BF3EBD000094030020A3
:101A90002E0000000EB50420012110231522CDE9EF
:101AA00000100F212320FFF7D9FE01200BA11022E7
:101AB0001346CDE900210290282211460A2000F0A9
:101AC0008FFA81201021CDE900100548426A0A23CF
:101AD0002821212000F016FB0EBD0000536E3A00B5
:101AE000F80300201CB5002000F030F90720012188
:101AF00010232B22CDE900101E210820FFF7AEFE97
:101B0000FFF7F6FD1CBD1CB505200121102319228D
:101B1000CDE900100F210D20FFF7A0FE1CBD000035
:101B20003EB50520012110231A46CDE900100F21F2
:101B30001720FFF793FE264800686421B0FBF1F4FC
:101B40000120202104232246CDE900100D2000F0C1
:101B5000D9FA01201FA120220C23CDE900210290F7
:101B60000A2220214C2000F03BFA19480068642129
:101B7000B0FBF1F201FB12000A21B0FBF1F40120ED
:101B8000202103462246CDE90010522000F0BAFA87
:101B90001148807820B1012803D0022815D10AE02D
:101BA00014E00120009010233722252101906420A9
:101BB000FFF754FE0AE0012000901023382225216F
:101BC00001906420FFF74AFE00E000BF00BF3EBD69
:101BD000F80300202E000000940300201CB505200F
:101BE000012110235B22CDE900100F211720FFF700
:101BF00035FE0520012110236022CDE900102621A9
:101C00001720FFF72BFE1CBD1CB50520012110235A
:101C10002822CDE9001014211220FFF71FFE062014
:101C2000012110232D22CDE9001028210820FFF7E3
:101C300015FE1CBD1CB50420012110233322CDE963
:101C400000101E211920FFF709FE1CBDF0B5144637
:101C50000025204B1B88834203DD1E4B5B888B4293
:101C600000DAF0BD0B46CF1701EB5777C7F3C70279
:101C7000CF1701EB5777FF10A1EBC707FEB2012387
:101C8000B340DDB294B1C0EBC00303EB8303124F4A
:101C900007EB43039B5C2B43C0EBC00707EB8707B5
:101CA000DFF834C00CEB4707BB5411E0C0EBC003B6
:101CB00003EB8303084F07EB43039B5CAB43C0EB91
:101CC000C00707EB8707DFF810C00CEB4707BB54D2
:101CD00000BFC6E718000020DE0C002070B50646E5
:101CE000082415E004F1B001C8B202F0ADFE1020E6
:101CF00002F0AAFE002002F0A7FE002504E000206A
:101D000002F0D2FE681CC5B2842DF8DB601EC4B29E
:101D1000052CE7DC002415E004F1B001C8B202F0A4
:101D200093FE102002F090FE002002F08DFE0025B0
:101D300004E0002002F0B8FE681CC5B2802DF8DB7C
:101D4000601CC4B2052CE7DB70BD000010B5024674
:101D500000200FE0002109E0C0EBC00303EB830388
:101D6000064C04EB43035A544B1CD9B20829F3DB4D
:101D7000431CD8B28428EDDB10BD0000DE0C00202F
:101D80002DE9FF4F84B081468A46002002908346A9
:101D90000698A0EB09050798A0EB0A06CDF8049079
:101DA000CDF800A0002D01DD012705E00DB90027C9
:101DB00002E04FF0FF376D42002E02DD4FF00108C8
:101DC00006E016B94FF0000802E04FF0FF38764207
:101DD000B54201DD2C4600E03446002003901EE0B1
:101DE000009A91B2019A90B2119AFFF72FFF0298D0
:101DF00028440290B3440298A04205DD0298001BDB
:101E00000290019838440190A34504DDABEB040B2C
:101E10000098404400900398401C80B20390611CDD
:101E200003988842DCDD08B0BDE8F08F2DE9F84169
:101E300005460E4617469846079C33463A463146B5
:101E400028460094FFF79CFF43462A463146284621
:101E50000094FFF795FF43463A46414628460094D2
:101E6000FFF78EFF43463A46314638460094FFF767
:101E700087FFBDE8F881000010B541200449488083
:101E800084200880FFF74AFA0020FFF727FF10BDE3
:101E90001800002010B50246012000E050430B005E
:101EA000A1F10104E1B2F9D110BD00002DE9F84F14
:101EB00080460F4616461C46BB462046E31704EBF9
:101EC0005373DB1021464FEAE47C04EB5C7C4FEA61
:101ED000EC0CB4EBCC0C02D04FF0010C01E04FF055
:101EE000000C6344224604EBD27C4FEA6C0C03FBEB
:101EF0000CF3DBB20093A6F12000C6B200255FE030
:101F00000C2C07D106EB4600304901EB800010F89D
:101F100005901BE0102C05D12D4800EB061010F8A1
:101F2000059013E0182C07D106EBC600294901EBF8
:101F3000800010F8059009E0202C05D1264800EB20
:101F4000861010F8059001E0BDE8F88F4FF0000A08
:101F500030E019F0800F05D0394640460A9AFFF765
:101F600075FE09E00A9808B9012000E00020024649
:101F700039464046FFF76AFE4FEA49604FEA10696A
:101F8000781C87B215484088B84200DCDCE7A7EB34
:101F90000B00A0420AD15F4608F101001FFA80F849
:101FA0000E480088404500DCCEE706E00AF101005B
:101FB00000F0FF0ABAF1080FCBDB00BF681CC5B206
:101FC000009885429CDB00BFBEE70000264E00085B
:101FD0009A5200087A5E0008D66B000818000020AC
:101FE0002DE9F84F04460D4690469946DDE90B7AF7
:101FF0000A9E04F0FF0B08EB04001FFA80F809EBBF
:1020000005001FFA80F916E0444502DB5C46A8197A
:1020100085B24D4500DB14E0CDF800A03A78334698
:1020200029462046FFF742FF304606EBD07104EB0D
:1020300061018CB27F1C38787E2802DC3878202839
:10204000E2DA00BFBDE8F88F2DE9FC4F80460D466F
:1020500017461C46DDF82C90002001900026824691
:102060000090AB46102C01D102200090202C01D111
:102070000420009000263BE0102C05D11F4800EB07
:102080004710805D019004E01D4800EB8710805DE3
:1020900001904FF0000A26E0019810F0010F05D0E2
:1020A0004A4629464046FFF7D1FD0AE0B9F1000F44
:1020B00001D1012000E00020024629464046FFF7FA
:1020C000C5FD019840100190681CC5B2A5EB0B003E
:1020D000A04204D15D4608F1010000F0FF080AF1BA
:1020E000010000F0FF0ABAF1080FD5DB701CC6B280
:1020F00000986043B042BFDCBDE8FC8F96830008C7
:10210000969C00082DE9FF4F82B0064692461F4676
:10211000DDE90F480020019000254DE0781B401EAE
:10212000C1B20A20FFF7B6FEBAFBF0F00A21B0FBFD
:10213000F1F201FB1209019850BB781EA84227DD7D
:10214000B9F1000F22D118F0800F0FD008F0010074
:10215000A34604EBDB71491001FB0561009088B2D6
:10216000234630220399FFF7A1FE0EE008F001009C
:10217000A34604EBDB71491001FB0561009088B2B6
:10218000234620220399FFF791FE13E001200190DE
:1021900008F00100A34604EBDB71491001FB056167
:1021A000009088B209F13001CAB223460399FFF7C3
:1021B0007DFE00BF681CC5B2BD42AFDB06B0BDE806
:1021C000F08F00000748808858B94FF4FA7005492D
:1021D00088800548006808B9012000E00020024915
:1021E00008607047B80300208881214208B50122A9
:1021F0006946074801F0ECFBBDF80000012801D05A
:1022000002F090FBFEF774FC00F080FF08BD0000B8
:102210000000010810B50446412C26D108210846CB
:10222000FEF733FB3D21112002F0F4FB862117203D
:1022300002F0F0FB7F21262002F0ECFB1E212D2076
:1022400002F0E8FB00212C2002F0E4FB8D212A2083
:1022500002F0E0FB3E212B2002F0DCFB4FF47A7011
:1022600002F0A6FC00F06CFD01E0012010BD002092
:10227000FCE700BFFEE7000030B50246002118E091
:10228000002012E04B1C03EB430404EBC3030F4C90
:1022900004EB43031B5C01EB410404EBC1040B4D55
:1022A00005EB44042354431CD8B21628EADB4B1C2C
:1022B000D9B23129E4DB002004E0145C044B1C5447
:1022C000431CD8B21628F8DB30BD00009204002071
:1022D000C8080020704700001CB510A103C9CDE953
:1022E000000105226946302000F01AF905226946EE
:1022F000102000F05DF8002406E01DF80400A52879
:1023000000D003E0601CC4B2052CF6DB00BF052C36
:1023100001D001201CBD0020FCE70000A5A5A5A55B
:10232000A500000010B501F0A9FA002007490860D7
:102330004FF001000649C1F8B4014FF0640002F00B
:1023400011FC0449887C00F007F810BDB801224256
:10235000000022429403002010B5044600201149D9
:1023600008604FF0050210494FF02A0000F0D8F83D
:102370000121222000F0F2F82146252000F0EEF89D
:102380001621312000F0EAF80F21262000F0E6F8AF
:102390000F21202000F0E2F801200449C1F8B80123
:1023A00010BD0000B8012242214E00080000224268
:1023B0002DE9F04107460D46164600200A490860FF
:1023C000384601F08FFA8046002405E0FF2001F036
:1023D00089FA2855601CC4B2B442F7DB01200249D7
:1023E00008604046BDE8F081B401224270B5044661
:1023F000002007490860204601F074FAFF2001F030
:1024000071FA054601200349C1F8B401284670BDA0
:10241000B40122420000224270B504460026072083
:10242000FFF7E4FF054615F0400F05D016222146C0
:102430006120FFF7BDFF00E00126FF21E22000F050
:102440008DF8FF21E12000F089F82946272000F0CF
:1024500085F8304670BD000010B5044600201349D1
:1024600008604FF0050212494FF0300000F058F8B4
:102470000121222000F072F80021242000F06EF8E3
:102480002146252000F06AF81621312000F066F878
:102490000F21262000F062F80E21202000F05EF8C7
:1024A00001200449C1F8B80110BD0000B801224262
:1024B0001C4E00080000224270B505460026002090
:1024C000144908604FF0160229464FF0A00000F0B2
:1024D00027F801201049C1F8B80100BF0F48006873
:1024E0000028FBD14FF00700FFF780FF044614F0EF
:1024F000200F00D02026FF21E22000F02FF8FF213E
:10250000E12000F02BF82146272000F027F8304684
:1025100070BD0000B8012242000022423C0122426C
:102520002DE9F04107460C46154600200A4908608F
:10253000384601F0D7F98046002605E014F8010B73
:1025400001F0D0F9701CC6B2AE42F7DB012002499F
:1025500008604046BDE8F081B401224270B50546EE
:102560000C46002007490860284601F0BBF90646E2
:10257000204601F0B7F901200349C1F8B401304603
:1025800070BD0000B40122420000224210B54FF499
:10259000A06000F03BF810BD70B5002100230F22B1
:1025A000C4780CB3164C246804F4E064C4F5E06409
:1025B000210AC1F10403CA40447804FA03F1847883
:1025C0001440214309010F4C0678A155047804F00A
:1025D0001F050124AC4005786D114FF0E02606EB95
:1025E0008505C5F8004109E0047804F01F050124C1
:1025F000AC40054D0678761145F8264070BD0000C8
:102600000CED00E000E400E080E100E0024901435D
:10261000024A1160704700000000FA050CED00E06E
:1026200070B586B020226946FE4802F065FBC6B24E
:102630009DF802009DF8011000EB012085B2002EEC
:102640007EDDF9488088A8427BD19DF804000128EE
:10265000FAD19DF80300EB2874D00EDCE72872D085
:1026600006DCB12870D0E4286FD0E5286ED1B1E146
:10267000E8286CD0EA28F9D19DE1FD2868D006DC75
:10268000EC2866D0ED2865D0EE28EFD141E1FE2898
:102690007DD0FF28EAD10020E44948706846FEF763
:1026A00015FB002874D16846FFF7E6FD9DF8100081
:1026B00006286ED2DFE800F0862E7403BAA0082048
:1026C000DB494872D848008A00EBC00101EB0010DA
:1026D0004FF6FF7101EA8000D64988820120D44973
:1026E00008739DF80A0000049DF80B1000EB012010
:1026F0009DF80C100844CE4908609DF80D000004B8
:102700009DF80E1000EB01209DF80F100844C849F9
:102710004860B7E06846FFF7AFFDC548007A9DF80E
:102720000910C14A927901FB0200C14908720220D6
:10273000087307204872BC48008A00EBC0010AE019
:1027400002E2FCE1F5E005E114E187E1F5E11AE1DF
:10275000B3E0F9E0CDE001EB00104FF6FF7101EAC4
:102760008000B44988829DF80A0000049DF80B108F
:1027700000EB01209DF80C100844AD4908609DF85D
:102780000D0000049DF80E1000EB012002E07EE039
:1027900079E065E09DF80F100844A549486071E0B4
:1027A0000320A3490873042048729F48008A00EB65
:1027B000C00101EB00104FF6FF7101EA80009D4956
:1027C00088825FE001209A4908730846407A07280A
:1027D00011D00846407A08280DD00020487292484F
:1027E000008A00EBC00101EB00104FF6FF7101EA17
:1027F00080009049888245E001208D490873084691
:10280000407A072811D00846407A08280DD00A20BF
:1028100048728548008A00EBC00101EB00104FF6BA
:10282000FF7101EA8000834988822BE00120804902
:1028300008730846407A072811D00846407A0828CD
:102840000DD00B2048727848008A00EBC00101EBE4
:1028500000104FF6FF7101EA80007649888211E08E
:10286000012073490873002048726F48008A00EB0A
:10287000C00101EB00104FF6FF7101EA80006D49C5
:10288000888200BF00BF00206949486256E19DF878
:1028900006009DF8051000EB01206349888002F0D6
:1028A0006BF8FEF725F900F031FCFEF777FA02200D
:1028B0005F49087301F070FA40E19DF8050000EBF4
:1028C00080004000584908819DF80600C8719DF8B5
:1028D000070000EB80004000488102F04DF8FEF751
:1028E00007F900F013FCFEF759FA0220504908736B
:1028F00024E19DF805004C49088202F03DF8FEF7FE
:10290000F7F800F003FCFEF749FA02204849087383
:1029100014E19DF805004449C87302F02DF8FEF754
:10292000E7F800F0F3FBFEF739FA0220404908739C
:1029300004E19DF805003E490872022008739DF8E5
:10294000060001F077FAF9E0FDF764FE022038494D
:102950000873F3E09DF805003349887002F00CF825
:10296000FEF7C6F800F0D2FBFEF718FA0220304955
:102970000873E3E000202E4988612C49487002204A
:102980002B490873DAE09DF805007D2804DA9DF8EC
:1029900005002549887402E027A0FDF71FFC01F01F
:1029A000EBFFFEF7A5F800F0B1FBFEF7F7F9022008
:1029B0001F490873C2E01E48407A072806D01C4809
:1029C000407A082802D0012019494872002017498E
:1029D0004870B3E09DF8050000EB8000400012490C
:1029E00008829DF8060088709DF80700C8719DF860
:1029F000080008819DF8090048819DF80A00887444
:102A00009DF80B00886108468069000288610846CD
:102A100080699DF80C1008430349886101F0ACFF00
:102A200014E0000064000020940300201000002047
:102A3000F8030020B8030020C6B5B5C0BAC5B3ACD2
:102A4000B3F6CFDED6C60D0A00000000FEF750F840
:102A500000F05CFB0020444948706FE09DF80800DE
:102A6000012863D19DF80900404948600846406844
:102A700000024860084640689DF80A1008433B4938
:102A800048600846406800024860084640689DF873
:102A90000B1008433549486008464068000248600A
:102AA000084640689DF80C100843304948609DF87E
:102AB0000D000860084600680002086008460068CB
:102AC0009DF80E1008432949086008460068000276
:102AD0000860084600689DF80F1008432349086005
:102AE0000846006800020860084600689DF810105B
:102AF00008431E4908600220087308468069496837
:102B000088420FD31948806918494968401A174903
:102B100088610846406808B1092088720C20134972
:102B2000487206E012A0FDF759FB02E001200F49B0
:102B3000087300200C49487000E000BF04E013480F
:102B40008088A84200D100BF0748407850B92022B1
:102B50000F49104802F0D0F8C4B2002C02DD012069
:102B60000149487006B070BD10000020F803002035
:102B7000B7B5BBD8CAFDB4F3D3DAB4E6C8EBCAFD27
:102B8000A3ACB4EDCEF3A3A10D0A00009403002082
:102B90007C040020FC01002010B588B000245C48B3
:102BA000407800287EDD5B49887CFFF7D5FB6846CE
:102BB000FFF732FCB0B95848408840F00100564950
:102BC00048809DF802009DF8011000EB012084B2BE
:102BD00050488088A0420BD1202269464F48FDF71B
:102BE00072FF05E04C48408820F001004A494880C7
:102BF0004748C088002858D145484078022803D06B
:102C000043484078032804D140F6B8304049C88092
:102C100003E04FF47A703E49C8803D488078002830
:102C200004DD3B488078401E3949887038488078F8
:102C300030B93B48C078082802D103203449487095
:102C40003348407802281CD120203549C870022022
:102C50000871FE204871FC208871FE20C871FC209C
:102C6000087217212E480930FDF7CCFB2D48407A19
:102C7000072806D02B48407A082802D00920294985
:102C800048722449887CFFF7E7FB02202449087139
:102C90000846FFF711FC202808D11F48408840F063
:102CA000020000E009E01C4948802EE01A484088F4
:102CB00020F002001849488027E001201449C8800C
:102CC0001449887CFFF748FB6846FFF7A5FBB0B9BD
:102CD0001148408840F001000F4948809DF80200EB
:102CE0009DF8011000EB012084B20A488088A042C0
:102CF0000BD1202269460948FDF7E5FE05E00648AC
:102D0000408820F001000449488008B010BD000050
:102D100010000020940300205C04002064000020C8
:102D20007C040020F803002010B54FF48030FDF73C
:102D300043FE10BD10B503211420FDF7A6FD10BD04
:102D400010B5142000F0FEFC044614F0030F03D16C
:102D50000321142000F014FF10BDF0B587B0054624
:102D6000002708210846FDF790FD00210D2001F005
:102D700051FE80210E20FDF788FD93208DF8040080
:102D800020208DF8050006A801AB022201A90090C1
:102D90000C2000F01AF8064686B9002407E001A8C6
:102DA000005D285501A8005D4740601CC4B2042C9A
:102DB000F5DB01A8005DB84200D0022680210E207C
:102DC00000F0DEFE304607B0F0BD2DE9FE4F0646AE
:102DD000884691469A46DDF830B0022002900020E5
:102DE000019000900C2E06D00E2E09D112200190D9
:102DF0001020009005E0772001903020009000E046
:102E000000BF00BF019840F08001022001F002FEE7
:102E100080210420FDF739FD0021012001F0FAFD99
:102E200080210A2000F0ACFE002506E018F805100D
:102E3000092001F0EFFD681C85B24D45F6DB3146F7
:102E4000012001F0E7FD0C2E03D180210D2000F0C0
:102E500097FE4FF4167500BF042000F073FC044683
:102E6000681E85B22DB114F0010F02D10098044202
:102E7000F2D080210D20FDF708FD002D37D006206F
:102E800000F060FC10F01B0F2FD100200290019881
:102E9000204010F0010F01D0012002900C2E26D10D
:102EA0000A2000F04FFC04460C2000F04BFC00F020
:102EB00007072FB1601E07EBC0008BF8000003E08E
:102EC000E006000E8BF8000004B90124122C00DD8E
:102ED0001224002506E0092000F034FC0AF8050061
:102EE000681C85B2A542F6DB01E002200290802139
:102EF0000C2000F045FE0021012001F08BFD02981E
:102F0000BDE8FE8F10B588B050208DF80800002075
:102F10008DF809000DF10A02022102A8FDF780FCDC
:102F200007A802AB042202A900900C20FFF74DFF76
:102F30000446002008B010BD70B588B005460C46A8
:102F400008210846FDF7A1FC07210D2001F062FDD4
:102F50000321142000F014FE8DF8085007A802ABDE
:102F6000012202A900900C20FFF72FFF064656B958
:102F70009DF81C00102806D19DF8080020709DF8CF
:102F80000900607000E00226304608B070BD000005
:102F900010B501201C4908604FF0020001F0E2FD6D
:102FA00000201A49C1F8A801022001F0DBFD012030
:102FB000154908604FF0020001F0FAFD0F210120D1
:102FC00001F028FD0F21012001F024FD022001F075
:102FD000C9FD3D21112001F01DFD1E212D2001F014
:102FE00019FD00212C2001F015FD8D212A2001F072
:102FF00011FD3E212B2001F00DFD4021152001F097
:1030000009FD002010BD0000A8812142008021425E
:1030100070B588B0054693208DF8080070208DF8B3
:10302000090000208DF80E0000240BE0295D02AAA3
:10303000A01C11549DF80E00295D48408DF80E002B
:10304000601CC4B2042CF1DB0DF10F02072102A8B1
:10305000FDF7E6FB08210846FDF717FC07A802ABC1
:10306000092202A900900C20FFF7AFFE06462EB9F8
:103070009DF81C00182801D1002600E002263046E9
:1030800008B070BD7047000010B51E48408AB0B946
:103090001C48808A022812D11A48806940B9194810
:1030A000806A1849C96A884202D000201549086020
:1030B00000201449888208468069401C88611148B4
:1030C000006AF0B90F4890F83000012819D10E4875
:1030D000007D01280FD10B4AD27A521CD2B2094B83
:1030E000DA7211461A469069FDF712FE0020054972
:1030F00081F8300005E00220024981F8300000200C
:10310000888210BDF80300209403002010B53AA077
:10311000FDF764F84548018845A0FDF75FF843488E
:10312000818848A0FDF75AF84048816949A0FDF719
:1031300055F83E4881794CA0FDF750F83B48C179DD
:103140004DA0FDF74BF83948418951A0FDF746F8ED
:103150003648018955A0FDF741F83448017B5AA053
:10316000FDF73CF83148827B417B5BA0FDF736F8E8
:103170002E48018A61A0FDF731F82C48817C65A0BA
:10318000FDF72CF82948C16966A0FDF727F8274804
:10319000016A69A0FDF722F86CA0FDF71FF823482B
:1031A000807820B1012806D002280CD107E06BA05E
:1031B000FDF714F80BE06BA0FDF710F807E06BA02B
:1031C000FDF70CF803E06BA0FDF708F800BF00BFA7
:1031D000164881786AA0FDF701F86CA0FCF7FEFFA5
:1031E0001248C07B18B16CA0FCF7F8FF02E06CA09D
:1031F000FCF7F4FF10BD0000B6C1C8A1CFB5CDB338
:10320000B2CECAFD2D2D2D2D2D2D2D2D2D2D2D2D5B
:103210002D2D2D2D2D2D2D2D2D2D2D2D2D2D2D2DDE
:103220002D2D2D2D2D3A0D0A0000000094030020B5
:10323000CFB5CDB3B1EAD6BEA3BA307825780D0AA2
:1032400000000000B6C1CDB74944A3BA25640D0AF9
:1032500000000000CFFBB7D1BDF0B6EEA3BA2564E5
:10326000B7D60D0A00000000CDB6B1D2B1B6C2CAC1
:10327000A3BA25640D0A0000CDB6B1D2BFDAB3A35C
:10328000CCACB5E7C6BDA3BA25640D0A00000000AA
:10329000C9CFB1D2BFDAC2F6B3E5BCE4B8F4CAB163
:1032A000BCE4A3BA2564206D730D0A00C9CFB1D266
:1032B000BFDAC2F6B3E5B3D6D0F8CAB1BCE4A3BA5C
:1032C00025646D730D0A0000B6C1CDB7C0E0D0CD46
:1032D000A3BA25640D0A0000C8EDBCFEB0E6B1BE7D
:1032E000BAC5A3BA25642020D3B2BCFEB0E6B1BEF5
:1032F000BAC5A3BA2564200D0A000000CFD4CABE07
:10330000CDA3C1F4CAB1BCE4A3BA256420730D0AED
:1033100000000000B6C1CDB7C6B5B5C0A3BA2564DC
:10332000200D0A00D3C3BBA76963BFA8BAC5CEAA44
:10333000A3BA2564200D0A00D3C3BBA7B2CAC6B185
:10334000CAFDCEAAA3BA2564200D0A00BDF0B6EED0
:10335000CFD4CABEB5A5CEBBA3BA0000CEDE0D0A3F
:1033600000000000D4AA0D0A00000000B1D20D0A2E
:1033700000000000CEB4B6A8D2E50D0A000000009F
:10338000B5A5BCDBA3BA2564200D0A00CFD4CABE04
:10339000B7BDCFF2A3BA0000D5FDCFF20D0A0000F1
:1033A000B7B4CFF20D0A000001460868704700006C
:1033B00010B524492620FFF7BFFD002841D1214840
:1033C0001230FFF7CAFC00283BD11E481230FFF72D
:1033D0001FFE70BB01201B4981F822001A48407A69
:1033E000012827D11848C06A174988621548807C8F
:1033F00001061448C07C01EB00411248007D01EB3E
:1034000000211048407D08440F4948620846406A40
:10341000C86214200D4988700B4AD27A521CD2B26D
:10342000094BDA7211461A46506AFDF711FDFFF793
:1034300069FD06E0FFF766FD0D2003494872012093
:10344000087310BDD4030020F803002010000020F2
:1034500029B1064AD2690243044BDA6104E0034A07
:10346000D2698243014BDA617047000000100240CC
:1034700029B1064A12690243044B1A6104E0034A67
:1034800012698243014B1A6170470000001002402C
:1034900029B1064A92690243044B9A6104E0034A47
:1034A00092698243014B9A6170470000001002400C
:1034B00029B1064AD2680243044BDA6004E0034AA9
:1034C000D2688243014BDA6070470000001002406E
:1034D0000F48006840F001000D4908600846406848
:1034E0000C4908400A494860084600680A490840F3
:1034F000074908600846006820F4802008600846F4
:10350000406820F4FE0048604FF41F008860704758
:10351000001002400000FFF8FFFFF6FE30B500216A
:103520000022002400232D4D6D6805F00C0121B10F
:10353000042905D0082923D105E0294D056022E0A2
:10354000274D05601FE0254D6D6805F47012234D71
:103550006D6805F48034022505EB92421CB9214DBB
:10356000554305600BE01D4D6D6815F4003F03D019
:103570001C4D5543056002E0194D5543056002E0BE
:10358000174D056000BF00BF144D6D6805F0F001D8
:103590000909154D6B5C0568DD4045600F4D6D6890
:1035A00005F4E061090A104D6B5C4568DD408560FB
:1035B0000A4D6D6805F46051C90A0B4D6B5C456896
:1035C000DD40C560054D6D6805F44041890B074D30
:1035D0006B5CC568B5FBF3F5056130BD00100240BA
:1035E00000127A0000093D00500000206000002019
:1035F00010B501460022002300204A11012A02D101
:10360000094C236806E0022A02D1074C236A01E034
:10361000054C636A01F01F02012494401C4201D052
:10362000012000E0002010BD001002400248406868
:1036300000F00C007047000000100240014600201E
:10364000034A506820F0F0000843506070470000C3
:10365000001002400149086070470000000042422B
:1036600001460020034A506820F4E060084350609F
:10367000704700000010024001460020034A5068D5
:1036800020F4605040EAC1005060704700100240D2
:1036900001490866704700000000424202460020CF
:1036A000044B586820F47C1042EA01031843014B94
:1036B000586070470010024001460020034A5068DD
:1036C00020F00300084350607047000000100240E3
:1036D00010B51948807A0A281FD2DFE800F01E05CD
:1036E0000E1115181B1C1D121448C07D20B90A208C
:1036F0001249C875FDF746FE10E000F00BFA0DE028
:103700000CE000F01BFA09E000F00EFA06E000F011
:1037100037F803E002E001E000E000BF00BF084925
:103720000888FCF7B9FF06494888FCF7ABFF044955
:103730008888FCF79DFF10BDF8030020B803002027
:103740003804002070B50446002600200A490860AD
:103750004FF07E0000EA440040F08005284600F06B
:1037600063F8002000F060F8064601200349C1F824
:103770009001304670BD00009001214200002142BE
:103780000F48008BD8B94FF496700D4908830D4847
:10379000007808B9012000E000200A4908700846B6
:1037A000007838B14FF47A700749088002204880C9
:1037B000888004E00220044908804880888070479F
:1037C000B80300200D0000203804002000B585B0AB
:1037D00001210803FFF75CFE0020ADF800004FF464
:1037E0008270ADF802000020ADF80400ADF80600CC
:1037F000ADF808004FF40070ADF80A003820ADF8BD
:103800000C000020ADF80E000720ADF8100069464E
:10381000044800F0BFF80121024800F0A1F805B00B
:1038200000BD00000030014070B50546002405E0F1
:10383000601CC4B2C82C01DD002070BD02210E48FE
:1038400000F09AF80028F3D029460B4800F0A0F8C1
:10385000002405E0601CC4B2C82C01DD0020ECE7A8
:103860000121054800F088F80028F3D0024800F054
:103870008CF8C0B2E1E700000030014000B585B02F
:1038800001218803FFF7E4FD0020ADF800004FF4AC
:103890008270ADF802000020ADF80400ADF806001B
:1038A000ADF808004FF40070ADF80A001820ADF82C
:1038B0000C000020ADF80E000720ADF8100069469E
:1038C000074800F067F8102000F036F8012104489E
:1038D00000F046F8FF2000F005F805B000BD00003C
:1038E0000038004070B50546002405E0601CC4B2F5
:1038F000C82C01DD002070BD02210E4800F03CF80C
:103900000028F3D029460B4800F042F8002405E0D7
:10391000601CC4B2C82C01DD0020ECE70121054881
:1039200000F02AF80028F3D0024800F02EF8C0B2C8
:10393000E1E700000038004010B504460748008861
:103940004FF6C771084005490880084600882043A3
:1039500008800121014800F003F810BD0038004044
:1039600021B1028842F04002028004E002884FF652
:10397000BF731A40028070470246002013890B4231
:1039800001D0012000E0002070470146888970477F
:103990008181704710B50022028802F441520B88E1
:1039A0004C8823438C882343CC8823430C892343AE
:1039B0004C8923438C892343CC8923431A430280B7
:1039C000838B4FF2FF74234083830B8A038210BDE5
:1039D00030B503460C461546002207E0184600F0B5
:1039E00008F824F812009B1C501C82B2AA42F5DB96
:1039F00030BD0146088870472DE9F05F80468A4651
:103A000017463548804502D33448804501D3BDE888
:103A1000F09FFDF73BF93048A8EB000B4FEA9B25E0
:103A2000CBF34809C9F50074A74200DC3C464DE0E1
:103A30002BA0FCF7D3FB284901EB85208A142949E8
:103A4000FFF7C6FF00260BE009EB0600254931F819
:103A50001000A0F57F41FF3900D003E0701C86B252
:103A6000A642F1DB00BFA64219DA1B4901EB852013
:103A7000FDF788F8002608E03AF8160006EB090181
:103A8000184A22F81100701C86B2A642F4DB1249D3
:103A900001EB85208A14134900F026F804E0224641
:103AA0005146404600F020F8A74200D10FE06D1CBF
:103AB0004FF000090AEB440AA044381B87B2B7F55F
:103AC000007F02DD4FF4007400E03C46B0E700BF29
:103AD000FDF798F800BF9AE700000108000002080F
:103AE000310D0A00DE0800202DE9F04105460E46A2
:103AF0001746FDF7CBF8002407E036F814102846E7
:103B0000FDF798F8AD1C601C84B2BC42F5DBBDE843
:103B1000F08170474FF47A70024908800220488093
:103B200088807047380400204FF47A70024908807A
:103B30004880022088807047380400200E48C08BDF
:103B4000C0B90E48007848B901200C4908704FF4FC
:103B50007A70094948800220888008E000200749DF
:103B600008700220044948804FF47A70888032201F
:103B70000149C88370470000380400200C00002071
:103B800070B505460C4600262846FFF7DBFD0646C5
:103B900046EA0401284600F03DFF70BDFF201149B0
:103BA00081F83100FF210F4880F8321080F833107F
:103BB00080F8341080F8351080F83610A22180F893
:103BC0003C10892180F83B10772180F83A10C921F8
:103BD00080F83910D12180F838105520014981F83A
:103BE00037007047F80300207047000008B50D4803
:103BF00090F8220001280CD100200A4981F8220007
:103C0000012008236D22032100906820FEF70EF9A1
:103C100007E0002008236D22032100906820FEF7B2
:103C200005F908BDD40300200EB501200C237F2226
:103C3000194600900020FEF7A3F801200BA10C22EA
:103C4000CDE9002102900A4802880C2300210F20B0
:103C5000FEF7C6F981200C21CDE9001005488288C5
:103C60000A2300212320FEF74DFA0EBD49443A00F5
:103C7000180000209403002008B52C48807810F02C
:103C8000010F16D02948408820F0010027494880BC
:103C9000012008236222022100901046FEF770F8EE
:103CA000012006236022082100906220FEF768F8B8
:103CB0000FE0002008236222022100901046FEF748
:103CC0005FF8002006236022082100906220FEF7A2
:103CD00057F81648807810F0020F16D01348408825
:103CE00020F00200114948800120082364220221AB
:103CF00000901046FEF744F80120062366220221B8
:103D000000906420FEF73CF80FE0002008236422B6
:103D1000022100901046FEF733F8002006236622A9
:103D2000022100906420FEF72BF808BD5C040020FF
:103D300010B5FFF7CDFB0120FFF78CFC00BF212061
:103D4000FFF756FC0028FAD00020FFF777FC002090
:103D5000FFF792FC4FF48060FFF782FC0220FCF733
:103D600089FF1020FCF758FF4FF460110020FFF787
:103D700095FC0120FFF78CFC00BF3920FFF738FCD1
:103D80000028FAD00220FFF797FC00BFFFF74EFC97
:103D90000828FBD110BD00000148024908607047A7
:103DA0000400FA050CED00E0042808D14FF0E021F2
:103DB000096941F004014FF0E022116107E04FF082
:103DC000E021096921F004014FF0E0221161704700
:103DD0007047000010B51348006840F00100114919
:103DE000086008464068104908400E494860084687
:103DF00000680E4908400B4908600846006820F436
:103E0000802008600846406820F4FE0048604FF4B7
:103E10001F008860FFF7E8FE4FF00060044908606B
:103E200010BD0000001002400000FFF8FFFFF6FE8A
:103E300008ED00E010B5044690211548FCF729FE76
:103E40001448808801121248FCF723FE11480179BA
:103E50000F48FCF71EFE40210D48FCF71AFE022118
:103E60000B48FCF716FE21460948FCF712FEFE211E
:103E70000748FCF70EFEFC210548FCF70AFEFE2170
:103E80000348FCF706FEFC210148FCF702FE10BDCA
:103E9000FC0100209403002010B50121614800F0CE
:103EA0005DFA00287ED0FFF7EFF8FDF721F95E48B4
:103EB000408B002804DD5C48408B401E5A494883F3
:103EC00059484089002804DD57484089401E56491A
:103ED000488155488088002804DD53488088401E6A
:103EE0005149888050488079002804DD4E48807907
:103EF000401E4D4988714C480078002804DD4A482E
:103F00000078401E484908704748007B002804DDBF
:103F10004548007B401E444908734348C089002837
:103F200004DD4148C089401E3F49C8813E48008A9F
:103F3000002804DD3C48008A401E3B4908823B487B
:103F4000408A002804DD3948408A401E37494882AB
:103F50003648008A002804DD3448008A401E334970
:103F600008823248006A20B13048006A401E2F495A
:103F700008622D48008B002804DD2B48008B401E72
:103F8000294908832848808A002804DD2648808A39
:103F9000401E254988822448807D002806DD22486D
:103FA000807D00E038E0401E1F4988751E48C07DB6
:103FB000002804DD1C48C07D401E1B49C8751C48F4
:103FC000C088002804DD1A48C088401E1849C880EF
:103FD0001848C088002804DD1648C088401E1549CE
:103FE000C88014484089002804DD12484089401EDA
:103FF000104948810F480089002804DD0D480089D8
:10400000401E0C4908810B48C08B002804DD09487C
:10401000C08B401E0749C8830121024800F09AF86E
:1040200010BD000000040040B8030020F803002089
:1040300010000020380400207FB505460C46012101
:104040000220FFF705FAADF80850ADF80440002053
:10405000ADF80A00ADF8060001A90E4800F0AEFA6E
:10406000012241210B4800F08AF90121094800F0A2
:1040700074F81D208DF8000001208DF80100022049
:104080008DF8020001208DF803006846FEF784FADF
:104090007FBD00000004004030B587B005460C46E7
:1040A00001210420FFF7D4F9234800F063F8ADF8AC
:1040B0001450ADF810400020ADF81600ADF8120015
:1040C00004A91D4800F07AFA6020ADF80000012034
:1040D000ADF802000020ADF808006946164800F06F
:1040E0000DFA0821144800F059FA6946124800F008
:1040F000A5F90821104800F0F3F969460E4800F0D0
:1041000047F908210C4800F08FF901210A4800F016
:1041100015F80021084800F04EFA0021064800F08A
:1041200048FA0021044800F042FA0121024800F058
:1041300014F807B030BD00000008004021B102882B
:1041400042F08002028004E002884FF67F731A403A
:1041500002807047CA430282704721B1028842F050
:104160000102028004E002884FF6FE731A400280CA
:104170007047000010B504466848844208D1012108
:10418000C014FFF795F90021E014FFF791F9C4E09E
:10419000B4F1804F08D101210846FFF769F90021E9
:1041A0000120FFF765F9B8E05D48844208D101219C
:1041B0000220FFF75DF900210220FFF759F9ACE07A
:1041C0005848844208D101210420FFF751F9002109
:1041D0000420FFF74DF9A0E05348844208D10121A3
:1041E0000820FFF745F900210820FFF741F994E086
:1041F0004E48844208D101211020FFF739F90021EF
:104200001020FFF735F988E04948844208D10121A0
:104210002020FFF72DF900212020FFF729F97CE06D
:104220004448844208D101214014FFF741F900219C
:104230006014FFF73DF970E03F48844209D1012145
:10424000C804FFF735F900214FF40020FFF730F9DB
:1042500063E03A48844209D101210805FFF728F9B3
:1042600000214FF48010FFF723F956E034488442D0
:1042700009D101214805FFF71BF900214FF4001077
:10428000FFF716F949E02F48844208D10121402068
:10429000FFF7EEF800214020FFF7EAF83DE02A485A
:1042A000844208D101218020FFF7E2F8002180201C
:1042B000FFF7DEF831E02548844208D1012180155E
:1042C000FFF7D6F80021A015FFF7D2F825E0204827
:1042D000844209D101210804FFF7EAF800214FF4D4
:1042E0008030FFF7E5F818E01A48844209D101212F
:1042F0004804FFF7DDF800214FF40030FFF7D8F84D
:104300000BE01548844208D101218804FFF7D0F85A
:1043100000214FF48020FFF7CBF810BD002C0140A6
:104320000004004000080040000C00400010004065
:104330000014004000340140004C01400050014096
:104340000054014000180040001C004000200040C4
:1043500000400140004401400048014030B50246A1
:10436000002000230024158A05EA0103958905EA47
:10437000010413B10CB1012000E0002030BD1AB1DE
:1043800083890B43838102E083898B438381704758
:1043900070B5002400220023058C4FF6FE763540D0
:1043A0000584028C8388048B4FF68F752C40B51ED4
:1043B0002C400D882C43751E2A400D892A434D88B8
:1043C0002A43144DA8420BD0134DA84208D0134DD8
:1043D000A84205D0124DA84202D0124DA84213D1D6
:1043E0004FF6F7752A404D892A434FF6FB752A4050
:1043F0008D882A434FF6FF652B404FF6FF552B4023
:104400008D892B43CD892B4383800483CD8885867A
:10441000028470BD002C0140003401400040014086
:1044200000440140004801400A460021018B4FF63C
:10443000F7731940114301837047000070B50024E1
:1044400000220023058C4FF6EF7635400584028C60
:104450008388048B48F6FF752C404FF6FF452C40AF
:104460000D884FF6FF7606EA05252C434FF6DF75DB
:104470002A400D8906EA05152A434D8806EA0515E6
:104480002A43154DA84202D0144DA8421DD14FF623
:104490007F752A404D894FF6FF7606EA05152A43B7
:1044A0004FF6BF752A408D8806EA05152A434FF658
:1044B000FF352B404FF2FF752B408D8906EA8505AD
:1044C0002B43CD8906EA85052B4383800483CD8861
:1044D0000587028470BD0000002C014000340140BB
:1044E0000A460021018B4FF2FF7319404FF6FF730C
:1044F00003EA0223194301837047000070B50024CA
:1045000000220023058C4FF6FF6635400584028C9F
:104510008388848B4FF68F752C404FF6FC752C40AA
:104520000D882C434FF6FF552A400D894FF6FF7634
:1045300006EA05252A434D8806EA05252A43154D36
:10454000A84202D0144DA8421DD14FF2FF752A4057
:104550004D894FF6FF7606EA05252A434FF6FF35CB
:104560002A408D8806EA05252A434EF6FF752B4022
:104570004DF6FF752B408D8906EA05152B43CD8935
:1045800006EA05152B4383808483CD8885870284C2
:1045900070BD0000002C0140003401400A4600219B
:1045A000818B4FF6F77319401143818370478186E1
:1045B000704701877047818770470000002202889A
:1045C0001D4B98420ED01D4B98420BD0B0F1804F3E
:1045D00008D01B4B984205D01A4B984202D01A4B78
:1045E000984204D14FF68F731A404B881A43174BE9
:1045F000984207D0164B984204D04FF6FF431A401A
:10460000CB881A4302808B8883850B8803850A4BED
:1046100098420BD0094B984208D00E4B984205D0D7
:104620000D4B984202D00D4B984201D10B7A038674
:104630000123838270470000002C014000340140B8
:104640000004004000080040000C00400010004042
:104650000014004000400140004401400048014077
:1046600010B540F225511D4800F098F810B31B48D2
:1046700000F050F9C4B21A48008810F4004F2BD152
:104680001748008810F4804F0CD00A2C03D000206B
:104690001349088020E01248008840F40040104987
:1046A000088019E00D2C06D10D48008840F48040A8
:1046B0000B49088010E00A480088C0F30D00094942
:1046C0000C5407480088401C0549088008460088AB
:1046D000C72801DD0020088010BD0000003801401F
:1046E000480000202633002021B1828942F4005284
:1046F000828104E082894DF6FF731A4082817047FF
:1047000010B504462048844209D101218803FEF7F0
:10471000CFFE00214FF48040FEF7CAFE32E01B4876
:10472000844209D101214804FEF7A2FE00214FF482
:104730000030FEF79DFE25E01548844209D1012195
:104740008804FEF795FE00214FF48020FEF790FECE
:1047500018E01048844209D10121C804FEF788FE00
:1047600000214FF40020FEF783FE0BE00A4884424C
:1047700008D101210805FEF77BFE00214FF48010CF
:10478000FEF776FE10BD00000038014000440040F6
:1047900000480040004C00400050004070B5024608
:1047A0000024002300250020A1F510666A3E00D1F8
:1047B00000BFC1F3421501F01F03012606FA03F3FF
:1047C000012D02D19689334006E0022D02D1168ACE
:1047D000334001E0968A33400C12012606FA04F4B5
:1047E0001688344013B10CB1012000E0002070BDE8
:1047F000F0B503460024002600250020A1F510672F
:104800006A3F00D100BF1846C1F3421401F01F06F1
:10481000012707FA06F5012C01D10C3004E0022C27
:1048200001D1103000E014301AB107682F4307603F
:1048300002E00768AF430760F0BD00002DE9F047D4
:1048400086B005460E460024A24600BFA1460027BA
:10485000B08900B100BF2F462C8A4CF6FF7004408F
:10486000F08804432C82AC894EF6F3100440B088E3
:1048700031890843718908430443AC81AC8A4FF6FF
:10488000FF400440B0890443AC8201A8FEF746FE15
:104890001F48874202D1DDF810A001E0DDF80CA02E
:1048A000A88910F4004F08D00AEBCA0000EB0A10E8
:1048B00031684900B0FBF1F807E00AEBCA0000EBF1
:1048C0000A1031688900B0FBF1F86420B8FBF0F001
:1048D00004012009642101FB1089A88910F4004F0C
:1048E00008D0322000EBC900B0FBF1F000F0070067
:1048F000044308E0322000EB09106421B0FBF1F022
:1049000000F00F0004432C8106B0BDE8F0870000E2
:104910000038014001468888C0F30800704700BF96
:10492000FEE7000010B501201249088088700A20B7
:10493000888001208871C871502008814FF49670DA
:104940004881002008732C204873202088730120A0
:10495000C8731E20088264208874C87401200875FA
:104960004FF4AF7088610020C861086200F004F85D
:1049700010BD00009403002000B58BB023480088D0
:10498000ADF8040021488078ADF806001F48808803
:10499000ADF808001D488079ADF80A001B48C079C1
:1049A000ADF80C0019480089ADF80E001748007BDF
:1049B000ADF810001548407BADF812001348807B1D
:1049C000ADF814001148C07BADF816000F48008AFE
:1049D000ADF818000D484089ADF81A000B48807CEE
:1049E000ADF81C000948C07CADF81E000748007DEA
:1049F000ADF820000548008B80B2ADF822001422EB
:104A000001A90348FEF7F8FF0BB000BD9403002096
:104A10000000010870B504460D46002008490860F2
:104A20004FF07E0000EA44063046FEF7FDFE2846C1
:104A3000FEF7FAFE01200349C1F8900170BD0000A5
:104A4000900121420000214201460022114B1A60D0
:104A5000114BC3F8AC21104615E000220F4B1A6031
:104A600001FA00F212F0800F03D001220C4B1A6001
:104A700002E000220A4B1A604FF00102074B1A6055
:104A800000F10102D0B20828E7DB0122054B1A60D1
:104A900070470000848121420080214280812142B0
:104AA00084012142AC81214201460122124B1A604D
:104AB0004FF00002114BC3F8AC21104615E0002264
:104AC0000F4B1A6001FA00F212F0800F03D001229E
:104AD0000C4B1A6002E000220A4B1A604FF00102F0
:104AE000074B1A6000F10102D0B20828E7DB01226F
:104AF000054B1A60704700008481214200802142EA
:104B00008081214284012142AC81214230380A282F
:104B100001D20120704700207047014600BF704756
:104B200010B56FF00400FFF73FF90A4800680A4922
:104B3000B0FBF1F0094908700846007800EB40012D
:104B4000C1EBC0104FF6FF7101EAC00004490880B4
:104B500010BD00002400002000127A004200002056
:104B6000440000200146114A12884A434FF0E023D6
:104B70005A6100229A611A46126942F001021A61D2
:104B800000BF4FF0E022106910F0010F02D010F4C6
:104B9000803FF6D04FF0E022126922F001024FF080
:104BA000E0231A6100229A6170470000440000204F
:104BB000002103E000BF00BF00BF491C8142F9D3C0
:104BC0007047000000BF054A128812F0400FFAD06B
:104BD000C2B2024B1B1D1A80704700000038014012
:104BE000FFF7A6F801210846FEF752FC01213A48DA
:104BF000FCF732FAFCF782F9FFF792FFFDF7C6FCEB
:104C00004FF4E13000F0D2F83448FBF751FE34485D
:104C1000FBF74EFE33480021C0F812100020324945
:104C20004862FDF7E3FAFCF769FB40F27F2164205C
:104C3000FFF702FAFDF720F9FDF774FB0DE0FCF732
:104C400051FF0120FBF732FDC820FFF78BFF00204A
:104C5000FBF72CFDC820FFF785FFFDF73DFB002883
:104C6000EDD1022020490873012048721F48008AB4
:104C700000EBC00101EB00104FF6FF7101EA80006C
:104C80001B49888240F271210420FCF736FBFCF7B7
:104C900085F8FEF783FF4FF47A70FFF763FFFBF7A9
:104CA00051FE18E01248807948B9FCF725FB1148FD
:104CB000407808B9FEF77CFB64200D498871FDF748
:104CC00081FAFDF7ADFCFDF767FFFCF771FCFBF720
:104CD000F3FCFEF7FDFCE5E7000230006400002075
:104CE000FC010020D4030020F803002094030020DE
:104CF000B803002010000020F8B507460C46154602
:104D00000026002000903846FEF74EFB06463EE0A7
:104D100069463846FBF7D1FD1F48006828B99DF861
:104D20000000902801D00020F8BD1B480068A84270
:104D300009D29DF80010184802680068401C164B04
:104D40001860A1540DE000201349086000261349A3
:104D500008603846FBF7A7FD11A0FBF73FFA0020DB
:104D6000E2E79DF800000D49096840EA01200B497F
:104D70000860084600680C49884208D10648066861
:104D8000002006490860044908603046CCE7002E40
:104D9000BED10020C8E700003C0000203800002001
:104DA000D6A1D2E7B3F60000FCFEFCFE10B586B03B
:104DB000044601218803FEF76BFB1748FFF7A0FCB0
:104DC00002940020ADF80C00ADF80E00ADF8100014
:104DD000ADF814000C20ADF8120002A90E48FFF740
:104DE0002DFD25208DF8040003208DF805008DF899
:104DF000060001208DF8070001A8FDF7CDFB012278
:104E000040F225510448FFF7F3FC01210248FFF767
:104E10006BFC06B010BD0000003801403443101098
:104E200001344310100100000000000000000000E9
:104E30000000000000003F400000000000000000F3
:104E40003000400030004000000009000BC03D0071
:104E50000BC03D00090018C024407FE02240318093
:104E60000000180024C01B000D8032400180038028
:104E70001C4027401C8007400040100060000000DC
:104E80000000000000000000000000001F80204023
:104E900040200000402020401F800000000009004A
:104EA00006001F80060009000000040004003F8087
:104EB000040004000000001000600000000000007A
:104EC00000000400040004000400040000000000CE
:104ED00000400000000000000000002001C00600AB
:104EE0003800400000001F802040204020401F80EC
:104EF0000000000010403FC000400000000018C04B
:104F000021402240244018400000108020402440CE
:104F100024401B80000002000D0011003FC0014032
:104F200000003C80244024402440238000001F8057
:104F3000244024403440038000003000200027C07B
:104F40003800200000001B802440244024401B80A7
:104F500000001C0022C0224022401F8000000000F0
:104F60000000084000000000000000000000046095
:104F7000000000000000000004000A001100208072
:104F80004040090009000900090009000000000074
:104F90004040208011000A00040018002000234037
:104FA0002400180000001F802040274029401F4097
:104FB0000000004007C039000F0001C00040204041
:104FC0003FC0244024401B8000001F802040204020
:104FD00020403080000020403FC0204020401F8003
:104FE000000020403FC024402E4030C00000204040
:104FF0003FC024402E00300000000F0010802040F1
:1050000022403380020020403FC0040004003FC023
:105010002040204020403FC0204020400000006051
:10502000202020203FC02000200020403FC02440FE
:105030000B0030C0204020403FC0204000400040D6
:1050400000C03FC03C0003C03C003FC00000204007
:105050003FC00C4023003FC020001F802040204064
:1050600020401F80000020403FC024402400180042
:1050700000001F802140214020E01FA000002040B0
:105080003FC02440260019C0004018C024402440DE
:10509000224031800000300020403FC020403000DE
:1050A000000020003F80004000403F8020002000A2
:1050B0003E0001C0070038002000380007C03C0057
:1050C00007C038000000204039C0060039C0204029
:1050D00000002000384007C0384020000000304069
:1050E00021C02640384020C00000000000007FE0C2
:1050F000402040200000000070000C0003800040B1
:1051000000000000402040207FE000000000000080
:1051100020004000200000000000001000100010DF
:10512000001000100010000000004000000000000F
:105130000000000002800540054003C00040200040
:105140003FC004400440038000000000038004408E
:1051500004400640000000000380044024403FC09B
:1051600000400000038005400540034000000000AF
:1051700004401FC0244024402000000002E00550ED
:1051800005500650042020403FC00440040003C0E6
:1051900000400000044027C0004000000000001054
:1051A0000010041027E00000000020403FC0014034
:1051B000070004C00440204020403FC000400040A1
:1051C000000007C0040007C0040003C00000044042
:1051D00007C00440040003C00040000003800440F6
:1051E000044003800000041007F0045004400380D2
:1051F0000000000003800440045007F00010044049
:1052000007C0024004000400000000000640054002
:10521000054004C00000000004001F80044000405E
:105220000000040007800040044007C00040040064
:10523000070004C0018006000400060001C007004A
:1052400001C006000000044006C0010006C0044082
:1052500000000410071004E00180060004000000B4
:10526000044005C0064004400000000000000400A7
:105270007BE040200000000000000000FFF0000084
:105280000000000040207BE004000000000040001F
:1052900080004000200020004000000000000000CE
:1052A00000000000000000000000000000000000FE
:1052B0001FCC000C000000000000000008003000BF
:1052C00060000800300060000000022003FC1E2087
:1052D000022003FC1E200220000000000E18110412
:1052E0003FFF10840C78000000000F0010840F387E
:1052F00000C0077818840078000000780F8410C47C
:1053000011240E9800E40084000808006800700072
:10531000000000000000000000000000000000008D
:1053200007E018182004400200000000400220049A
:10533000181807E000000000000002400240018051
:105340000FF00180024002400000008000800080D9
:105350000FF800800080008000000001000D000EAA
:10536000000000000000000000000000008000803D
:10537000008000800080008000800000000C000C95
:1053800000000000000000000000000000060018FF
:1053900000600180060018002000000007F00808E7
:1053A00010041004080807F00000000008040804B6
:1053B0001FFC000400040000000000000E0C10148C
:1053C0001024104411840E0C000000000C1810046E
:1053D0001104110412880C700000000000E003208A
:1053E000042408241FFC0024000000001F981084DF
:1053F00011041104108810700000000007F00888E4
:105400001104110418880070000000001C00100036
:1054100010FC13001C001000000000000E381144A6
:105420001084108411440E38000000000700088C1E
:1054300010441044088807F000000000000000003D
:10544000030C030C0000000000000000000000013D
:105450000106000000000000000000000080014084
:10546000022004100808100400000220022002207C
:105470000220022002200220000000001004080880
:105480000410022001400080000000000E00120005
:10549000100C106C10800F00000003E00C1813E4D7
:1054A000142417C4082807D000000004003C03C4DB
:1054B0001C40074000E4001C000410041FFC110401
:1054C000110411040E880070000003E00C18100491
:1054D0001004100410081C10000010041FFC10041D
:1054E00010041004080807F0000010041FFC110449
:1054F000110417C410040818000010041FFC110444
:10550000110017C010000800000003E00C18100480
:10551000100410441C780040000010041FFC10848C
:105520000080008010841FFC100400001004100490
:105530001FFC100410040000000000030001100113
:1055400010011FFE10001000000010041FFC1104C9
:1055500003801464181C1004000010041FFC1004C5
:10556000000400040004000C000010041FFC1F00D5
:1055700000FC1F001FFC1004000010041FFC0C04A2
:10558000030000E010181FFC100007F008081004CA
:1055900010041004080807F0000010041FFC108419
:1055A0001080108010800F00000007F008181024F1
:1055B0001024101C080A07F2000010041FFC11043C
:1055C000110011C011300E0C000400000E1C11045B
:1055D0001084108410441C380000180010001004BF
:1055E0001FFC100410001800000010001FF8100429
:1055F0000004000410041FF8100010001E0011E049
:10560000001C007013801C0010001FC0103C00E044
:105610001F0000E0103C1FC000001004180C1634DE
:1056200001C001C01634180C100410001C00130433
:1056300000FC13041C00100000000804101C10647F
:10564000108413041C041018000000000000000067
:105650007FFE4002400240020000000030000C00CB
:1056600003800060001C00030000000040024002B4
:1056700040027FFE0000000000000000000020004B
:105680004000400040002000000000010001000137
:105690000001000100010001000100004000400085
:1056A000200000000000000000000000009801241D
:1056B00001440144014400FC000410001FFC008868
:1056C00001040104008800700000000000700088E0
:1056D000010401040104008800000000007000883B
:1056E0000104010411081FFC0004000000F801443B
:1056F00001440144014400C8000000000104010409
:105700000FFC1104110411001800000000D601293B
:105710000129012901C90106000010041FFC0084B1
:1057200001000100010400FC000400000104190450
:1057300019FC000400040000000000000003000148
:105740000101190119FE0000000010041FFC0024D3
:10575000004001B4010C010400000000100410041A
:105760001FFC0004000400000000010401FC01040F
:10577000010001FC0104010000FC010401FC0084A3
:1057800001000100010400FC0004000000F8010415
:1057900001040104010400F80000010101FF00857B
:1057A00001040104008800700000000000700088FF
:1057B00001040104010501FF00010104010401FCD1
:1057C00000840104010001800000000000CC0124DD
:1057D00001240124012401980000000001000100BF
:1057E00007F80104010400000000010001F80004B2
:1057F00000040004010801FC0004010001800170A4
:10580000000C001001600180010001F0010C00306B
:1058100001C00030010C01F0010000000104018C06
:1058200000740170018C010400000101018101710B
:10583000000E001801600180010000000184010CCD
:10584000013401440184010C00000000000000004C
:10585000000001003EFC4002400200000000000089
:105860000000FFFF000000000000000040024002B6
:105870003EFC01000000000000000000600080000D
:1058800080004000400020002000000000000000D8
:105890000000000000000000000000000000000008
:1058A0001FCC000C000000000000000008003000C9
:1058B00060000800300060000000022003FC1E2091
:1058C000022003FC1E200220000000000E1811041C
:1058D0003FFF10840C78000000000F0010840F3888
:1058E00000C0077818840078000000780F8410C486
:1058F00011240E9800E4008400080800680070007D
:105900000000000000000000000000000000000097
:1059100007E01818200440020000000040022004A4
:10592000181807E00000000000000240024001805B
:105930000FF00180024002400000008000800080E3
:105940000FF800800080008000000001000D000EB4
:105950000000000000000000000000000080008047
:10596000008000800080008000800000000C000C9F
:105970000000000000000000000000000006001809
:1059800000600180060018002000000007F00808F1
:1059900010041004080807F00000000008040804C0
:1059A0001FFC000400040000000000000E0C101496
:1059B0001024104411840E0C000000000C18100478
:1059C0001104110412880C700000000000E0032094
:1059D000042408241FFC0024000000001F981084E9
:1059E00011041104108810700000000007F00888EE
:1059F0001104110418880070000000001C00100041
:105A000010FC13001C001000000000000E381144B0
:105A10001084108411440E38000000000700088C28
:105A200010441044088807F0000000000000000047
:105A3000030C030C00000000000000000000000147
:105A4000010600000000000000000000008001408E
:105A50000220041008081004000002200220022086
:105A6000022002200220022000000000100408088A
:105A70000410022001400080000000000E0012000F
:105A8000100C106C10800F00000003E00C1813E4E1
:105A9000142417C4082807D000000004003C03C4E5
:105AA0001C40074000E4001C000410041FFC11040B
:105AB000110411040E880070000003E00C1810049B
:105AC0001004100410081C10000010041FFC100427
:105AD00010041004080807F0000010041FFC110453
